{
	"base/Function.sol": {
		"Function": {
			"abi": [
				{
					"inputs": [
						{
							"internalType": "uint256",
							"name": "",
							"type": "uint256"
						}
					],
					"name": "array",
					"outputs": [
						{
							"internalType": "uint256",
							"name": "",
							"type": "uint256"
						}
					],
					"stateMutability": "view",
					"type": "function"
				},
				{
					"inputs": [
						{
							"internalType": "uint256[]",
							"name": "_arr",
							"type": "uint256[]"
						}
					],
					"name": "arrayInput",
					"outputs": [],
					"stateMutability": "nonpayable",
					"type": "function"
				},
				{
					"inputs": [],
					"name": "arrayOutput",
					"outputs": [
						{
							"internalType": "uint256[]",
							"name": "",
							"type": "uint256[]"
						}
					],
					"stateMutability": "view",
					"type": "function"
				},
				{
					"inputs": [],
					"name": "assigned",
					"outputs": [
						{
							"internalType": "uint256",
							"name": "x",
							"type": "uint256"
						},
						{
							"internalType": "bool",
							"name": "b",
							"type": "bool"
						},
						{
							"internalType": "uint256",
							"name": "y",
							"type": "uint256"
						}
					],
					"stateMutability": "pure",
					"type": "function"
				},
				{
					"inputs": [],
					"name": "dstructuringAssignments",
					"outputs": [
						{
							"internalType": "uint256",
							"name": "",
							"type": "uint256"
						},
						{
							"internalType": "bool",
							"name": "",
							"type": "bool"
						},
						{
							"internalType": "uint256",
							"name": "",
							"type": "uint256"
						},
						{
							"internalType": "uint256",
							"name": "",
							"type": "uint256"
						},
						{
							"internalType": "uint256",
							"name": "",
							"type": "uint256"
						}
					],
					"stateMutability": "pure",
					"type": "function"
				},
				{
					"inputs": [],
					"name": "named",
					"outputs": [
						{
							"internalType": "uint256",
							"name": "x",
							"type": "uint256"
						},
						{
							"internalType": "bool",
							"name": "b",
							"type": "bool"
						},
						{
							"internalType": "uint256",
							"name": "y",
							"type": "uint256"
						}
					],
					"stateMutability": "pure",
					"type": "function"
				},
				{
					"inputs": [],
					"name": "returnMany",
					"outputs": [
						{
							"internalType": "uint256",
							"name": "",
							"type": "uint256"
						},
						{
							"internalType": "bool",
							"name": "",
							"type": "bool"
						},
						{
							"internalType": "uint256",
							"name": "",
							"type": "uint256"
						}
					],
					"stateMutability": "pure",
					"type": "function"
				}
			],
			"devdoc": {
				"kind": "dev",
				"methods": {},
				"version": 1
			},
			"evm": {
				"assembly": "    /* \"base/Function.sol\":60:1276  contract Function{... */\n  mstore(0x40, 0x80)\n  callvalue\n  dup1\n  iszero\n  tag_1\n  jumpi\n  0x00\n  dup1\n  revert\ntag_1:\n  pop\n  dataSize(sub_0)\n  dup1\n  dataOffset(sub_0)\n  0x00\n  codecopy\n  0x00\n  return\nstop\n\nsub_0: assembly {\n        /* \"base/Function.sol\":60:1276  contract Function{... */\n      mstore(0x40, 0x80)\n      callvalue\n      dup1\n      iszero\n      tag_1\n      jumpi\n      0x00\n      dup1\n      revert\n    tag_1:\n      pop\n      jumpi(tag_2, lt(calldatasize, 0x04))\n      shr(0xe0, calldataload(0x00))\n      dup1\n      0x86887544\n      gt\n      tag_10\n      jumpi\n      dup1\n      0x86887544\n      eq\n      tag_6\n      jumpi\n      dup1\n      0xadb4d990\n      eq\n      tag_7\n      jumpi\n      dup1\n      0xe7bdcea2\n      eq\n      tag_8\n      jumpi\n      dup1\n      0xf4bb6e6b\n      eq\n      tag_9\n      jumpi\n      jump(tag_2)\n    tag_10:\n      dup1\n      0x1990532b\n      eq\n      tag_3\n      jumpi\n      dup1\n      0x38d94193\n      eq\n      tag_4\n      jumpi\n      dup1\n      0x45f907a8\n      eq\n      tag_5\n      jumpi\n    tag_2:\n      0x00\n      dup1\n      revert\n        /* \"base/Function.sol\":1182:1273  function arrayOutput() public view returns(uint256[] memory){... */\n    tag_3:\n      tag_11\n      tag_12\n      jump\t// in\n    tag_11:\n      mload(0x40)\n      tag_13\n      swap2\n      swap1\n      tag_14\n      jump\t// in\n    tag_13:\n      mload(0x40)\n      dup1\n      swap2\n      sub\n      swap1\n      return\n        /* \"base/Function.sol\":1153:1175  uint256[] public array */\n    tag_4:\n      tag_15\n      0x04\n      dup1\n      calldatasize\n      sub\n      dup2\n      add\n      swap1\n      tag_16\n      swap2\n      swap1\n      tag_17\n      jump\t// in\n    tag_16:\n      tag_18\n      jump\t// in\n    tag_15:\n      mload(0x40)\n      tag_19\n      swap2\n      swap1\n      tag_20\n      jump\t// in\n    tag_19:\n      mload(0x40)\n      dup1\n      swap2\n      sub\n      swap1\n      return\n        /* \"base/Function.sol\":252:356  function named() public pure returns(uint256 x ,bool b, uint256 y){... */\n    tag_5:\n      tag_21\n      tag_22\n      jump\t// in\n    tag_21:\n      mload(0x40)\n      tag_23\n      swap4\n      swap3\n      swap2\n      swap1\n      tag_24\n      jump\t// in\n    tag_23:\n      mload(0x40)\n      dup1\n      swap2\n      sub\n      swap1\n      return\n        /* \"base/Function.sol\":111:211  function returnMany() public pure returns(uint256, bool, uint256){... */\n    tag_6:\n      tag_25\n      tag_26\n      jump\t// in\n    tag_25:\n      mload(0x40)\n      tag_27\n      swap4\n      swap3\n      swap2\n      swap1\n      tag_24\n      jump\t// in\n    tag_27:\n      mload(0x40)\n      dup1\n      swap2\n      sub\n      swap1\n      return\n        /* \"base/Function.sol\":478:608  function assigned() public pure returns(uint256 x,bool b, uint256 y){... */\n    tag_7:\n      tag_28\n      tag_29\n      jump\t// in\n    tag_28:\n      mload(0x40)\n      tag_30\n      swap4\n      swap3\n      swap2\n      swap1\n      tag_24\n      jump\t// in\n    tag_30:\n      mload(0x40)\n      dup1\n      swap2\n      sub\n      swap1\n      return\n        /* \"base/Function.sol\":683:989  function dstructuringAssignments()... */\n    tag_8:\n      tag_31\n      tag_32\n      jump\t// in\n    tag_31:\n      mload(0x40)\n      tag_33\n      swap6\n      swap5\n      swap4\n      swap3\n      swap2\n      swap1\n      tag_34\n      jump\t// in\n    tag_33:\n      mload(0x40)\n      dup1\n      swap2\n      sub\n      swap1\n      return\n        /* \"base/Function.sol\":1090:1141  function arrayInput(uint256[] memory _arr) public{} */\n    tag_9:\n      tag_35\n      0x04\n      dup1\n      calldatasize\n      sub\n      dup2\n      add\n      swap1\n      tag_36\n      swap2\n      swap1\n      tag_37\n      jump\t// in\n    tag_36:\n      tag_38\n      jump\t// in\n    tag_35:\n      stop\n        /* \"base/Function.sol\":1182:1273  function arrayOutput() public view returns(uint256[] memory){... */\n    tag_12:\n        /* \"base/Function.sol\":1225:1241  uint256[] memory */\n      0x60\n        /* \"base/Function.sol\":1260:1265  array */\n      0x00\n        /* \"base/Function.sol\":1253:1265  return array */\n      dup1\n      sload\n      dup1\n      0x20\n      mul\n      0x20\n      add\n      mload(0x40)\n      swap1\n      dup2\n      add\n      0x40\n      mstore\n      dup1\n      swap3\n      swap2\n      swap1\n      dup2\n      dup2\n      mstore\n      0x20\n      add\n      dup3\n      dup1\n      sload\n      dup1\n      iszero\n      tag_40\n      jumpi\n      0x20\n      mul\n      dup3\n      add\n      swap2\n      swap1\n      0x00\n      mstore\n      keccak256(0x00, 0x20)\n      swap1\n    tag_41:\n      dup2\n      sload\n      dup2\n      mstore\n      0x20\n      add\n      swap1\n      0x01\n      add\n      swap1\n      dup1\n      dup4\n      gt\n      tag_41\n      jumpi\n    tag_40:\n      pop\n      pop\n      pop\n      pop\n      pop\n      swap1\n      pop\n        /* \"base/Function.sol\":1182:1273  function arrayOutput() public view returns(uint256[] memory){... */\n      swap1\n      jump\t// out\n        /* \"base/Function.sol\":1153:1175  uint256[] public array */\n    tag_18:\n      0x00\n      dup2\n      dup2\n      sload\n      dup2\n      lt\n      tag_42\n      jumpi\n      0x00\n      dup1\n      revert\n    tag_42:\n      swap1\n      0x00\n      mstore\n      keccak256(0x00, 0x20)\n      add\n      0x00\n      swap2\n      pop\n      swap1\n      pop\n      sload\n      dup2\n      jump\t// out\n        /* \"base/Function.sol\":252:356  function named() public pure returns(uint256 x ,bool b, uint256 y){... */\n    tag_22:\n        /* \"base/Function.sol\":289:298  uint256 x */\n      0x00\n        /* \"base/Function.sol\":300:306  bool b */\n      dup1\n        /* \"base/Function.sol\":308:317  uint256 y */\n      0x00\n        /* \"base/Function.sol\":337:338  1 */\n      0x01\n        /* \"base/Function.sol\":340:344  true */\n      dup1\n        /* \"base/Function.sol\":346:347  2 */\n      0x02\n        /* \"base/Function.sol\":329:348  return (1, true, 2) */\n      swap3\n      pop\n      swap3\n      pop\n      swap3\n      pop\n        /* \"base/Function.sol\":252:356  function named() public pure returns(uint256 x ,bool b, uint256 y){... */\n      swap1\n      swap2\n      swap3\n      jump\t// out\n        /* \"base/Function.sol\":111:211  function returnMany() public pure returns(uint256, bool, uint256){... */\n    tag_26:\n        /* \"base/Function.sol\":153:160  uint256 */\n      0x00\n        /* \"base/Function.sol\":162:166  bool */\n      dup1\n        /* \"base/Function.sol\":168:175  uint256 */\n      0x00\n        /* \"base/Function.sol\":194:195  1 */\n      0x01\n        /* \"base/Function.sol\":196:200  true */\n      dup1\n        /* \"base/Function.sol\":201:202  3 */\n      0x03\n        /* \"base/Function.sol\":187:203  return(1,true,3) */\n      swap3\n      pop\n      swap3\n      pop\n      swap3\n      pop\n        /* \"base/Function.sol\":111:211  function returnMany() public pure returns(uint256, bool, uint256){... */\n      swap1\n      swap2\n      swap3\n      jump\t// out\n        /* \"base/Function.sol\":478:608  function assigned() public pure returns(uint256 x,bool b, uint256 y){... */\n    tag_29:\n        /* \"base/Function.sol\":518:527  uint256 x */\n      0x00\n        /* \"base/Function.sol\":528:534  bool b */\n      dup1\n        /* \"base/Function.sol\":536:545  uint256 y */\n      0x00\n        /* \"base/Function.sol\":561:563  12 */\n      0x0c\n        /* \"base/Function.sol\":557:563  x = 12 */\n      swap3\n      pop\n        /* \"base/Function.sol\":578:582  true */\n      0x01\n        /* \"base/Function.sol\":574:582  b = true */\n      swap2\n      pop\n        /* \"base/Function.sol\":597:600  234 */\n      0xea\n        /* \"base/Function.sol\":593:600  y = 234 */\n      swap1\n      pop\n        /* \"base/Function.sol\":478:608  function assigned() public pure returns(uint256 x,bool b, uint256 y){... */\n      swap1\n      swap2\n      swap3\n      jump\t// out\n        /* \"base/Function.sol\":683:989  function dstructuringAssignments()... */\n    tag_32:\n        /* \"base/Function.sol\":766:773  uint256 */\n      0x00\n        /* \"base/Function.sol\":776:780  bool */\n      dup1\n        /* \"base/Function.sol\":783:790  uint256 */\n      0x00\n        /* \"base/Function.sol\":793:800  uint256 */\n      dup1\n        /* \"base/Function.sol\":803:810  uint256 */\n      0x00\n        /* \"base/Function.sol\":824:833  uint256 i */\n      dup1\n        /* \"base/Function.sol\":835:841  bool b */\n      0x00\n        /* \"base/Function.sol\":842:851  uint256 j */\n      dup1\n        /* \"base/Function.sol\":855:867  returnMany() */\n      tag_48\n        /* \"base/Function.sol\":855:865  returnMany */\n      tag_26\n        /* \"base/Function.sol\":855:867  returnMany() */\n      jump\t// in\n    tag_48:\n        /* \"base/Function.sol\":823:867  (uint256 i, bool b,uint256 j) = returnMany() */\n      swap3\n      pop\n      swap3\n      pop\n      swap3\n      pop\n        /* \"base/Function.sol\":914:923  uint256 x */\n      0x00\n        /* \"base/Function.sol\":926:935  uint256 y */\n      dup1\n        /* \"base/Function.sol\":940:941  4 */\n      0x04\n        /* \"base/Function.sol\":942:943  5 */\n      0x05\n        /* \"base/Function.sol\":944:945  6 */\n      0x06\n        /* \"base/Function.sol\":913:946  (uint256 x, ,uint256 y) = (4,5,6) */\n      swap3\n      pop\n      pop\n      swap2\n      pop\n        /* \"base/Function.sol\":965:966  i */\n      dup5\n        /* \"base/Function.sol\":968:969  b */\n      dup5\n        /* \"base/Function.sol\":971:972  j */\n      dup5\n        /* \"base/Function.sol\":974:975  x */\n      dup5\n        /* \"base/Function.sol\":977:978  y */\n      dup5\n        /* \"base/Function.sol\":957:979  return (i, b, j, x, y) */\n      swap10\n      pop\n      swap10\n      pop\n      swap10\n      pop\n      swap10\n      pop\n      swap10\n      pop\n      pop\n      pop\n      pop\n      pop\n      pop\n        /* \"base/Function.sol\":683:989  function dstructuringAssignments()... */\n      swap1\n      swap2\n      swap3\n      swap4\n      swap5\n      jump\t// out\n        /* \"base/Function.sol\":1090:1141  function arrayInput(uint256[] memory _arr) public{} */\n    tag_38:\n      pop\n      jump\t// out\n        /* \"#utility.yul\":7:121   */\n    tag_50:\n        /* \"#utility.yul\":74:80   */\n      0x00\n        /* \"#utility.yul\":108:113   */\n      dup2\n        /* \"#utility.yul\":102:114   */\n      mload\n        /* \"#utility.yul\":92:114   */\n      swap1\n      pop\n        /* \"#utility.yul\":7:121   */\n      swap2\n      swap1\n      pop\n      jump\t// out\n        /* \"#utility.yul\":127:311   */\n    tag_51:\n        /* \"#utility.yul\":226:237   */\n      0x00\n        /* \"#utility.yul\":260:266   */\n      dup3\n        /* \"#utility.yul\":255:258   */\n      dup3\n        /* \"#utility.yul\":248:267   */\n      mstore\n        /* \"#utility.yul\":300:304   */\n      0x20\n        /* \"#utility.yul\":295:298   */\n      dup3\n        /* \"#utility.yul\":291:305   */\n      add\n        /* \"#utility.yul\":276:305   */\n      swap1\n      pop\n        /* \"#utility.yul\":127:311   */\n      swap3\n      swap2\n      pop\n      pop\n      jump\t// out\n        /* \"#utility.yul\":317:449   */\n    tag_52:\n        /* \"#utility.yul\":384:388   */\n      0x00\n        /* \"#utility.yul\":407:410   */\n      dup2\n        /* \"#utility.yul\":399:410   */\n      swap1\n      pop\n        /* \"#utility.yul\":437:441   */\n      0x20\n        /* \"#utility.yul\":432:435   */\n      dup3\n        /* \"#utility.yul\":428:442   */\n      add\n        /* \"#utility.yul\":420:442   */\n      swap1\n      pop\n        /* \"#utility.yul\":317:449   */\n      swap2\n      swap1\n      pop\n      jump\t// out\n        /* \"#utility.yul\":455:532   */\n    tag_53:\n        /* \"#utility.yul\":492:499   */\n      0x00\n        /* \"#utility.yul\":521:526   */\n      dup2\n        /* \"#utility.yul\":510:526   */\n      swap1\n      pop\n        /* \"#utility.yul\":455:532   */\n      swap2\n      swap1\n      pop\n      jump\t// out\n        /* \"#utility.yul\":538:646   */\n    tag_54:\n        /* \"#utility.yul\":615:639   */\n      tag_81\n        /* \"#utility.yul\":633:638   */\n      dup2\n        /* \"#utility.yul\":615:639   */\n      tag_53\n      jump\t// in\n    tag_81:\n        /* \"#utility.yul\":610:613   */\n      dup3\n        /* \"#utility.yul\":603:640   */\n      mstore\n        /* \"#utility.yul\":538:646   */\n      pop\n      pop\n      jump\t// out\n        /* \"#utility.yul\":652:831   */\n    tag_55:\n        /* \"#utility.yul\":721:731   */\n      0x00\n        /* \"#utility.yul\":742:788   */\n      tag_83\n        /* \"#utility.yul\":784:787   */\n      dup4\n        /* \"#utility.yul\":776:782   */\n      dup4\n        /* \"#utility.yul\":742:788   */\n      tag_54\n      jump\t// in\n    tag_83:\n        /* \"#utility.yul\":820:824   */\n      0x20\n        /* \"#utility.yul\":815:818   */\n      dup4\n        /* \"#utility.yul\":811:825   */\n      add\n        /* \"#utility.yul\":797:825   */\n      swap1\n      pop\n        /* \"#utility.yul\":652:831   */\n      swap3\n      swap2\n      pop\n      pop\n      jump\t// out\n        /* \"#utility.yul\":837:950   */\n    tag_56:\n        /* \"#utility.yul\":907:911   */\n      0x00\n        /* \"#utility.yul\":939:943   */\n      0x20\n        /* \"#utility.yul\":934:937   */\n      dup3\n        /* \"#utility.yul\":930:944   */\n      add\n        /* \"#utility.yul\":922:944   */\n      swap1\n      pop\n        /* \"#utility.yul\":837:950   */\n      swap2\n      swap1\n      pop\n      jump\t// out\n        /* \"#utility.yul\":986:1718   */\n    tag_57:\n        /* \"#utility.yul\":1105:1108   */\n      0x00\n        /* \"#utility.yul\":1134:1188   */\n      tag_86\n        /* \"#utility.yul\":1182:1187   */\n      dup3\n        /* \"#utility.yul\":1134:1188   */\n      tag_50\n      jump\t// in\n    tag_86:\n        /* \"#utility.yul\":1204:1290   */\n      tag_87\n        /* \"#utility.yul\":1283:1289   */\n      dup2\n        /* \"#utility.yul\":1278:1281   */\n      dup6\n        /* \"#utility.yul\":1204:1290   */\n      tag_51\n      jump\t// in\n    tag_87:\n        /* \"#utility.yul\":1197:1290   */\n      swap4\n      pop\n        /* \"#utility.yul\":1314:1370   */\n      tag_88\n        /* \"#utility.yul\":1364:1369   */\n      dup4\n        /* \"#utility.yul\":1314:1370   */\n      tag_52\n      jump\t// in\n    tag_88:\n        /* \"#utility.yul\":1393:1400   */\n      dup1\n        /* \"#utility.yul\":1424:1425   */\n      0x00\n        /* \"#utility.yul\":1409:1693   */\n    tag_89:\n        /* \"#utility.yul\":1434:1440   */\n      dup4\n        /* \"#utility.yul\":1431:1432   */\n      dup2\n        /* \"#utility.yul\":1428:1441   */\n      lt\n        /* \"#utility.yul\":1409:1693   */\n      iszero\n      tag_91\n      jumpi\n        /* \"#utility.yul\":1510:1516   */\n      dup2\n        /* \"#utility.yul\":1504:1517   */\n      mload\n        /* \"#utility.yul\":1537:1600   */\n      tag_92\n        /* \"#utility.yul\":1596:1599   */\n      dup9\n        /* \"#utility.yul\":1581:1594   */\n      dup3\n        /* \"#utility.yul\":1537:1600   */\n      tag_55\n      jump\t// in\n    tag_92:\n        /* \"#utility.yul\":1530:1600   */\n      swap8\n      pop\n        /* \"#utility.yul\":1623:1683   */\n      tag_93\n        /* \"#utility.yul\":1676:1682   */\n      dup4\n        /* \"#utility.yul\":1623:1683   */\n      tag_56\n      jump\t// in\n    tag_93:\n        /* \"#utility.yul\":1613:1683   */\n      swap3\n      pop\n        /* \"#utility.yul\":1469:1693   */\n      pop\n        /* \"#utility.yul\":1456:1457   */\n      0x01\n        /* \"#utility.yul\":1453:1454   */\n      dup2\n        /* \"#utility.yul\":1449:1458   */\n      add\n        /* \"#utility.yul\":1444:1458   */\n      swap1\n      pop\n        /* \"#utility.yul\":1409:1693   */\n      jump(tag_89)\n    tag_91:\n        /* \"#utility.yul\":1413:1427   */\n      pop\n        /* \"#utility.yul\":1709:1712   */\n      dup6\n        /* \"#utility.yul\":1702:1712   */\n      swap4\n      pop\n        /* \"#utility.yul\":1110:1718   */\n      pop\n      pop\n      pop\n        /* \"#utility.yul\":986:1718   */\n      swap3\n      swap2\n      pop\n      pop\n      jump\t// out\n        /* \"#utility.yul\":1724:2097   */\n    tag_14:\n        /* \"#utility.yul\":1867:1871   */\n      0x00\n        /* \"#utility.yul\":1905:1907   */\n      0x20\n        /* \"#utility.yul\":1894:1903   */\n      dup3\n        /* \"#utility.yul\":1890:1908   */\n      add\n        /* \"#utility.yul\":1882:1908   */\n      swap1\n      pop\n        /* \"#utility.yul\":1954:1963   */\n      dup2\n        /* \"#utility.yul\":1948:1952   */\n      dup2\n        /* \"#utility.yul\":1944:1964   */\n      sub\n        /* \"#utility.yul\":1940:1941   */\n      0x00\n        /* \"#utility.yul\":1929:1938   */\n      dup4\n        /* \"#utility.yul\":1925:1942   */\n      add\n        /* \"#utility.yul\":1918:1965   */\n      mstore\n        /* \"#utility.yul\":1982:2090   */\n      tag_95\n        /* \"#utility.yul\":2085:2089   */\n      dup2\n        /* \"#utility.yul\":2076:2082   */\n      dup5\n        /* \"#utility.yul\":1982:2090   */\n      tag_57\n      jump\t// in\n    tag_95:\n        /* \"#utility.yul\":1974:2090   */\n      swap1\n      pop\n        /* \"#utility.yul\":1724:2097   */\n      swap3\n      swap2\n      pop\n      pop\n      jump\t// out\n        /* \"#utility.yul\":2103:2178   */\n    tag_58:\n        /* \"#utility.yul\":2136:2142   */\n      0x00\n        /* \"#utility.yul\":2169:2171   */\n      0x40\n        /* \"#utility.yul\":2163:2172   */\n      mload\n        /* \"#utility.yul\":2153:2172   */\n      swap1\n      pop\n        /* \"#utility.yul\":2103:2178   */\n      swap1\n      jump\t// out\n        /* \"#utility.yul\":2184:2301   */\n    tag_59:\n        /* \"#utility.yul\":2293:2294   */\n      0x00\n        /* \"#utility.yul\":2290:2291   */\n      dup1\n        /* \"#utility.yul\":2283:2295   */\n      revert\n        /* \"#utility.yul\":2307:2424   */\n    tag_60:\n        /* \"#utility.yul\":2416:2417   */\n      0x00\n        /* \"#utility.yul\":2413:2414   */\n      dup1\n        /* \"#utility.yul\":2406:2418   */\n      revert\n        /* \"#utility.yul\":2430:2552   */\n    tag_61:\n        /* \"#utility.yul\":2503:2527   */\n      tag_100\n        /* \"#utility.yul\":2521:2526   */\n      dup2\n        /* \"#utility.yul\":2503:2527   */\n      tag_53\n      jump\t// in\n    tag_100:\n        /* \"#utility.yul\":2496:2501   */\n      dup2\n        /* \"#utility.yul\":2493:2528   */\n      eq\n        /* \"#utility.yul\":2483:2546   */\n      tag_101\n      jumpi\n        /* \"#utility.yul\":2542:2543   */\n      0x00\n        /* \"#utility.yul\":2539:2540   */\n      dup1\n        /* \"#utility.yul\":2532:2544   */\n      revert\n        /* \"#utility.yul\":2483:2546   */\n    tag_101:\n        /* \"#utility.yul\":2430:2552   */\n      pop\n      jump\t// out\n        /* \"#utility.yul\":2558:2697   */\n    tag_62:\n        /* \"#utility.yul\":2604:2609   */\n      0x00\n        /* \"#utility.yul\":2642:2648   */\n      dup2\n        /* \"#utility.yul\":2629:2649   */\n      calldataload\n        /* \"#utility.yul\":2620:2649   */\n      swap1\n      pop\n        /* \"#utility.yul\":2658:2691   */\n      tag_103\n        /* \"#utility.yul\":2685:2690   */\n      dup2\n        /* \"#utility.yul\":2658:2691   */\n      tag_61\n      jump\t// in\n    tag_103:\n        /* \"#utility.yul\":2558:2697   */\n      swap3\n      swap2\n      pop\n      pop\n      jump\t// out\n        /* \"#utility.yul\":2703:3032   */\n    tag_17:\n        /* \"#utility.yul\":2762:2768   */\n      0x00\n        /* \"#utility.yul\":2811:2813   */\n      0x20\n        /* \"#utility.yul\":2799:2808   */\n      dup3\n        /* \"#utility.yul\":2790:2797   */\n      dup5\n        /* \"#utility.yul\":2786:2809   */\n      sub\n        /* \"#utility.yul\":2782:2814   */\n      slt\n        /* \"#utility.yul\":2779:2898   */\n      iszero\n      tag_105\n      jumpi\n        /* \"#utility.yul\":2817:2896   */\n      tag_106\n      tag_59\n      jump\t// in\n    tag_106:\n        /* \"#utility.yul\":2779:2898   */\n    tag_105:\n        /* \"#utility.yul\":2937:2938   */\n      0x00\n        /* \"#utility.yul\":2962:3015   */\n      tag_107\n        /* \"#utility.yul\":3007:3014   */\n      dup5\n        /* \"#utility.yul\":2998:3004   */\n      dup3\n        /* \"#utility.yul\":2987:2996   */\n      dup6\n        /* \"#utility.yul\":2983:3005   */\n      add\n        /* \"#utility.yul\":2962:3015   */\n      tag_62\n      jump\t// in\n    tag_107:\n        /* \"#utility.yul\":2952:3015   */\n      swap2\n      pop\n        /* \"#utility.yul\":2908:3025   */\n      pop\n        /* \"#utility.yul\":2703:3032   */\n      swap3\n      swap2\n      pop\n      pop\n      jump\t// out\n        /* \"#utility.yul\":3038:3156   */\n    tag_63:\n        /* \"#utility.yul\":3125:3149   */\n      tag_109\n        /* \"#utility.yul\":3143:3148   */\n      dup2\n        /* \"#utility.yul\":3125:3149   */\n      tag_53\n      jump\t// in\n    tag_109:\n        /* \"#utility.yul\":3120:3123   */\n      dup3\n        /* \"#utility.yul\":3113:3150   */\n      mstore\n        /* \"#utility.yul\":3038:3156   */\n      pop\n      pop\n      jump\t// out\n        /* \"#utility.yul\":3162:3384   */\n    tag_20:\n        /* \"#utility.yul\":3255:3259   */\n      0x00\n        /* \"#utility.yul\":3293:3295   */\n      0x20\n        /* \"#utility.yul\":3282:3291   */\n      dup3\n        /* \"#utility.yul\":3278:3296   */\n      add\n        /* \"#utility.yul\":3270:3296   */\n      swap1\n      pop\n        /* \"#utility.yul\":3306:3377   */\n      tag_111\n        /* \"#utility.yul\":3374:3375   */\n      0x00\n        /* \"#utility.yul\":3363:3372   */\n      dup4\n        /* \"#utility.yul\":3359:3376   */\n      add\n        /* \"#utility.yul\":3350:3356   */\n      dup5\n        /* \"#utility.yul\":3306:3377   */\n      tag_63\n      jump\t// in\n    tag_111:\n        /* \"#utility.yul\":3162:3384   */\n      swap3\n      swap2\n      pop\n      pop\n      jump\t// out\n        /* \"#utility.yul\":3390:3480   */\n    tag_64:\n        /* \"#utility.yul\":3424:3431   */\n      0x00\n        /* \"#utility.yul\":3467:3472   */\n      dup2\n        /* \"#utility.yul\":3460:3473   */\n      iszero\n        /* \"#utility.yul\":3453:3474   */\n      iszero\n        /* \"#utility.yul\":3442:3474   */\n      swap1\n      pop\n        /* \"#utility.yul\":3390:3480   */\n      swap2\n      swap1\n      pop\n      jump\t// out\n        /* \"#utility.yul\":3486:3595   */\n    tag_65:\n        /* \"#utility.yul\":3567:3588   */\n      tag_114\n        /* \"#utility.yul\":3582:3587   */\n      dup2\n        /* \"#utility.yul\":3567:3588   */\n      tag_64\n      jump\t// in\n    tag_114:\n        /* \"#utility.yul\":3562:3565   */\n      dup3\n        /* \"#utility.yul\":3555:3589   */\n      mstore\n        /* \"#utility.yul\":3486:3595   */\n      pop\n      pop\n      jump\t// out\n        /* \"#utility.yul\":3601:4031   */\n    tag_24:\n        /* \"#utility.yul\":3744:3748   */\n      0x00\n        /* \"#utility.yul\":3782:3784   */\n      0x60\n        /* \"#utility.yul\":3771:3780   */\n      dup3\n        /* \"#utility.yul\":3767:3785   */\n      add\n        /* \"#utility.yul\":3759:3785   */\n      swap1\n      pop\n        /* \"#utility.yul\":3795:3866   */\n      tag_116\n        /* \"#utility.yul\":3863:3864   */\n      0x00\n        /* \"#utility.yul\":3852:3861   */\n      dup4\n        /* \"#utility.yul\":3848:3865   */\n      add\n        /* \"#utility.yul\":3839:3845   */\n      dup7\n        /* \"#utility.yul\":3795:3866   */\n      tag_63\n      jump\t// in\n    tag_116:\n        /* \"#utility.yul\":3876:3942   */\n      tag_117\n        /* \"#utility.yul\":3938:3940   */\n      0x20\n        /* \"#utility.yul\":3927:3936   */\n      dup4\n        /* \"#utility.yul\":3923:3941   */\n      add\n        /* \"#utility.yul\":3914:3920   */\n      dup6\n        /* \"#utility.yul\":3876:3942   */\n      tag_65\n      jump\t// in\n    tag_117:\n        /* \"#utility.yul\":3952:4024   */\n      tag_118\n        /* \"#utility.yul\":4020:4022   */\n      0x40\n        /* \"#utility.yul\":4009:4018   */\n      dup4\n        /* \"#utility.yul\":4005:4023   */\n      add\n        /* \"#utility.yul\":3996:4002   */\n      dup5\n        /* \"#utility.yul\":3952:4024   */\n      tag_63\n      jump\t// in\n    tag_118:\n        /* \"#utility.yul\":3601:4031   */\n      swap5\n      swap4\n      pop\n      pop\n      pop\n      pop\n      jump\t// out\n        /* \"#utility.yul\":4037:4689   */\n    tag_34:\n        /* \"#utility.yul\":4236:4240   */\n      0x00\n        /* \"#utility.yul\":4274:4277   */\n      0xa0\n        /* \"#utility.yul\":4263:4272   */\n      dup3\n        /* \"#utility.yul\":4259:4278   */\n      add\n        /* \"#utility.yul\":4251:4278   */\n      swap1\n      pop\n        /* \"#utility.yul\":4288:4359   */\n      tag_120\n        /* \"#utility.yul\":4356:4357   */\n      0x00\n        /* \"#utility.yul\":4345:4354   */\n      dup4\n        /* \"#utility.yul\":4341:4358   */\n      add\n        /* \"#utility.yul\":4332:4338   */\n      dup9\n        /* \"#utility.yul\":4288:4359   */\n      tag_63\n      jump\t// in\n    tag_120:\n        /* \"#utility.yul\":4369:4435   */\n      tag_121\n        /* \"#utility.yul\":4431:4433   */\n      0x20\n        /* \"#utility.yul\":4420:4429   */\n      dup4\n        /* \"#utility.yul\":4416:4434   */\n      add\n        /* \"#utility.yul\":4407:4413   */\n      dup8\n        /* \"#utility.yul\":4369:4435   */\n      tag_65\n      jump\t// in\n    tag_121:\n        /* \"#utility.yul\":4445:4517   */\n      tag_122\n        /* \"#utility.yul\":4513:4515   */\n      0x40\n        /* \"#utility.yul\":4502:4511   */\n      dup4\n        /* \"#utility.yul\":4498:4516   */\n      add\n        /* \"#utility.yul\":4489:4495   */\n      dup7\n        /* \"#utility.yul\":4445:4517   */\n      tag_63\n      jump\t// in\n    tag_122:\n        /* \"#utility.yul\":4527:4599   */\n      tag_123\n        /* \"#utility.yul\":4595:4597   */\n      0x60\n        /* \"#utility.yul\":4584:4593   */\n      dup4\n        /* \"#utility.yul\":4580:4598   */\n      add\n        /* \"#utility.yul\":4571:4577   */\n      dup6\n        /* \"#utility.yul\":4527:4599   */\n      tag_63\n      jump\t// in\n    tag_123:\n        /* \"#utility.yul\":4609:4682   */\n      tag_124\n        /* \"#utility.yul\":4677:4680   */\n      0x80\n        /* \"#utility.yul\":4666:4675   */\n      dup4\n        /* \"#utility.yul\":4662:4681   */\n      add\n        /* \"#utility.yul\":4653:4659   */\n      dup5\n        /* \"#utility.yul\":4609:4682   */\n      tag_63\n      jump\t// in\n    tag_124:\n        /* \"#utility.yul\":4037:4689   */\n      swap7\n      swap6\n      pop\n      pop\n      pop\n      pop\n      pop\n      pop\n      jump\t// out\n        /* \"#utility.yul\":4695:4812   */\n    tag_66:\n        /* \"#utility.yul\":4804:4805   */\n      0x00\n        /* \"#utility.yul\":4801:4802   */\n      dup1\n        /* \"#utility.yul\":4794:4806   */\n      revert\n        /* \"#utility.yul\":4818:4920   */\n    tag_67:\n        /* \"#utility.yul\":4859:4865   */\n      0x00\n        /* \"#utility.yul\":4910:4912   */\n      0x1f\n        /* \"#utility.yul\":4906:4913   */\n      not\n        /* \"#utility.yul\":4901:4903   */\n      0x1f\n        /* \"#utility.yul\":4894:4899   */\n      dup4\n        /* \"#utility.yul\":4890:4904   */\n      add\n        /* \"#utility.yul\":4886:4914   */\n      and\n        /* \"#utility.yul\":4876:4914   */\n      swap1\n      pop\n        /* \"#utility.yul\":4818:4920   */\n      swap2\n      swap1\n      pop\n      jump\t// out\n        /* \"#utility.yul\":4926:5106   */\n    tag_68:\n        /* \"#utility.yul\":4974:5051   */\n      0x4e487b7100000000000000000000000000000000000000000000000000000000\n        /* \"#utility.yul\":4971:4972   */\n      0x00\n        /* \"#utility.yul\":4964:5052   */\n      mstore\n        /* \"#utility.yul\":5071:5075   */\n      0x41\n        /* \"#utility.yul\":5068:5069   */\n      0x04\n        /* \"#utility.yul\":5061:5076   */\n      mstore\n        /* \"#utility.yul\":5095:5099   */\n      0x24\n        /* \"#utility.yul\":5092:5093   */\n      0x00\n        /* \"#utility.yul\":5085:5100   */\n      revert\n        /* \"#utility.yul\":5112:5393   */\n    tag_69:\n        /* \"#utility.yul\":5195:5222   */\n      tag_129\n        /* \"#utility.yul\":5217:5221   */\n      dup3\n        /* \"#utility.yul\":5195:5222   */\n      tag_67\n      jump\t// in\n    tag_129:\n        /* \"#utility.yul\":5187:5193   */\n      dup2\n        /* \"#utility.yul\":5183:5223   */\n      add\n        /* \"#utility.yul\":5325:5331   */\n      dup2\n        /* \"#utility.yul\":5313:5323   */\n      dup2\n        /* \"#utility.yul\":5310:5332   */\n      lt\n        /* \"#utility.yul\":5289:5307   */\n      0xffffffffffffffff\n        /* \"#utility.yul\":5277:5287   */\n      dup3\n        /* \"#utility.yul\":5274:5308   */\n      gt\n        /* \"#utility.yul\":5271:5333   */\n      or\n        /* \"#utility.yul\":5268:5356   */\n      iszero\n      tag_130\n      jumpi\n        /* \"#utility.yul\":5336:5354   */\n      tag_131\n      tag_68\n      jump\t// in\n    tag_131:\n        /* \"#utility.yul\":5268:5356   */\n    tag_130:\n        /* \"#utility.yul\":5376:5386   */\n      dup1\n        /* \"#utility.yul\":5372:5374   */\n      0x40\n        /* \"#utility.yul\":5365:5387   */\n      mstore\n        /* \"#utility.yul\":5155:5393   */\n      pop\n        /* \"#utility.yul\":5112:5393   */\n      pop\n      pop\n      jump\t// out\n        /* \"#utility.yul\":5399:5528   */\n    tag_70:\n        /* \"#utility.yul\":5433:5439   */\n      0x00\n        /* \"#utility.yul\":5460:5480   */\n      tag_133\n      tag_58\n      jump\t// in\n    tag_133:\n        /* \"#utility.yul\":5450:5480   */\n      swap1\n      pop\n        /* \"#utility.yul\":5489:5522   */\n      tag_134\n        /* \"#utility.yul\":5517:5521   */\n      dup3\n        /* \"#utility.yul\":5509:5515   */\n      dup3\n        /* \"#utility.yul\":5489:5522   */\n      tag_69\n      jump\t// in\n    tag_134:\n        /* \"#utility.yul\":5399:5528   */\n      swap2\n      swap1\n      pop\n      jump\t// out\n        /* \"#utility.yul\":5534:5845   */\n    tag_71:\n        /* \"#utility.yul\":5611:5615   */\n      0x00\n        /* \"#utility.yul\":5701:5719   */\n      0xffffffffffffffff\n        /* \"#utility.yul\":5693:5699   */\n      dup3\n        /* \"#utility.yul\":5690:5720   */\n      gt\n        /* \"#utility.yul\":5687:5743   */\n      iszero\n      tag_136\n      jumpi\n        /* \"#utility.yul\":5723:5741   */\n      tag_137\n      tag_68\n      jump\t// in\n    tag_137:\n        /* \"#utility.yul\":5687:5743   */\n    tag_136:\n        /* \"#utility.yul\":5773:5777   */\n      0x20\n        /* \"#utility.yul\":5765:5771   */\n      dup3\n        /* \"#utility.yul\":5761:5778   */\n      mul\n        /* \"#utility.yul\":5753:5778   */\n      swap1\n      pop\n        /* \"#utility.yul\":5833:5837   */\n      0x20\n        /* \"#utility.yul\":5827:5831   */\n      dup2\n        /* \"#utility.yul\":5823:5838   */\n      add\n        /* \"#utility.yul\":5815:5838   */\n      swap1\n      pop\n        /* \"#utility.yul\":5534:5845   */\n      swap2\n      swap1\n      pop\n      jump\t// out\n        /* \"#utility.yul\":5851:5968   */\n    tag_72:\n        /* \"#utility.yul\":5960:5961   */\n      0x00\n        /* \"#utility.yul\":5957:5958   */\n      dup1\n        /* \"#utility.yul\":5950:5962   */\n      revert\n        /* \"#utility.yul\":5991:6701   */\n    tag_73:\n        /* \"#utility.yul\":6087:6092   */\n      0x00\n        /* \"#utility.yul\":6112:6193   */\n      tag_140\n        /* \"#utility.yul\":6128:6192   */\n      tag_141\n        /* \"#utility.yul\":6185:6191   */\n      dup5\n        /* \"#utility.yul\":6128:6192   */\n      tag_71\n      jump\t// in\n    tag_141:\n        /* \"#utility.yul\":6112:6193   */\n      tag_70\n      jump\t// in\n    tag_140:\n        /* \"#utility.yul\":6103:6193   */\n      swap1\n      pop\n        /* \"#utility.yul\":6213:6218   */\n      dup1\n        /* \"#utility.yul\":6242:6248   */\n      dup4\n        /* \"#utility.yul\":6235:6240   */\n      dup3\n        /* \"#utility.yul\":6228:6249   */\n      mstore\n        /* \"#utility.yul\":6276:6280   */\n      0x20\n        /* \"#utility.yul\":6269:6274   */\n      dup3\n        /* \"#utility.yul\":6265:6281   */\n      add\n        /* \"#utility.yul\":6258:6281   */\n      swap1\n      pop\n        /* \"#utility.yul\":6329:6333   */\n      0x20\n        /* \"#utility.yul\":6321:6327   */\n      dup5\n        /* \"#utility.yul\":6317:6334   */\n      mul\n        /* \"#utility.yul\":6309:6315   */\n      dup4\n        /* \"#utility.yul\":6305:6335   */\n      add\n        /* \"#utility.yul\":6358:6361   */\n      dup6\n        /* \"#utility.yul\":6350:6356   */\n      dup2\n        /* \"#utility.yul\":6347:6362   */\n      gt\n        /* \"#utility.yul\":6344:6466   */\n      iszero\n      tag_142\n      jumpi\n        /* \"#utility.yul\":6377:6456   */\n      tag_143\n      tag_72\n      jump\t// in\n    tag_143:\n        /* \"#utility.yul\":6344:6466   */\n    tag_142:\n        /* \"#utility.yul\":6492:6498   */\n      dup4\n        /* \"#utility.yul\":6475:6695   */\n    tag_144:\n        /* \"#utility.yul\":6509:6515   */\n      dup2\n        /* \"#utility.yul\":6504:6507   */\n      dup2\n        /* \"#utility.yul\":6501:6516   */\n      lt\n        /* \"#utility.yul\":6475:6695   */\n      iszero\n      tag_146\n      jumpi\n        /* \"#utility.yul\":6584:6587   */\n      dup1\n        /* \"#utility.yul\":6613:6650   */\n      tag_147\n        /* \"#utility.yul\":6646:6649   */\n      dup9\n        /* \"#utility.yul\":6634:6644   */\n      dup3\n        /* \"#utility.yul\":6613:6650   */\n      tag_62\n      jump\t// in\n    tag_147:\n        /* \"#utility.yul\":6608:6611   */\n      dup5\n        /* \"#utility.yul\":6601:6651   */\n      mstore\n        /* \"#utility.yul\":6680:6684   */\n      0x20\n        /* \"#utility.yul\":6675:6678   */\n      dup5\n        /* \"#utility.yul\":6671:6685   */\n      add\n        /* \"#utility.yul\":6664:6685   */\n      swap4\n      pop\n        /* \"#utility.yul\":6551:6695   */\n      pop\n        /* \"#utility.yul\":6535:6539   */\n      0x20\n        /* \"#utility.yul\":6530:6533   */\n      dup2\n        /* \"#utility.yul\":6526:6540   */\n      add\n        /* \"#utility.yul\":6519:6540   */\n      swap1\n      pop\n        /* \"#utility.yul\":6475:6695   */\n      jump(tag_144)\n    tag_146:\n        /* \"#utility.yul\":6479:6500   */\n      pop\n        /* \"#utility.yul\":6093:6701   */\n      pop\n      pop\n        /* \"#utility.yul\":5991:6701   */\n      swap4\n      swap3\n      pop\n      pop\n      pop\n      jump\t// out\n        /* \"#utility.yul\":6724:7094   */\n    tag_74:\n        /* \"#utility.yul\":6795:6800   */\n      0x00\n        /* \"#utility.yul\":6844:6847   */\n      dup3\n        /* \"#utility.yul\":6837:6841   */\n      0x1f\n        /* \"#utility.yul\":6829:6835   */\n      dup4\n        /* \"#utility.yul\":6825:6842   */\n      add\n        /* \"#utility.yul\":6821:6848   */\n      slt\n        /* \"#utility.yul\":6811:6933   */\n      tag_149\n      jumpi\n        /* \"#utility.yul\":6852:6931   */\n      tag_150\n      tag_66\n      jump\t// in\n    tag_150:\n        /* \"#utility.yul\":6811:6933   */\n    tag_149:\n        /* \"#utility.yul\":6969:6975   */\n      dup2\n        /* \"#utility.yul\":6956:6976   */\n      calldataload\n        /* \"#utility.yul\":6994:7088   */\n      tag_151\n        /* \"#utility.yul\":7084:7087   */\n      dup5\n        /* \"#utility.yul\":7076:7082   */\n      dup3\n        /* \"#utility.yul\":7069:7073   */\n      0x20\n        /* \"#utility.yul\":7061:7067   */\n      dup7\n        /* \"#utility.yul\":7057:7074   */\n      add\n        /* \"#utility.yul\":6994:7088   */\n      tag_73\n      jump\t// in\n    tag_151:\n        /* \"#utility.yul\":6985:7088   */\n      swap2\n      pop\n        /* \"#utility.yul\":6801:7094   */\n      pop\n        /* \"#utility.yul\":6724:7094   */\n      swap3\n      swap2\n      pop\n      pop\n      jump\t// out\n        /* \"#utility.yul\":7100:7639   */\n    tag_37:\n        /* \"#utility.yul\":7184:7190   */\n      0x00\n        /* \"#utility.yul\":7233:7235   */\n      0x20\n        /* \"#utility.yul\":7221:7230   */\n      dup3\n        /* \"#utility.yul\":7212:7219   */\n      dup5\n        /* \"#utility.yul\":7208:7231   */\n      sub\n        /* \"#utility.yul\":7204:7236   */\n      slt\n        /* \"#utility.yul\":7201:7320   */\n      iszero\n      tag_153\n      jumpi\n        /* \"#utility.yul\":7239:7318   */\n      tag_154\n      tag_59\n      jump\t// in\n    tag_154:\n        /* \"#utility.yul\":7201:7320   */\n    tag_153:\n        /* \"#utility.yul\":7387:7388   */\n      0x00\n        /* \"#utility.yul\":7376:7385   */\n      dup3\n        /* \"#utility.yul\":7372:7389   */\n      add\n        /* \"#utility.yul\":7359:7390   */\n      calldataload\n        /* \"#utility.yul\":7417:7435   */\n      0xffffffffffffffff\n        /* \"#utility.yul\":7409:7415   */\n      dup2\n        /* \"#utility.yul\":7406:7436   */\n      gt\n        /* \"#utility.yul\":7403:7520   */\n      iszero\n      tag_155\n      jumpi\n        /* \"#utility.yul\":7439:7518   */\n      tag_156\n      tag_60\n      jump\t// in\n    tag_156:\n        /* \"#utility.yul\":7403:7520   */\n    tag_155:\n        /* \"#utility.yul\":7544:7622   */\n      tag_157\n        /* \"#utility.yul\":7614:7621   */\n      dup5\n        /* \"#utility.yul\":7605:7611   */\n      dup3\n        /* \"#utility.yul\":7594:7603   */\n      dup6\n        /* \"#utility.yul\":7590:7612   */\n      add\n        /* \"#utility.yul\":7544:7622   */\n      tag_74\n      jump\t// in\n    tag_157:\n        /* \"#utility.yul\":7534:7622   */\n      swap2\n      pop\n        /* \"#utility.yul\":7330:7632   */\n      pop\n        /* \"#utility.yul\":7100:7639   */\n      swap3\n      swap2\n      pop\n      pop\n      jump\t// out\n\n    auxdata: 0xa26469706673582212207ecc3b447e4a98aac59602ed9a7eee7898a333ee30a06f752920a0fb4bf7a6a864736f6c634300081a0033\n}\n",
				"bytecode": {
					"linkReferences": {},
					"object": "6080604052348015600e575f80fd5b506106358061001c5f395ff3fe608060405234801561000f575f80fd5b506004361061007b575f3560e01c8063868875441161005957806386887544146100ed578063adb4d9901461010d578063e7bdcea21461012d578063f4bb6e6b1461014f5761007b565b80631990532b1461007f57806338d941931461009d57806345f907a8146100cd575b5f80fd5b61008761016b565b604051610094919061031a565b60405180910390f35b6100b760048036038101906100b29190610375565b6101c0565b6040516100c491906103af565b60405180910390f35b6100d56101df565b6040516100e4939291906103e2565b60405180910390f35b6100f56101f2565b604051610104939291906103e2565b60405180910390f35b610115610205565b604051610124939291906103e2565b60405180910390f35b610135610219565b604051610146959493929190610417565b60405180910390f35b610169600480360381019061016491906105b8565b610257565b005b60605f8054806020026020016040519081016040528092919081815260200182805480156101b657602002820191905f5260205f20905b8154815260200190600101908083116101a2575b5050505050905090565b5f81815481106101ce575f80fd5b905f5260205f20015f915090505481565b5f805f6001806002925092509250909192565b5f805f6001806003925092509250909192565b5f805f600c92506001915060ea9050909192565b5f805f805f805f806102296101f2565b9250925092505f80600460056006925050915084848484849950995099509950995050505050509091929394565b50565b5f81519050919050565b5f82825260208201905092915050565b5f819050602082019050919050565b5f819050919050565b61029581610283565b82525050565b5f6102a6838361028c565b60208301905092915050565b5f602082019050919050565b5f6102c88261025a565b6102d28185610264565b93506102dd83610274565b805f5b8381101561030d5781516102f4888261029b565b97506102ff836102b2565b9250506001810190506102e0565b5085935050505092915050565b5f6020820190508181035f83015261033281846102be565b905092915050565b5f604051905090565b5f80fd5b5f80fd5b61035481610283565b811461035e575f80fd5b50565b5f8135905061036f8161034b565b92915050565b5f6020828403121561038a57610389610343565b5b5f61039784828501610361565b91505092915050565b6103a981610283565b82525050565b5f6020820190506103c25f8301846103a0565b92915050565b5f8115159050919050565b6103dc816103c8565b82525050565b5f6060820190506103f55f8301866103a0565b61040260208301856103d3565b61040f60408301846103a0565b949350505050565b5f60a08201905061042a5f8301886103a0565b61043760208301876103d3565b61044460408301866103a0565b61045160608301856103a0565b61045e60808301846103a0565b9695505050505050565b5f80fd5b5f601f19601f8301169050919050565b7f4e487b71000000000000000000000000000000000000000000000000000000005f52604160045260245ffd5b6104b28261046c565b810181811067ffffffffffffffff821117156104d1576104d061047c565b5b80604052505050565b5f6104e361033a565b90506104ef82826104a9565b919050565b5f67ffffffffffffffff82111561050e5761050d61047c565b5b602082029050602081019050919050565b5f80fd5b5f610535610530846104f4565b6104da565b905080838252602082019050602084028301858111156105585761055761051f565b5b835b81811015610581578061056d8882610361565b84526020840193505060208101905061055a565b5050509392505050565b5f82601f83011261059f5761059e610468565b5b81356105af848260208601610523565b91505092915050565b5f602082840312156105cd576105cc610343565b5b5f82013567ffffffffffffffff8111156105ea576105e9610347565b5b6105f68482850161058b565b9150509291505056fea26469706673582212207ecc3b447e4a98aac59602ed9a7eee7898a333ee30a06f752920a0fb4bf7a6a864736f6c634300081a0033",
					"opcodes": "PUSH1 0x80 PUSH1 0x40 MSTORE CALLVALUE DUP1 ISZERO PUSH1 0xE JUMPI PUSH0 DUP1 REVERT JUMPDEST POP PUSH2 0x635 DUP1 PUSH2 0x1C PUSH0 CODECOPY PUSH0 RETURN INVALID PUSH1 0x80 PUSH1 0x40 MSTORE CALLVALUE DUP1 ISZERO PUSH2 0xF JUMPI PUSH0 DUP1 REVERT JUMPDEST POP PUSH1 0x4 CALLDATASIZE LT PUSH2 0x7B JUMPI PUSH0 CALLDATALOAD PUSH1 0xE0 SHR DUP1 PUSH4 0x86887544 GT PUSH2 0x59 JUMPI DUP1 PUSH4 0x86887544 EQ PUSH2 0xED JUMPI DUP1 PUSH4 0xADB4D990 EQ PUSH2 0x10D JUMPI DUP1 PUSH4 0xE7BDCEA2 EQ PUSH2 0x12D JUMPI DUP1 PUSH4 0xF4BB6E6B EQ PUSH2 0x14F JUMPI PUSH2 0x7B JUMP JUMPDEST DUP1 PUSH4 0x1990532B EQ PUSH2 0x7F JUMPI DUP1 PUSH4 0x38D94193 EQ PUSH2 0x9D JUMPI DUP1 PUSH4 0x45F907A8 EQ PUSH2 0xCD JUMPI JUMPDEST PUSH0 DUP1 REVERT JUMPDEST PUSH2 0x87 PUSH2 0x16B JUMP JUMPDEST PUSH1 0x40 MLOAD PUSH2 0x94 SWAP2 SWAP1 PUSH2 0x31A JUMP JUMPDEST PUSH1 0x40 MLOAD DUP1 SWAP2 SUB SWAP1 RETURN JUMPDEST PUSH2 0xB7 PUSH1 0x4 DUP1 CALLDATASIZE SUB DUP2 ADD SWAP1 PUSH2 0xB2 SWAP2 SWAP1 PUSH2 0x375 JUMP JUMPDEST PUSH2 0x1C0 JUMP JUMPDEST PUSH1 0x40 MLOAD PUSH2 0xC4 SWAP2 SWAP1 PUSH2 0x3AF JUMP JUMPDEST PUSH1 0x40 MLOAD DUP1 SWAP2 SUB SWAP1 RETURN JUMPDEST PUSH2 0xD5 PUSH2 0x1DF JUMP JUMPDEST PUSH1 0x40 MLOAD PUSH2 0xE4 SWAP4 SWAP3 SWAP2 SWAP1 PUSH2 0x3E2 JUMP JUMPDEST PUSH1 0x40 MLOAD DUP1 SWAP2 SUB SWAP1 RETURN JUMPDEST PUSH2 0xF5 PUSH2 0x1F2 JUMP JUMPDEST PUSH1 0x40 MLOAD PUSH2 0x104 SWAP4 SWAP3 SWAP2 SWAP1 PUSH2 0x3E2 JUMP JUMPDEST PUSH1 0x40 MLOAD DUP1 SWAP2 SUB SWAP1 RETURN JUMPDEST PUSH2 0x115 PUSH2 0x205 JUMP JUMPDEST PUSH1 0x40 MLOAD PUSH2 0x124 SWAP4 SWAP3 SWAP2 SWAP1 PUSH2 0x3E2 JUMP JUMPDEST PUSH1 0x40 MLOAD DUP1 SWAP2 SUB SWAP1 RETURN JUMPDEST PUSH2 0x135 PUSH2 0x219 JUMP JUMPDEST PUSH1 0x40 MLOAD PUSH2 0x146 SWAP6 SWAP5 SWAP4 SWAP3 SWAP2 SWAP1 PUSH2 0x417 JUMP JUMPDEST PUSH1 0x40 MLOAD DUP1 SWAP2 SUB SWAP1 RETURN JUMPDEST PUSH2 0x169 PUSH1 0x4 DUP1 CALLDATASIZE SUB DUP2 ADD SWAP1 PUSH2 0x164 SWAP2 SWAP1 PUSH2 0x5B8 JUMP JUMPDEST PUSH2 0x257 JUMP JUMPDEST STOP JUMPDEST PUSH1 0x60 PUSH0 DUP1 SLOAD DUP1 PUSH1 0x20 MUL PUSH1 0x20 ADD PUSH1 0x40 MLOAD SWAP1 DUP2 ADD PUSH1 0x40 MSTORE DUP1 SWAP3 SWAP2 SWAP1 DUP2 DUP2 MSTORE PUSH1 0x20 ADD DUP3 DUP1 SLOAD DUP1 ISZERO PUSH2 0x1B6 JUMPI PUSH1 0x20 MUL DUP3 ADD SWAP2 SWAP1 PUSH0 MSTORE PUSH1 0x20 PUSH0 KECCAK256 SWAP1 JUMPDEST DUP2 SLOAD DUP2 MSTORE PUSH1 0x20 ADD SWAP1 PUSH1 0x1 ADD SWAP1 DUP1 DUP4 GT PUSH2 0x1A2 JUMPI JUMPDEST POP POP POP POP POP SWAP1 POP SWAP1 JUMP JUMPDEST PUSH0 DUP2 DUP2 SLOAD DUP2 LT PUSH2 0x1CE JUMPI PUSH0 DUP1 REVERT JUMPDEST SWAP1 PUSH0 MSTORE PUSH1 0x20 PUSH0 KECCAK256 ADD PUSH0 SWAP2 POP SWAP1 POP SLOAD DUP2 JUMP JUMPDEST PUSH0 DUP1 PUSH0 PUSH1 0x1 DUP1 PUSH1 0x2 SWAP3 POP SWAP3 POP SWAP3 POP SWAP1 SWAP2 SWAP3 JUMP JUMPDEST PUSH0 DUP1 PUSH0 PUSH1 0x1 DUP1 PUSH1 0x3 SWAP3 POP SWAP3 POP SWAP3 POP SWAP1 SWAP2 SWAP3 JUMP JUMPDEST PUSH0 DUP1 PUSH0 PUSH1 0xC SWAP3 POP PUSH1 0x1 SWAP2 POP PUSH1 0xEA SWAP1 POP SWAP1 SWAP2 SWAP3 JUMP JUMPDEST PUSH0 DUP1 PUSH0 DUP1 PUSH0 DUP1 PUSH0 DUP1 PUSH2 0x229 PUSH2 0x1F2 JUMP JUMPDEST SWAP3 POP SWAP3 POP SWAP3 POP PUSH0 DUP1 PUSH1 0x4 PUSH1 0x5 PUSH1 0x6 SWAP3 POP POP SWAP2 POP DUP5 DUP5 DUP5 DUP5 DUP5 SWAP10 POP SWAP10 POP SWAP10 POP SWAP10 POP SWAP10 POP POP POP POP POP POP SWAP1 SWAP2 SWAP3 SWAP4 SWAP5 JUMP JUMPDEST POP JUMP JUMPDEST PUSH0 DUP2 MLOAD SWAP1 POP SWAP2 SWAP1 POP JUMP JUMPDEST PUSH0 DUP3 DUP3 MSTORE PUSH1 0x20 DUP3 ADD SWAP1 POP SWAP3 SWAP2 POP POP JUMP JUMPDEST PUSH0 DUP2 SWAP1 POP PUSH1 0x20 DUP3 ADD SWAP1 POP SWAP2 SWAP1 POP JUMP JUMPDEST PUSH0 DUP2 SWAP1 POP SWAP2 SWAP1 POP JUMP JUMPDEST PUSH2 0x295 DUP2 PUSH2 0x283 JUMP JUMPDEST DUP3 MSTORE POP POP JUMP JUMPDEST PUSH0 PUSH2 0x2A6 DUP4 DUP4 PUSH2 0x28C JUMP JUMPDEST PUSH1 0x20 DUP4 ADD SWAP1 POP SWAP3 SWAP2 POP POP JUMP JUMPDEST PUSH0 PUSH1 0x20 DUP3 ADD SWAP1 POP SWAP2 SWAP1 POP JUMP JUMPDEST PUSH0 PUSH2 0x2C8 DUP3 PUSH2 0x25A JUMP JUMPDEST PUSH2 0x2D2 DUP2 DUP6 PUSH2 0x264 JUMP JUMPDEST SWAP4 POP PUSH2 0x2DD DUP4 PUSH2 0x274 JUMP JUMPDEST DUP1 PUSH0 JUMPDEST DUP4 DUP2 LT ISZERO PUSH2 0x30D JUMPI DUP2 MLOAD PUSH2 0x2F4 DUP9 DUP3 PUSH2 0x29B JUMP JUMPDEST SWAP8 POP PUSH2 0x2FF DUP4 PUSH2 0x2B2 JUMP JUMPDEST SWAP3 POP POP PUSH1 0x1 DUP2 ADD SWAP1 POP PUSH2 0x2E0 JUMP JUMPDEST POP DUP6 SWAP4 POP POP POP POP SWAP3 SWAP2 POP POP JUMP JUMPDEST PUSH0 PUSH1 0x20 DUP3 ADD SWAP1 POP DUP2 DUP2 SUB PUSH0 DUP4 ADD MSTORE PUSH2 0x332 DUP2 DUP5 PUSH2 0x2BE JUMP JUMPDEST SWAP1 POP SWAP3 SWAP2 POP POP JUMP JUMPDEST PUSH0 PUSH1 0x40 MLOAD SWAP1 POP SWAP1 JUMP JUMPDEST PUSH0 DUP1 REVERT JUMPDEST PUSH0 DUP1 REVERT JUMPDEST PUSH2 0x354 DUP2 PUSH2 0x283 JUMP JUMPDEST DUP2 EQ PUSH2 0x35E JUMPI PUSH0 DUP1 REVERT JUMPDEST POP JUMP JUMPDEST PUSH0 DUP2 CALLDATALOAD SWAP1 POP PUSH2 0x36F DUP2 PUSH2 0x34B JUMP JUMPDEST SWAP3 SWAP2 POP POP JUMP JUMPDEST PUSH0 PUSH1 0x20 DUP3 DUP5 SUB SLT ISZERO PUSH2 0x38A JUMPI PUSH2 0x389 PUSH2 0x343 JUMP JUMPDEST JUMPDEST PUSH0 PUSH2 0x397 DUP5 DUP3 DUP6 ADD PUSH2 0x361 JUMP JUMPDEST SWAP2 POP POP SWAP3 SWAP2 POP POP JUMP JUMPDEST PUSH2 0x3A9 DUP2 PUSH2 0x283 JUMP JUMPDEST DUP3 MSTORE POP POP JUMP JUMPDEST PUSH0 PUSH1 0x20 DUP3 ADD SWAP1 POP PUSH2 0x3C2 PUSH0 DUP4 ADD DUP5 PUSH2 0x3A0 JUMP JUMPDEST SWAP3 SWAP2 POP POP JUMP JUMPDEST PUSH0 DUP2 ISZERO ISZERO SWAP1 POP SWAP2 SWAP1 POP JUMP JUMPDEST PUSH2 0x3DC DUP2 PUSH2 0x3C8 JUMP JUMPDEST DUP3 MSTORE POP POP JUMP JUMPDEST PUSH0 PUSH1 0x60 DUP3 ADD SWAP1 POP PUSH2 0x3F5 PUSH0 DUP4 ADD DUP7 PUSH2 0x3A0 JUMP JUMPDEST PUSH2 0x402 PUSH1 0x20 DUP4 ADD DUP6 PUSH2 0x3D3 JUMP JUMPDEST PUSH2 0x40F PUSH1 0x40 DUP4 ADD DUP5 PUSH2 0x3A0 JUMP JUMPDEST SWAP5 SWAP4 POP POP POP POP JUMP JUMPDEST PUSH0 PUSH1 0xA0 DUP3 ADD SWAP1 POP PUSH2 0x42A PUSH0 DUP4 ADD DUP9 PUSH2 0x3A0 JUMP JUMPDEST PUSH2 0x437 PUSH1 0x20 DUP4 ADD DUP8 PUSH2 0x3D3 JUMP JUMPDEST PUSH2 0x444 PUSH1 0x40 DUP4 ADD DUP7 PUSH2 0x3A0 JUMP JUMPDEST PUSH2 0x451 PUSH1 0x60 DUP4 ADD DUP6 PUSH2 0x3A0 JUMP JUMPDEST PUSH2 0x45E PUSH1 0x80 DUP4 ADD DUP5 PUSH2 0x3A0 JUMP JUMPDEST SWAP7 SWAP6 POP POP POP POP POP POP JUMP JUMPDEST PUSH0 DUP1 REVERT JUMPDEST PUSH0 PUSH1 0x1F NOT PUSH1 0x1F DUP4 ADD AND SWAP1 POP SWAP2 SWAP1 POP JUMP JUMPDEST PUSH32 0x4E487B7100000000000000000000000000000000000000000000000000000000 PUSH0 MSTORE PUSH1 0x41 PUSH1 0x4 MSTORE PUSH1 0x24 PUSH0 REVERT JUMPDEST PUSH2 0x4B2 DUP3 PUSH2 0x46C JUMP JUMPDEST DUP2 ADD DUP2 DUP2 LT PUSH8 0xFFFFFFFFFFFFFFFF DUP3 GT OR ISZERO PUSH2 0x4D1 JUMPI PUSH2 0x4D0 PUSH2 0x47C JUMP JUMPDEST JUMPDEST DUP1 PUSH1 0x40 MSTORE POP POP POP JUMP JUMPDEST PUSH0 PUSH2 0x4E3 PUSH2 0x33A JUMP JUMPDEST SWAP1 POP PUSH2 0x4EF DUP3 DUP3 PUSH2 0x4A9 JUMP JUMPDEST SWAP2 SWAP1 POP JUMP JUMPDEST PUSH0 PUSH8 0xFFFFFFFFFFFFFFFF DUP3 GT ISZERO PUSH2 0x50E JUMPI PUSH2 0x50D PUSH2 0x47C JUMP JUMPDEST JUMPDEST PUSH1 0x20 DUP3 MUL SWAP1 POP PUSH1 0x20 DUP2 ADD SWAP1 POP SWAP2 SWAP1 POP JUMP JUMPDEST PUSH0 DUP1 REVERT JUMPDEST PUSH0 PUSH2 0x535 PUSH2 0x530 DUP5 PUSH2 0x4F4 JUMP JUMPDEST PUSH2 0x4DA JUMP JUMPDEST SWAP1 POP DUP1 DUP4 DUP3 MSTORE PUSH1 0x20 DUP3 ADD SWAP1 POP PUSH1 0x20 DUP5 MUL DUP4 ADD DUP6 DUP2 GT ISZERO PUSH2 0x558 JUMPI PUSH2 0x557 PUSH2 0x51F JUMP JUMPDEST JUMPDEST DUP4 JUMPDEST DUP2 DUP2 LT ISZERO PUSH2 0x581 JUMPI DUP1 PUSH2 0x56D DUP9 DUP3 PUSH2 0x361 JUMP JUMPDEST DUP5 MSTORE PUSH1 0x20 DUP5 ADD SWAP4 POP POP PUSH1 0x20 DUP2 ADD SWAP1 POP PUSH2 0x55A JUMP JUMPDEST POP POP POP SWAP4 SWAP3 POP POP POP JUMP JUMPDEST PUSH0 DUP3 PUSH1 0x1F DUP4 ADD SLT PUSH2 0x59F JUMPI PUSH2 0x59E PUSH2 0x468 JUMP JUMPDEST JUMPDEST DUP2 CALLDATALOAD PUSH2 0x5AF DUP5 DUP3 PUSH1 0x20 DUP7 ADD PUSH2 0x523 JUMP JUMPDEST SWAP2 POP POP SWAP3 SWAP2 POP POP JUMP JUMPDEST PUSH0 PUSH1 0x20 DUP3 DUP5 SUB SLT ISZERO PUSH2 0x5CD JUMPI PUSH2 0x5CC PUSH2 0x343 JUMP JUMPDEST JUMPDEST PUSH0 DUP3 ADD CALLDATALOAD PUSH8 0xFFFFFFFFFFFFFFFF DUP2 GT ISZERO PUSH2 0x5EA JUMPI PUSH2 0x5E9 PUSH2 0x347 JUMP JUMPDEST JUMPDEST PUSH2 0x5F6 DUP5 DUP3 DUP6 ADD PUSH2 0x58B JUMP JUMPDEST SWAP2 POP POP SWAP3 SWAP2 POP POP JUMP INVALID LOG2 PUSH5 0x6970667358 0x22 SLT KECCAK256 PUSH31 0xCC3B447E4A98AAC59602ED9A7EEE7898A333EE30A06F752920A0FB4BF7A6A8 PUSH5 0x736F6C6343 STOP ADDMOD BYTE STOP CALLER "
				},
				"gasEstimates": {
					"creation": {
						"codeDepositCost": "317800",
						"executionCost": "353",
						"totalCost": "318153"
					},
					"external": {
						"array(uint256)": "infinite",
						"arrayInput(uint256[])": "infinite",
						"arrayOutput()": "infinite",
						"assigned()": "infinite",
						"dstructuringAssignments()": "infinite",
						"named()": "infinite",
						"returnMany()": "infinite"
					}
				},
				"methodIdentifiers": {
					"array(uint256)": "38d94193",
					"arrayInput(uint256[])": "f4bb6e6b",
					"arrayOutput()": "1990532b",
					"assigned()": "adb4d990",
					"dstructuringAssignments()": "e7bdcea2",
					"named()": "45f907a8",
					"returnMany()": "86887544"
				}
			},
			"storageLayout": {
				"storage": [
					{
						"astId": 102,
						"contract": "base/Function.sol:Function",
						"label": "array",
						"offset": 0,
						"slot": "0",
						"type": "t_array(t_uint256)dyn_storage"
					}
				],
				"types": {
					"t_array(t_uint256)dyn_storage": {
						"base": "t_uint256",
						"encoding": "dynamic_array",
						"label": "uint256[]",
						"numberOfBytes": "32"
					},
					"t_uint256": {
						"encoding": "inplace",
						"label": "uint256",
						"numberOfBytes": "32"
					}
				}
			},
			"userdoc": {
				"kind": "user",
				"methods": {},
				"version": 1
			}
		}
	}
}