{
	"base/Todos.sol": {
		"Todos": {
			"abi": [
				{
					"inputs": [
						{
							"internalType": "string",
							"name": "_text",
							"type": "string"
						}
					],
					"name": "create",
					"outputs": [],
					"stateMutability": "nonpayable",
					"type": "function"
				},
				{
					"inputs": [
						{
							"internalType": "uint256",
							"name": "_index",
							"type": "uint256"
						}
					],
					"name": "get",
					"outputs": [
						{
							"internalType": "string",
							"name": "text",
							"type": "string"
						},
						{
							"internalType": "bool",
							"name": "completed",
							"type": "bool"
						}
					],
					"stateMutability": "view",
					"type": "function"
				},
				{
					"inputs": [
						{
							"internalType": "uint256",
							"name": "_index",
							"type": "uint256"
						},
						{
							"internalType": "string",
							"name": "_text",
							"type": "string"
						}
					],
					"name": "set",
					"outputs": [],
					"stateMutability": "nonpayable",
					"type": "function"
				},
				{
					"inputs": [
						{
							"internalType": "uint256",
							"name": "",
							"type": "uint256"
						}
					],
					"name": "todos",
					"outputs": [
						{
							"internalType": "string",
							"name": "text",
							"type": "string"
						},
						{
							"internalType": "bool",
							"name": "completed",
							"type": "bool"
						}
					],
					"stateMutability": "view",
					"type": "function"
				},
				{
					"inputs": [
						{
							"internalType": "uint256",
							"name": "_index",
							"type": "uint256"
						}
					],
					"name": "toggleCompleted",
					"outputs": [],
					"stateMutability": "nonpayable",
					"type": "function"
				}
			],
			"devdoc": {
				"kind": "dev",
				"methods": {},
				"version": 1
			},
			"evm": {
				"assembly": "    /* \"base/Todos.sol\":60:1062  contract Todos{... */\n  mstore(0x40, 0x80)\n  callvalue\n  dup1\n  iszero\n  tag_1\n  jumpi\n  0x00\n  dup1\n  revert\ntag_1:\n  pop\n  dataSize(sub_0)\n  dup1\n  dataOffset(sub_0)\n  0x00\n  codecopy\n  0x00\n  return\nstop\n\nsub_0: assembly {\n        /* \"base/Todos.sol\":60:1062  contract Todos{... */\n      mstore(0x40, 0x80)\n      callvalue\n      dup1\n      iszero\n      tag_1\n      jumpi\n      0x00\n      dup1\n      revert\n    tag_1:\n      pop\n      jumpi(tag_2, lt(calldatasize, 0x04))\n      shr(0xe0, calldataload(0x00))\n      dup1\n      0x455f5024\n      eq\n      tag_3\n      jumpi\n      dup1\n      0x64371977\n      eq\n      tag_4\n      jumpi\n      dup1\n      0x9507d39a\n      eq\n      tag_5\n      jumpi\n      dup1\n      0xb6a46b3b\n      eq\n      tag_6\n      jumpi\n      dup1\n      0xbc8bc2b4\n      eq\n      tag_7\n      jumpi\n    tag_2:\n      0x00\n      dup1\n      revert\n        /* \"base/Todos.sol\":916:1059  function toggleCompleted (uint256 _index)public{... */\n    tag_3:\n      tag_8\n      0x04\n      dup1\n      calldatasize\n      sub\n      dup2\n      add\n      swap1\n      tag_9\n      swap2\n      swap1\n      tag_10\n      jump\t// in\n    tag_9:\n      tag_11\n      jump\t// in\n    tag_8:\n      stop\n        /* \"base/Todos.sol\":743:882  function set(uint256 _index, string calldata _text)public{... */\n    tag_4:\n      tag_12\n      0x04\n      dup1\n      calldatasize\n      sub\n      dup2\n      add\n      swap1\n      tag_13\n      swap2\n      swap1\n      tag_14\n      jump\t// in\n    tag_13:\n      tag_15\n      jump\t// in\n    tag_12:\n      stop\n        /* \"base/Todos.sol\":538:718  function get(uint256 _index) public view returns(string memory text, bool completed){... */\n    tag_5:\n      tag_16\n      0x04\n      dup1\n      calldatasize\n      sub\n      dup2\n      add\n      swap1\n      tag_17\n      swap2\n      swap1\n      tag_10\n      jump\t// in\n    tag_17:\n      tag_18\n      jump\t// in\n    tag_16:\n      mload(0x40)\n      tag_19\n      swap3\n      swap2\n      swap1\n      tag_20\n      jump\t// in\n    tag_19:\n      mload(0x40)\n      dup1\n      swap2\n      sub\n      swap1\n      return\n        /* \"base/Todos.sol\":179:530  function create(string calldata _text) public{... */\n    tag_6:\n      tag_21\n      0x04\n      dup1\n      calldatasize\n      sub\n      dup2\n      add\n      swap1\n      tag_22\n      swap2\n      swap1\n      tag_23\n      jump\t// in\n    tag_22:\n      tag_24\n      jump\t// in\n    tag_21:\n      stop\n        /* \"base/Todos.sol\":153:172  Todo[] public todos */\n    tag_7:\n      tag_25\n      0x04\n      dup1\n      calldatasize\n      sub\n      dup2\n      add\n      swap1\n      tag_26\n      swap2\n      swap1\n      tag_10\n      jump\t// in\n    tag_26:\n      tag_27\n      jump\t// in\n    tag_25:\n      mload(0x40)\n      tag_28\n      swap3\n      swap2\n      swap1\n      tag_20\n      jump\t// in\n    tag_28:\n      mload(0x40)\n      dup1\n      swap2\n      sub\n      swap1\n      return\n        /* \"base/Todos.sol\":916:1059  function toggleCompleted (uint256 _index)public{... */\n    tag_11:\n        /* \"base/Todos.sol\":974:991  Todo storage todo */\n      0x00\n        /* \"base/Todos.sol\":994:999  todos */\n      dup1\n        /* \"base/Todos.sol\":1000:1006  _index */\n      dup3\n        /* \"base/Todos.sol\":994:1007  todos[_index] */\n      dup2\n      sload\n      dup2\n      lt\n      tag_30\n      jumpi\n      tag_31\n      tag_32\n      jump\t// in\n    tag_31:\n    tag_30:\n      swap1\n      0x00\n      mstore\n      keccak256(0x00, 0x20)\n      swap1\n      0x02\n      mul\n      add\n        /* \"base/Todos.sol\":974:1007  Todo storage todo = todos[_index] */\n      swap1\n      pop\n        /* \"base/Todos.sol\":1037:1041  todo */\n      dup1\n        /* \"base/Todos.sol\":1037:1051  todo.completed */\n      0x01\n      add\n      0x00\n      swap1\n      sload\n      swap1\n      0x0100\n      exp\n      swap1\n      div\n      0xff\n      and\n        /* \"base/Todos.sol\":1036:1051  !todo.completed */\n      iszero\n        /* \"base/Todos.sol\":1019:1023  todo */\n      dup2\n        /* \"base/Todos.sol\":1019:1033  todo.completed */\n      0x01\n      add\n      0x00\n        /* \"base/Todos.sol\":1019:1051  todo.completed = !todo.completed */\n      0x0100\n      exp\n      dup2\n      sload\n      dup2\n      0xff\n      mul\n      not\n      and\n      swap1\n      dup4\n      iszero\n      iszero\n      mul\n      or\n      swap1\n      sstore\n      pop\n        /* \"base/Todos.sol\":963:1059  {... */\n      pop\n        /* \"base/Todos.sol\":916:1059  function toggleCompleted (uint256 _index)public{... */\n      pop\n      jump\t// out\n        /* \"base/Todos.sol\":743:882  function set(uint256 _index, string calldata _text)public{... */\n    tag_15:\n        /* \"base/Todos.sol\":812:829  Todo storage todo */\n      0x00\n        /* \"base/Todos.sol\":832:837  todos */\n      dup1\n        /* \"base/Todos.sol\":838:844  _index */\n      dup5\n        /* \"base/Todos.sol\":832:845  todos[_index] */\n      dup2\n      sload\n      dup2\n      lt\n      tag_35\n      jumpi\n      tag_36\n      tag_32\n      jump\t// in\n    tag_36:\n    tag_35:\n      swap1\n      0x00\n      mstore\n      keccak256(0x00, 0x20)\n      swap1\n      0x02\n      mul\n      add\n        /* \"base/Todos.sol\":812:845  Todo storage todo = todos[_index] */\n      swap1\n      pop\n        /* \"base/Todos.sol\":869:874  _text */\n      dup3\n      dup3\n        /* \"base/Todos.sol\":857:861  todo */\n      dup3\n        /* \"base/Todos.sol\":857:866  todo.text */\n      0x00\n      add\n        /* \"base/Todos.sol\":857:874  todo.text = _text */\n      swap2\n      dup3\n      tag_38\n      swap3\n      swap2\n      swap1\n      tag_39\n      jump\t// in\n    tag_38:\n      pop\n        /* \"base/Todos.sol\":800:882  {... */\n      pop\n        /* \"base/Todos.sol\":743:882  function set(uint256 _index, string calldata _text)public{... */\n      pop\n      pop\n      pop\n      jump\t// out\n        /* \"base/Todos.sol\":538:718  function get(uint256 _index) public view returns(string memory text, bool completed){... */\n    tag_18:\n        /* \"base/Todos.sol\":587:605  string memory text */\n      0x60\n        /* \"base/Todos.sol\":607:621  bool completed */\n      0x00\n        /* \"base/Todos.sol\":633:650  Todo storage todo */\n      dup1\n        /* \"base/Todos.sol\":653:658  todos */\n      0x00\n        /* \"base/Todos.sol\":659:665  _index */\n      dup5\n        /* \"base/Todos.sol\":653:666  todos[_index] */\n      dup2\n      sload\n      dup2\n      lt\n      tag_41\n      jumpi\n      tag_42\n      tag_32\n      jump\t// in\n    tag_42:\n    tag_41:\n      swap1\n      0x00\n      mstore\n      keccak256(0x00, 0x20)\n      swap1\n      0x02\n      mul\n      add\n        /* \"base/Todos.sol\":633:666  Todo storage todo = todos[_index] */\n      swap1\n      pop\n        /* \"base/Todos.sol\":685:689  todo */\n      dup1\n        /* \"base/Todos.sol\":685:694  todo.text */\n      0x00\n      add\n        /* \"base/Todos.sol\":695:699  todo */\n      dup2\n        /* \"base/Todos.sol\":695:709  todo.completed */\n      0x01\n      add\n      0x00\n      swap1\n      sload\n      swap1\n      0x0100\n      exp\n      swap1\n      div\n      0xff\n      and\n        /* \"base/Todos.sol\":677:710  return (todo.text,todo.completed) */\n      dup2\n      dup1\n      sload\n      tag_44\n      swap1\n      tag_45\n      jump\t// in\n    tag_44:\n      dup1\n      0x1f\n      add\n      0x20\n      dup1\n      swap2\n      div\n      mul\n      0x20\n      add\n      mload(0x40)\n      swap1\n      dup2\n      add\n      0x40\n      mstore\n      dup1\n      swap3\n      swap2\n      swap1\n      dup2\n      dup2\n      mstore\n      0x20\n      add\n      dup3\n      dup1\n      sload\n      tag_46\n      swap1\n      tag_45\n      jump\t// in\n    tag_46:\n      dup1\n      iszero\n      tag_47\n      jumpi\n      dup1\n      0x1f\n      lt\n      tag_48\n      jumpi\n      0x0100\n      dup1\n      dup4\n      sload\n      div\n      mul\n      dup4\n      mstore\n      swap2\n      0x20\n      add\n      swap2\n      jump(tag_47)\n    tag_48:\n      dup3\n      add\n      swap2\n      swap1\n      0x00\n      mstore\n      keccak256(0x00, 0x20)\n      swap1\n    tag_49:\n      dup2\n      sload\n      dup2\n      mstore\n      swap1\n      0x01\n      add\n      swap1\n      0x20\n      add\n      dup1\n      dup4\n      gt\n      tag_49\n      jumpi\n      dup3\n      swap1\n      sub\n      0x1f\n      and\n      dup3\n      add\n      swap2\n    tag_47:\n      pop\n      pop\n      pop\n      pop\n      pop\n      swap2\n      pop\n      swap3\n      pop\n      swap3\n      pop\n      pop\n        /* \"base/Todos.sol\":538:718  function get(uint256 _index) public view returns(string memory text, bool completed){... */\n      swap2\n      pop\n      swap2\n      jump\t// out\n        /* \"base/Todos.sol\":179:530  function create(string calldata _text) public{... */\n    tag_24:\n        /* \"base/Todos.sol\":315:320  todos */\n      0x00\n        /* \"base/Todos.sol\":326:343  Todo(_text,false) */\n      mload(0x40)\n      dup1\n      0x40\n      add\n      0x40\n      mstore\n      dup1\n        /* \"base/Todos.sol\":331:336  _text */\n      dup5\n      dup5\n        /* \"base/Todos.sol\":326:343  Todo(_text,false) */\n      dup1\n      dup1\n      0x1f\n      add\n      0x20\n      dup1\n      swap2\n      div\n      mul\n      0x20\n      add\n      mload(0x40)\n      swap1\n      dup2\n      add\n      0x40\n      mstore\n      dup1\n      swap4\n      swap3\n      swap2\n      swap1\n      dup2\n      dup2\n      mstore\n      0x20\n      add\n      dup4\n      dup4\n      dup1\n      dup3\n      dup5\n      calldatacopy\n      0x00\n      dup2\n      dup5\n      add\n      mstore\n      not(0x1f)\n      0x1f\n      dup3\n      add\n      and\n      swap1\n      pop\n      dup1\n      dup4\n      add\n      swap3\n      pop\n      pop\n      pop\n      pop\n      pop\n      pop\n      pop\n      dup2\n      mstore\n      0x20\n      add\n        /* \"base/Todos.sol\":337:342  false */\n      0x00\n        /* \"base/Todos.sol\":326:343  Todo(_text,false) */\n      iszero\n      iszero\n      dup2\n      mstore\n      pop\n        /* \"base/Todos.sol\":315:344  todos.push(Todo(_text,false)) */\n      swap1\n      dup1\n      0x01\n      dup2\n      sload\n      add\n      dup1\n      dup3\n      sstore\n      dup1\n      swap2\n      pop\n      pop\n      0x01\n      swap1\n      sub\n      swap1\n      0x00\n      mstore\n      keccak256(0x00, 0x20)\n      swap1\n      0x02\n      mul\n      add\n      0x00\n      swap1\n      swap2\n      swap1\n      swap2\n      swap1\n      swap2\n      pop\n      0x00\n      dup3\n      add\n      mload\n      dup2\n      0x00\n      add\n      swap1\n      dup2\n      tag_52\n      swap2\n      swap1\n      tag_53\n      jump\t// in\n    tag_52:\n      pop\n      0x20\n      dup3\n      add\n      mload\n      dup2\n      0x01\n      add\n      exp(0x0100, 0x00)\n      dup2\n      sload\n      dup2\n      0xff\n      mul\n      not\n      and\n      swap1\n      dup4\n      iszero\n      iszero\n      mul\n      or\n      swap1\n      sstore\n      pop\n      pop\n      pop\n        /* \"base/Todos.sol\":384:389  todos */\n      0x00\n        /* \"base/Todos.sol\":395:429  Todo({text:_text,completed:false}) */\n      mload(0x40)\n      dup1\n      0x40\n      add\n      0x40\n      mstore\n      dup1\n        /* \"base/Todos.sol\":406:411  _text */\n      dup5\n      dup5\n        /* \"base/Todos.sol\":395:429  Todo({text:_text,completed:false}) */\n      dup1\n      dup1\n      0x1f\n      add\n      0x20\n      dup1\n      swap2\n      div\n      mul\n      0x20\n      add\n      mload(0x40)\n      swap1\n      dup2\n      add\n      0x40\n      mstore\n      dup1\n      swap4\n      swap3\n      swap2\n      swap1\n      dup2\n      dup2\n      mstore\n      0x20\n      add\n      dup4\n      dup4\n      dup1\n      dup3\n      dup5\n      calldatacopy\n      0x00\n      dup2\n      dup5\n      add\n      mstore\n      not(0x1f)\n      0x1f\n      dup3\n      add\n      and\n      swap1\n      pop\n      dup1\n      dup4\n      add\n      swap3\n      pop\n      pop\n      pop\n      pop\n      pop\n      pop\n      pop\n      dup2\n      mstore\n      0x20\n      add\n        /* \"base/Todos.sol\":422:427  false */\n      0x00\n        /* \"base/Todos.sol\":395:429  Todo({text:_text,completed:false}) */\n      iszero\n      iszero\n      dup2\n      mstore\n      pop\n        /* \"base/Todos.sol\":384:430  todos.push(Todo({text:_text,completed:false})) */\n      swap1\n      dup1\n      0x01\n      dup2\n      sload\n      add\n      dup1\n      dup3\n      sstore\n      dup1\n      swap2\n      pop\n      pop\n      0x01\n      swap1\n      sub\n      swap1\n      0x00\n      mstore\n      keccak256(0x00, 0x20)\n      swap1\n      0x02\n      mul\n      add\n      0x00\n      swap1\n      swap2\n      swap1\n      swap2\n      swap1\n      swap2\n      pop\n      0x00\n      dup3\n      add\n      mload\n      dup2\n      0x00\n      add\n      swap1\n      dup2\n      tag_55\n      swap2\n      swap1\n      tag_53\n      jump\t// in\n    tag_55:\n      pop\n      0x20\n      dup3\n      add\n      mload\n      dup2\n      0x01\n      add\n      exp(0x0100, 0x00)\n      dup2\n      sload\n      dup2\n      0xff\n      mul\n      not\n      and\n      swap1\n      dup4\n      iszero\n      iszero\n      mul\n      or\n      swap1\n      sstore\n      pop\n      pop\n      pop\n        /* \"base/Todos.sol\":451:467  Todo memory todo */\n      tag_56\n      tag_57\n      jump\t// in\n    tag_56:\n        /* \"base/Todos.sol\":490:495  _text */\n      dup3\n      dup3\n        /* \"base/Todos.sol\":478:495  todo.text = _text */\n      dup1\n      dup1\n      0x1f\n      add\n      0x20\n      dup1\n      swap2\n      div\n      mul\n      0x20\n      add\n      mload(0x40)\n      swap1\n      dup2\n      add\n      0x40\n      mstore\n      dup1\n      swap4\n      swap3\n      swap2\n      swap1\n      dup2\n      dup2\n      mstore\n      0x20\n      add\n      dup4\n      dup4\n      dup1\n      dup3\n      dup5\n      calldatacopy\n      0x00\n      dup2\n      dup5\n      add\n      mstore\n      not(0x1f)\n      0x1f\n      dup3\n      add\n      and\n      swap1\n      pop\n      dup1\n      dup4\n      add\n      swap3\n      pop\n      pop\n      pop\n      pop\n      pop\n      pop\n      pop\n        /* \"base/Todos.sol\":478:482  todo */\n      dup2\n        /* \"base/Todos.sol\":478:487  todo.text */\n      0x00\n      add\n        /* \"base/Todos.sol\":478:495  todo.text = _text */\n      dup2\n      swap1\n      mstore\n      pop\n        /* \"base/Todos.sol\":506:511  todos */\n      0x00\n        /* \"base/Todos.sol\":517:521  todo */\n      dup2\n        /* \"base/Todos.sol\":506:522  todos.push(todo) */\n      swap1\n      dup1\n      0x01\n      dup2\n      sload\n      add\n      dup1\n      dup3\n      sstore\n      dup1\n      swap2\n      pop\n      pop\n      0x01\n      swap1\n      sub\n      swap1\n      0x00\n      mstore\n      keccak256(0x00, 0x20)\n      swap1\n      0x02\n      mul\n      add\n      0x00\n      swap1\n      swap2\n      swap1\n      swap2\n      swap1\n      swap2\n      pop\n      0x00\n      dup3\n      add\n      mload\n      dup2\n      0x00\n      add\n      swap1\n      dup2\n      tag_59\n      swap2\n      swap1\n      tag_53\n      jump\t// in\n    tag_59:\n      pop\n      0x20\n      dup3\n      add\n      mload\n      dup2\n      0x01\n      add\n      exp(0x0100, 0x00)\n      dup2\n      sload\n      dup2\n      0xff\n      mul\n      not\n      and\n      swap1\n      dup4\n      iszero\n      iszero\n      mul\n      or\n      swap1\n      sstore\n      pop\n      pop\n      pop\n        /* \"base/Todos.sol\":224:530  {... */\n      pop\n        /* \"base/Todos.sol\":179:530  function create(string calldata _text) public{... */\n      pop\n      pop\n      jump\t// out\n        /* \"base/Todos.sol\":153:172  Todo[] public todos */\n    tag_27:\n      0x00\n      dup2\n      dup2\n      sload\n      dup2\n      lt\n      tag_60\n      jumpi\n      0x00\n      dup1\n      revert\n    tag_60:\n      swap1\n      0x00\n      mstore\n      keccak256(0x00, 0x20)\n      swap1\n      0x02\n      mul\n      add\n      0x00\n      swap2\n      pop\n      swap1\n      pop\n      dup1\n      0x00\n      add\n      dup1\n      sload\n      tag_62\n      swap1\n      tag_45\n      jump\t// in\n    tag_62:\n      dup1\n      0x1f\n      add\n      0x20\n      dup1\n      swap2\n      div\n      mul\n      0x20\n      add\n      mload(0x40)\n      swap1\n      dup2\n      add\n      0x40\n      mstore\n      dup1\n      swap3\n      swap2\n      swap1\n      dup2\n      dup2\n      mstore\n      0x20\n      add\n      dup3\n      dup1\n      sload\n      tag_63\n      swap1\n      tag_45\n      jump\t// in\n    tag_63:\n      dup1\n      iszero\n      tag_64\n      jumpi\n      dup1\n      0x1f\n      lt\n      tag_65\n      jumpi\n      0x0100\n      dup1\n      dup4\n      sload\n      div\n      mul\n      dup4\n      mstore\n      swap2\n      0x20\n      add\n      swap2\n      jump(tag_64)\n    tag_65:\n      dup3\n      add\n      swap2\n      swap1\n      0x00\n      mstore\n      keccak256(0x00, 0x20)\n      swap1\n    tag_66:\n      dup2\n      sload\n      dup2\n      mstore\n      swap1\n      0x01\n      add\n      swap1\n      0x20\n      add\n      dup1\n      dup4\n      gt\n      tag_66\n      jumpi\n      dup3\n      swap1\n      sub\n      0x1f\n      and\n      dup3\n      add\n      swap2\n    tag_64:\n      pop\n      pop\n      pop\n      pop\n      pop\n      swap1\n      dup1\n      0x01\n      add\n      0x00\n      swap1\n      sload\n      swap1\n      0x0100\n      exp\n      swap1\n      div\n      0xff\n      and\n      swap1\n      pop\n      dup3\n      jump\t// out\n    tag_57:\n      mload(0x40)\n      dup1\n      0x40\n      add\n      0x40\n      mstore\n      dup1\n      0x60\n      dup2\n      mstore\n      0x20\n      add\n      iszero(iszero(0x00))\n      dup2\n      mstore\n      pop\n      swap1\n      jump\t// out\n        /* \"#utility.yul\":88:205   */\n    tag_68:\n        /* \"#utility.yul\":197:198   */\n      0x00\n        /* \"#utility.yul\":194:195   */\n      dup1\n        /* \"#utility.yul\":187:199   */\n      revert\n        /* \"#utility.yul\":211:328   */\n    tag_69:\n        /* \"#utility.yul\":320:321   */\n      0x00\n        /* \"#utility.yul\":317:318   */\n      dup1\n        /* \"#utility.yul\":310:322   */\n      revert\n        /* \"#utility.yul\":334:411   */\n    tag_70:\n        /* \"#utility.yul\":371:378   */\n      0x00\n        /* \"#utility.yul\":400:405   */\n      dup2\n        /* \"#utility.yul\":389:405   */\n      swap1\n      pop\n        /* \"#utility.yul\":334:411   */\n      swap2\n      swap1\n      pop\n      jump\t// out\n        /* \"#utility.yul\":417:539   */\n    tag_71:\n        /* \"#utility.yul\":490:514   */\n      tag_108\n        /* \"#utility.yul\":508:513   */\n      dup2\n        /* \"#utility.yul\":490:514   */\n      tag_70\n      jump\t// in\n    tag_108:\n        /* \"#utility.yul\":483:488   */\n      dup2\n        /* \"#utility.yul\":480:515   */\n      eq\n        /* \"#utility.yul\":470:533   */\n      tag_109\n      jumpi\n        /* \"#utility.yul\":529:530   */\n      0x00\n        /* \"#utility.yul\":526:527   */\n      dup1\n        /* \"#utility.yul\":519:531   */\n      revert\n        /* \"#utility.yul\":470:533   */\n    tag_109:\n        /* \"#utility.yul\":417:539   */\n      pop\n      jump\t// out\n        /* \"#utility.yul\":545:684   */\n    tag_72:\n        /* \"#utility.yul\":591:596   */\n      0x00\n        /* \"#utility.yul\":629:635   */\n      dup2\n        /* \"#utility.yul\":616:636   */\n      calldataload\n        /* \"#utility.yul\":607:636   */\n      swap1\n      pop\n        /* \"#utility.yul\":645:678   */\n      tag_111\n        /* \"#utility.yul\":672:677   */\n      dup2\n        /* \"#utility.yul\":645:678   */\n      tag_71\n      jump\t// in\n    tag_111:\n        /* \"#utility.yul\":545:684   */\n      swap3\n      swap2\n      pop\n      pop\n      jump\t// out\n        /* \"#utility.yul\":690:1019   */\n    tag_10:\n        /* \"#utility.yul\":749:755   */\n      0x00\n        /* \"#utility.yul\":798:800   */\n      0x20\n        /* \"#utility.yul\":786:795   */\n      dup3\n        /* \"#utility.yul\":777:784   */\n      dup5\n        /* \"#utility.yul\":773:796   */\n      sub\n        /* \"#utility.yul\":769:801   */\n      slt\n        /* \"#utility.yul\":766:885   */\n      iszero\n      tag_113\n      jumpi\n        /* \"#utility.yul\":804:883   */\n      tag_114\n      tag_68\n      jump\t// in\n    tag_114:\n        /* \"#utility.yul\":766:885   */\n    tag_113:\n        /* \"#utility.yul\":924:925   */\n      0x00\n        /* \"#utility.yul\":949:1002   */\n      tag_115\n        /* \"#utility.yul\":994:1001   */\n      dup5\n        /* \"#utility.yul\":985:991   */\n      dup3\n        /* \"#utility.yul\":974:983   */\n      dup6\n        /* \"#utility.yul\":970:992   */\n      add\n        /* \"#utility.yul\":949:1002   */\n      tag_72\n      jump\t// in\n    tag_115:\n        /* \"#utility.yul\":939:1002   */\n      swap2\n      pop\n        /* \"#utility.yul\":895:1012   */\n      pop\n        /* \"#utility.yul\":690:1019   */\n      swap3\n      swap2\n      pop\n      pop\n      jump\t// out\n        /* \"#utility.yul\":1025:1142   */\n    tag_73:\n        /* \"#utility.yul\":1134:1135   */\n      0x00\n        /* \"#utility.yul\":1131:1132   */\n      dup1\n        /* \"#utility.yul\":1124:1136   */\n      revert\n        /* \"#utility.yul\":1148:1265   */\n    tag_74:\n        /* \"#utility.yul\":1257:1258   */\n      0x00\n        /* \"#utility.yul\":1254:1255   */\n      dup1\n        /* \"#utility.yul\":1247:1259   */\n      revert\n        /* \"#utility.yul\":1271:1388   */\n    tag_75:\n        /* \"#utility.yul\":1380:1381   */\n      0x00\n        /* \"#utility.yul\":1377:1378   */\n      dup1\n        /* \"#utility.yul\":1370:1382   */\n      revert\n        /* \"#utility.yul\":1408:1961   */\n    tag_76:\n        /* \"#utility.yul\":1466:1474   */\n      0x00\n        /* \"#utility.yul\":1476:1482   */\n      dup1\n        /* \"#utility.yul\":1526:1529   */\n      dup4\n        /* \"#utility.yul\":1519:1523   */\n      0x1f\n        /* \"#utility.yul\":1511:1517   */\n      dup5\n        /* \"#utility.yul\":1507:1524   */\n      add\n        /* \"#utility.yul\":1503:1530   */\n      slt\n        /* \"#utility.yul\":1493:1615   */\n      tag_120\n      jumpi\n        /* \"#utility.yul\":1534:1613   */\n      tag_121\n      tag_73\n      jump\t// in\n    tag_121:\n        /* \"#utility.yul\":1493:1615   */\n    tag_120:\n        /* \"#utility.yul\":1647:1653   */\n      dup3\n        /* \"#utility.yul\":1634:1654   */\n      calldataload\n        /* \"#utility.yul\":1624:1654   */\n      swap1\n      pop\n        /* \"#utility.yul\":1677:1695   */\n      0xffffffffffffffff\n        /* \"#utility.yul\":1669:1675   */\n      dup2\n        /* \"#utility.yul\":1666:1696   */\n      gt\n        /* \"#utility.yul\":1663:1780   */\n      iszero\n      tag_122\n      jumpi\n        /* \"#utility.yul\":1699:1778   */\n      tag_123\n      tag_74\n      jump\t// in\n    tag_123:\n        /* \"#utility.yul\":1663:1780   */\n    tag_122:\n        /* \"#utility.yul\":1813:1817   */\n      0x20\n        /* \"#utility.yul\":1805:1811   */\n      dup4\n        /* \"#utility.yul\":1801:1818   */\n      add\n        /* \"#utility.yul\":1789:1818   */\n      swap2\n      pop\n        /* \"#utility.yul\":1867:1870   */\n      dup4\n        /* \"#utility.yul\":1859:1863   */\n      0x01\n        /* \"#utility.yul\":1851:1857   */\n      dup3\n        /* \"#utility.yul\":1847:1864   */\n      mul\n        /* \"#utility.yul\":1837:1845   */\n      dup4\n        /* \"#utility.yul\":1833:1865   */\n      add\n        /* \"#utility.yul\":1830:1871   */\n      gt\n        /* \"#utility.yul\":1827:1955   */\n      iszero\n      tag_124\n      jumpi\n        /* \"#utility.yul\":1874:1953   */\n      tag_125\n      tag_75\n      jump\t// in\n    tag_125:\n        /* \"#utility.yul\":1827:1955   */\n    tag_124:\n        /* \"#utility.yul\":1408:1961   */\n      swap3\n      pop\n      swap3\n      swap1\n      pop\n      jump\t// out\n        /* \"#utility.yul\":1967:2641   */\n    tag_14:\n        /* \"#utility.yul\":2047:2053   */\n      0x00\n        /* \"#utility.yul\":2055:2061   */\n      dup1\n        /* \"#utility.yul\":2063:2069   */\n      0x00\n        /* \"#utility.yul\":2112:2114   */\n      0x40\n        /* \"#utility.yul\":2100:2109   */\n      dup5\n        /* \"#utility.yul\":2091:2098   */\n      dup7\n        /* \"#utility.yul\":2087:2110   */\n      sub\n        /* \"#utility.yul\":2083:2115   */\n      slt\n        /* \"#utility.yul\":2080:2199   */\n      iszero\n      tag_127\n      jumpi\n        /* \"#utility.yul\":2118:2197   */\n      tag_128\n      tag_68\n      jump\t// in\n    tag_128:\n        /* \"#utility.yul\":2080:2199   */\n    tag_127:\n        /* \"#utility.yul\":2238:2239   */\n      0x00\n        /* \"#utility.yul\":2263:2316   */\n      tag_129\n        /* \"#utility.yul\":2308:2315   */\n      dup7\n        /* \"#utility.yul\":2299:2305   */\n      dup3\n        /* \"#utility.yul\":2288:2297   */\n      dup8\n        /* \"#utility.yul\":2284:2306   */\n      add\n        /* \"#utility.yul\":2263:2316   */\n      tag_72\n      jump\t// in\n    tag_129:\n        /* \"#utility.yul\":2253:2316   */\n      swap4\n      pop\n        /* \"#utility.yul\":2209:2326   */\n      pop\n        /* \"#utility.yul\":2393:2395   */\n      0x20\n        /* \"#utility.yul\":2382:2391   */\n      dup5\n        /* \"#utility.yul\":2378:2396   */\n      add\n        /* \"#utility.yul\":2365:2397   */\n      calldataload\n        /* \"#utility.yul\":2424:2442   */\n      0xffffffffffffffff\n        /* \"#utility.yul\":2416:2422   */\n      dup2\n        /* \"#utility.yul\":2413:2443   */\n      gt\n        /* \"#utility.yul\":2410:2527   */\n      iszero\n      tag_130\n      jumpi\n        /* \"#utility.yul\":2446:2525   */\n      tag_131\n      tag_69\n      jump\t// in\n    tag_131:\n        /* \"#utility.yul\":2410:2527   */\n    tag_130:\n        /* \"#utility.yul\":2559:2624   */\n      tag_132\n        /* \"#utility.yul\":2616:2623   */\n      dup7\n        /* \"#utility.yul\":2607:2613   */\n      dup3\n        /* \"#utility.yul\":2596:2605   */\n      dup8\n        /* \"#utility.yul\":2592:2614   */\n      add\n        /* \"#utility.yul\":2559:2624   */\n      tag_76\n      jump\t// in\n    tag_132:\n        /* \"#utility.yul\":2541:2624   */\n      swap3\n      pop\n      swap3\n      pop\n        /* \"#utility.yul\":2336:2634   */\n      pop\n        /* \"#utility.yul\":1967:2641   */\n      swap3\n      pop\n      swap3\n      pop\n      swap3\n      jump\t// out\n        /* \"#utility.yul\":2647:2746   */\n    tag_77:\n        /* \"#utility.yul\":2699:2705   */\n      0x00\n        /* \"#utility.yul\":2733:2738   */\n      dup2\n        /* \"#utility.yul\":2727:2739   */\n      mload\n        /* \"#utility.yul\":2717:2739   */\n      swap1\n      pop\n        /* \"#utility.yul\":2647:2746   */\n      swap2\n      swap1\n      pop\n      jump\t// out\n        /* \"#utility.yul\":2752:2921   */\n    tag_78:\n        /* \"#utility.yul\":2836:2847   */\n      0x00\n        /* \"#utility.yul\":2870:2876   */\n      dup3\n        /* \"#utility.yul\":2865:2868   */\n      dup3\n        /* \"#utility.yul\":2858:2877   */\n      mstore\n        /* \"#utility.yul\":2910:2914   */\n      0x20\n        /* \"#utility.yul\":2905:2908   */\n      dup3\n        /* \"#utility.yul\":2901:2915   */\n      add\n        /* \"#utility.yul\":2886:2915   */\n      swap1\n      pop\n        /* \"#utility.yul\":2752:2921   */\n      swap3\n      swap2\n      pop\n      pop\n      jump\t// out\n        /* \"#utility.yul\":2927:3066   */\n    tag_79:\n        /* \"#utility.yul\":3016:3022   */\n      dup3\n        /* \"#utility.yul\":3011:3014   */\n      dup2\n        /* \"#utility.yul\":3006:3009   */\n      dup4\n        /* \"#utility.yul\":3000:3023   */\n      mcopy\n        /* \"#utility.yul\":3057:3058   */\n      0x00\n        /* \"#utility.yul\":3048:3054   */\n      dup4\n        /* \"#utility.yul\":3043:3046   */\n      dup4\n        /* \"#utility.yul\":3039:3055   */\n      add\n        /* \"#utility.yul\":3032:3059   */\n      mstore\n        /* \"#utility.yul\":2927:3066   */\n      pop\n      pop\n      pop\n      jump\t// out\n        /* \"#utility.yul\":3072:3174   */\n    tag_80:\n        /* \"#utility.yul\":3113:3119   */\n      0x00\n        /* \"#utility.yul\":3164:3166   */\n      0x1f\n        /* \"#utility.yul\":3160:3167   */\n      not\n        /* \"#utility.yul\":3155:3157   */\n      0x1f\n        /* \"#utility.yul\":3148:3153   */\n      dup4\n        /* \"#utility.yul\":3144:3158   */\n      add\n        /* \"#utility.yul\":3140:3168   */\n      and\n        /* \"#utility.yul\":3130:3168   */\n      swap1\n      pop\n        /* \"#utility.yul\":3072:3174   */\n      swap2\n      swap1\n      pop\n      jump\t// out\n        /* \"#utility.yul\":3180:3557   */\n    tag_81:\n        /* \"#utility.yul\":3268:3271   */\n      0x00\n        /* \"#utility.yul\":3296:3335   */\n      tag_138\n        /* \"#utility.yul\":3329:3334   */\n      dup3\n        /* \"#utility.yul\":3296:3335   */\n      tag_77\n      jump\t// in\n    tag_138:\n        /* \"#utility.yul\":3351:3422   */\n      tag_139\n        /* \"#utility.yul\":3415:3421   */\n      dup2\n        /* \"#utility.yul\":3410:3413   */\n      dup6\n        /* \"#utility.yul\":3351:3422   */\n      tag_78\n      jump\t// in\n    tag_139:\n        /* \"#utility.yul\":3344:3422   */\n      swap4\n      pop\n        /* \"#utility.yul\":3431:3496   */\n      tag_140\n        /* \"#utility.yul\":3489:3495   */\n      dup2\n        /* \"#utility.yul\":3484:3487   */\n      dup6\n        /* \"#utility.yul\":3477:3481   */\n      0x20\n        /* \"#utility.yul\":3470:3475   */\n      dup7\n        /* \"#utility.yul\":3466:3482   */\n      add\n        /* \"#utility.yul\":3431:3496   */\n      tag_79\n      jump\t// in\n    tag_140:\n        /* \"#utility.yul\":3521:3550   */\n      tag_141\n        /* \"#utility.yul\":3543:3549   */\n      dup2\n        /* \"#utility.yul\":3521:3550   */\n      tag_80\n      jump\t// in\n    tag_141:\n        /* \"#utility.yul\":3516:3519   */\n      dup5\n        /* \"#utility.yul\":3512:3551   */\n      add\n        /* \"#utility.yul\":3505:3551   */\n      swap2\n      pop\n        /* \"#utility.yul\":3272:3557   */\n      pop\n        /* \"#utility.yul\":3180:3557   */\n      swap3\n      swap2\n      pop\n      pop\n      jump\t// out\n        /* \"#utility.yul\":3563:3653   */\n    tag_82:\n        /* \"#utility.yul\":3597:3604   */\n      0x00\n        /* \"#utility.yul\":3640:3645   */\n      dup2\n        /* \"#utility.yul\":3633:3646   */\n      iszero\n        /* \"#utility.yul\":3626:3647   */\n      iszero\n        /* \"#utility.yul\":3615:3647   */\n      swap1\n      pop\n        /* \"#utility.yul\":3563:3653   */\n      swap2\n      swap1\n      pop\n      jump\t// out\n        /* \"#utility.yul\":3659:3768   */\n    tag_83:\n        /* \"#utility.yul\":3740:3761   */\n      tag_144\n        /* \"#utility.yul\":3755:3760   */\n      dup2\n        /* \"#utility.yul\":3740:3761   */\n      tag_82\n      jump\t// in\n    tag_144:\n        /* \"#utility.yul\":3735:3738   */\n      dup3\n        /* \"#utility.yul\":3728:3762   */\n      mstore\n        /* \"#utility.yul\":3659:3768   */\n      pop\n      pop\n      jump\t// out\n        /* \"#utility.yul\":3774:4185   */\n    tag_20:\n        /* \"#utility.yul\":3909:3913   */\n      0x00\n        /* \"#utility.yul\":3947:3949   */\n      0x40\n        /* \"#utility.yul\":3936:3945   */\n      dup3\n        /* \"#utility.yul\":3932:3950   */\n      add\n        /* \"#utility.yul\":3924:3950   */\n      swap1\n      pop\n        /* \"#utility.yul\":3996:4005   */\n      dup2\n        /* \"#utility.yul\":3990:3994   */\n      dup2\n        /* \"#utility.yul\":3986:4006   */\n      sub\n        /* \"#utility.yul\":3982:3983   */\n      0x00\n        /* \"#utility.yul\":3971:3980   */\n      dup4\n        /* \"#utility.yul\":3967:3984   */\n      add\n        /* \"#utility.yul\":3960:4007   */\n      mstore\n        /* \"#utility.yul\":4024:4102   */\n      tag_146\n        /* \"#utility.yul\":4097:4101   */\n      dup2\n        /* \"#utility.yul\":4088:4094   */\n      dup6\n        /* \"#utility.yul\":4024:4102   */\n      tag_81\n      jump\t// in\n    tag_146:\n        /* \"#utility.yul\":4016:4102   */\n      swap1\n      pop\n        /* \"#utility.yul\":4112:4178   */\n      tag_147\n        /* \"#utility.yul\":4174:4176   */\n      0x20\n        /* \"#utility.yul\":4163:4172   */\n      dup4\n        /* \"#utility.yul\":4159:4177   */\n      add\n        /* \"#utility.yul\":4150:4156   */\n      dup5\n        /* \"#utility.yul\":4112:4178   */\n      tag_83\n      jump\t// in\n    tag_147:\n        /* \"#utility.yul\":3774:4185   */\n      swap4\n      swap3\n      pop\n      pop\n      pop\n      jump\t// out\n        /* \"#utility.yul\":4191:4720   */\n    tag_23:\n        /* \"#utility.yul\":4262:4268   */\n      0x00\n        /* \"#utility.yul\":4270:4276   */\n      dup1\n        /* \"#utility.yul\":4319:4321   */\n      0x20\n        /* \"#utility.yul\":4307:4316   */\n      dup4\n        /* \"#utility.yul\":4298:4305   */\n      dup6\n        /* \"#utility.yul\":4294:4317   */\n      sub\n        /* \"#utility.yul\":4290:4322   */\n      slt\n        /* \"#utility.yul\":4287:4406   */\n      iszero\n      tag_149\n      jumpi\n        /* \"#utility.yul\":4325:4404   */\n      tag_150\n      tag_68\n      jump\t// in\n    tag_150:\n        /* \"#utility.yul\":4287:4406   */\n    tag_149:\n        /* \"#utility.yul\":4473:4474   */\n      0x00\n        /* \"#utility.yul\":4462:4471   */\n      dup4\n        /* \"#utility.yul\":4458:4475   */\n      add\n        /* \"#utility.yul\":4445:4476   */\n      calldataload\n        /* \"#utility.yul\":4503:4521   */\n      0xffffffffffffffff\n        /* \"#utility.yul\":4495:4501   */\n      dup2\n        /* \"#utility.yul\":4492:4522   */\n      gt\n        /* \"#utility.yul\":4489:4606   */\n      iszero\n      tag_151\n      jumpi\n        /* \"#utility.yul\":4525:4604   */\n      tag_152\n      tag_69\n      jump\t// in\n    tag_152:\n        /* \"#utility.yul\":4489:4606   */\n    tag_151:\n        /* \"#utility.yul\":4638:4703   */\n      tag_153\n        /* \"#utility.yul\":4695:4702   */\n      dup6\n        /* \"#utility.yul\":4686:4692   */\n      dup3\n        /* \"#utility.yul\":4675:4684   */\n      dup7\n        /* \"#utility.yul\":4671:4693   */\n      add\n        /* \"#utility.yul\":4638:4703   */\n      tag_76\n      jump\t// in\n    tag_153:\n        /* \"#utility.yul\":4620:4703   */\n      swap3\n      pop\n      swap3\n      pop\n        /* \"#utility.yul\":4416:4713   */\n      pop\n        /* \"#utility.yul\":4191:4720   */\n      swap3\n      pop\n      swap3\n      swap1\n      pop\n      jump\t// out\n        /* \"#utility.yul\":4726:4906   */\n    tag_32:\n        /* \"#utility.yul\":4774:4851   */\n      0x4e487b7100000000000000000000000000000000000000000000000000000000\n        /* \"#utility.yul\":4771:4772   */\n      0x00\n        /* \"#utility.yul\":4764:4852   */\n      mstore\n        /* \"#utility.yul\":4871:4875   */\n      0x32\n        /* \"#utility.yul\":4868:4869   */\n      0x04\n        /* \"#utility.yul\":4861:4876   */\n      mstore\n        /* \"#utility.yul\":4895:4899   */\n      0x24\n        /* \"#utility.yul\":4892:4893   */\n      0x00\n        /* \"#utility.yul\":4885:4900   */\n      revert\n        /* \"#utility.yul\":4912:5009   */\n    tag_84:\n        /* \"#utility.yul\":4971:4977   */\n      0x00\n        /* \"#utility.yul\":4999:5002   */\n      dup3\n        /* \"#utility.yul\":4989:5002   */\n      swap1\n      pop\n        /* \"#utility.yul\":4912:5009   */\n      swap3\n      swap2\n      pop\n      pop\n      jump\t// out\n        /* \"#utility.yul\":5015:5195   */\n    tag_85:\n        /* \"#utility.yul\":5063:5140   */\n      0x4e487b7100000000000000000000000000000000000000000000000000000000\n        /* \"#utility.yul\":5060:5061   */\n      0x00\n        /* \"#utility.yul\":5053:5141   */\n      mstore\n        /* \"#utility.yul\":5160:5164   */\n      0x41\n        /* \"#utility.yul\":5157:5158   */\n      0x04\n        /* \"#utility.yul\":5150:5165   */\n      mstore\n        /* \"#utility.yul\":5184:5188   */\n      0x24\n        /* \"#utility.yul\":5181:5182   */\n      0x00\n        /* \"#utility.yul\":5174:5189   */\n      revert\n        /* \"#utility.yul\":5201:5381   */\n    tag_86:\n        /* \"#utility.yul\":5249:5326   */\n      0x4e487b7100000000000000000000000000000000000000000000000000000000\n        /* \"#utility.yul\":5246:5247   */\n      0x00\n        /* \"#utility.yul\":5239:5327   */\n      mstore\n        /* \"#utility.yul\":5346:5350   */\n      0x22\n        /* \"#utility.yul\":5343:5344   */\n      0x04\n        /* \"#utility.yul\":5336:5351   */\n      mstore\n        /* \"#utility.yul\":5370:5374   */\n      0x24\n        /* \"#utility.yul\":5367:5368   */\n      0x00\n        /* \"#utility.yul\":5360:5375   */\n      revert\n        /* \"#utility.yul\":5387:5707   */\n    tag_45:\n        /* \"#utility.yul\":5431:5437   */\n      0x00\n        /* \"#utility.yul\":5468:5469   */\n      0x02\n        /* \"#utility.yul\":5462:5466   */\n      dup3\n        /* \"#utility.yul\":5458:5470   */\n      div\n        /* \"#utility.yul\":5448:5470   */\n      swap1\n      pop\n        /* \"#utility.yul\":5515:5516   */\n      0x01\n        /* \"#utility.yul\":5509:5513   */\n      dup3\n        /* \"#utility.yul\":5505:5517   */\n      and\n        /* \"#utility.yul\":5536:5554   */\n      dup1\n        /* \"#utility.yul\":5526:5607   */\n      tag_159\n      jumpi\n        /* \"#utility.yul\":5592:5596   */\n      0x7f\n        /* \"#utility.yul\":5584:5590   */\n      dup3\n        /* \"#utility.yul\":5580:5597   */\n      and\n        /* \"#utility.yul\":5570:5597   */\n      swap2\n      pop\n        /* \"#utility.yul\":5526:5607   */\n    tag_159:\n        /* \"#utility.yul\":5654:5656   */\n      0x20\n        /* \"#utility.yul\":5646:5652   */\n      dup3\n        /* \"#utility.yul\":5643:5657   */\n      lt\n        /* \"#utility.yul\":5623:5641   */\n      dup2\n        /* \"#utility.yul\":5620:5658   */\n      sub\n        /* \"#utility.yul\":5617:5701   */\n      tag_160\n      jumpi\n        /* \"#utility.yul\":5673:5691   */\n      tag_161\n      tag_86\n      jump\t// in\n    tag_161:\n        /* \"#utility.yul\":5617:5701   */\n    tag_160:\n        /* \"#utility.yul\":5438:5707   */\n      pop\n        /* \"#utility.yul\":5387:5707   */\n      swap2\n      swap1\n      pop\n      jump\t// out\n        /* \"#utility.yul\":5713:5854   */\n    tag_87:\n        /* \"#utility.yul\":5762:5766   */\n      0x00\n        /* \"#utility.yul\":5785:5788   */\n      dup2\n        /* \"#utility.yul\":5777:5788   */\n      swap1\n      pop\n        /* \"#utility.yul\":5808:5811   */\n      dup2\n        /* \"#utility.yul\":5805:5806   */\n      0x00\n        /* \"#utility.yul\":5798:5812   */\n      mstore\n        /* \"#utility.yul\":5842:5846   */\n      0x20\n        /* \"#utility.yul\":5839:5840   */\n      0x00\n        /* \"#utility.yul\":5829:5847   */\n      keccak256\n        /* \"#utility.yul\":5821:5847   */\n      swap1\n      pop\n        /* \"#utility.yul\":5713:5854   */\n      swap2\n      swap1\n      pop\n      jump\t// out\n        /* \"#utility.yul\":5860:5953   */\n    tag_88:\n        /* \"#utility.yul\":5897:5903   */\n      0x00\n        /* \"#utility.yul\":5944:5946   */\n      0x20\n        /* \"#utility.yul\":5939:5941   */\n      0x1f\n        /* \"#utility.yul\":5932:5937   */\n      dup4\n        /* \"#utility.yul\":5928:5942   */\n      add\n        /* \"#utility.yul\":5924:5947   */\n      div\n        /* \"#utility.yul\":5914:5947   */\n      swap1\n      pop\n        /* \"#utility.yul\":5860:5953   */\n      swap2\n      swap1\n      pop\n      jump\t// out\n        /* \"#utility.yul\":5959:6066   */\n    tag_89:\n        /* \"#utility.yul\":6003:6011   */\n      0x00\n        /* \"#utility.yul\":6053:6058   */\n      dup3\n        /* \"#utility.yul\":6047:6051   */\n      dup3\n        /* \"#utility.yul\":6043:6059   */\n      shl\n        /* \"#utility.yul\":6022:6059   */\n      swap1\n      pop\n        /* \"#utility.yul\":5959:6066   */\n      swap3\n      swap2\n      pop\n      pop\n      jump\t// out\n        /* \"#utility.yul\":6072:6465   */\n    tag_90:\n        /* \"#utility.yul\":6141:6147   */\n      0x00\n        /* \"#utility.yul\":6191:6192   */\n      0x08\n        /* \"#utility.yul\":6179:6189   */\n      dup4\n        /* \"#utility.yul\":6175:6193   */\n      mul\n        /* \"#utility.yul\":6214:6311   */\n      tag_166\n        /* \"#utility.yul\":6244:6310   */\n      0xffffffffffffffffffffffffffffffffffffffffffffffffffffffffffffffff\n        /* \"#utility.yul\":6233:6242   */\n      dup3\n        /* \"#utility.yul\":6214:6311   */\n      tag_89\n      jump\t// in\n    tag_166:\n        /* \"#utility.yul\":6332:6371   */\n      tag_167\n        /* \"#utility.yul\":6362:6370   */\n      dup7\n        /* \"#utility.yul\":6351:6360   */\n      dup4\n        /* \"#utility.yul\":6332:6371   */\n      tag_89\n      jump\t// in\n    tag_167:\n        /* \"#utility.yul\":6320:6371   */\n      swap6\n      pop\n        /* \"#utility.yul\":6404:6408   */\n      dup1\n        /* \"#utility.yul\":6400:6409   */\n      not\n        /* \"#utility.yul\":6393:6398   */\n      dup5\n        /* \"#utility.yul\":6389:6410   */\n      and\n        /* \"#utility.yul\":6380:6410   */\n      swap4\n      pop\n        /* \"#utility.yul\":6453:6457   */\n      dup1\n        /* \"#utility.yul\":6443:6451   */\n      dup7\n        /* \"#utility.yul\":6439:6458   */\n      and\n        /* \"#utility.yul\":6432:6437   */\n      dup5\n        /* \"#utility.yul\":6429:6459   */\n      or\n        /* \"#utility.yul\":6419:6459   */\n      swap3\n      pop\n        /* \"#utility.yul\":6148:6465   */\n      pop\n      pop\n        /* \"#utility.yul\":6072:6465   */\n      swap4\n      swap3\n      pop\n      pop\n      pop\n      jump\t// out\n        /* \"#utility.yul\":6471:6531   */\n    tag_91:\n        /* \"#utility.yul\":6499:6502   */\n      0x00\n        /* \"#utility.yul\":6520:6525   */\n      dup2\n        /* \"#utility.yul\":6513:6525   */\n      swap1\n      pop\n        /* \"#utility.yul\":6471:6531   */\n      swap2\n      swap1\n      pop\n      jump\t// out\n        /* \"#utility.yul\":6537:6679   */\n    tag_92:\n        /* \"#utility.yul\":6587:6596   */\n      0x00\n        /* \"#utility.yul\":6620:6673   */\n      tag_170\n        /* \"#utility.yul\":6638:6672   */\n      tag_171\n        /* \"#utility.yul\":6647:6671   */\n      tag_172\n        /* \"#utility.yul\":6665:6670   */\n      dup5\n        /* \"#utility.yul\":6647:6671   */\n      tag_70\n      jump\t// in\n    tag_172:\n        /* \"#utility.yul\":6638:6672   */\n      tag_91\n      jump\t// in\n    tag_171:\n        /* \"#utility.yul\":6620:6673   */\n      tag_70\n      jump\t// in\n    tag_170:\n        /* \"#utility.yul\":6607:6673   */\n      swap1\n      pop\n        /* \"#utility.yul\":6537:6679   */\n      swap2\n      swap1\n      pop\n      jump\t// out\n        /* \"#utility.yul\":6685:6760   */\n    tag_93:\n        /* \"#utility.yul\":6728:6731   */\n      0x00\n        /* \"#utility.yul\":6749:6754   */\n      dup2\n        /* \"#utility.yul\":6742:6754   */\n      swap1\n      pop\n        /* \"#utility.yul\":6685:6760   */\n      swap2\n      swap1\n      pop\n      jump\t// out\n        /* \"#utility.yul\":6766:7035   */\n    tag_94:\n        /* \"#utility.yul\":6876:6915   */\n      tag_175\n        /* \"#utility.yul\":6907:6914   */\n      dup4\n        /* \"#utility.yul\":6876:6915   */\n      tag_92\n      jump\t// in\n    tag_175:\n        /* \"#utility.yul\":6937:7028   */\n      tag_176\n        /* \"#utility.yul\":6986:7027   */\n      tag_177\n        /* \"#utility.yul\":7010:7026   */\n      dup3\n        /* \"#utility.yul\":6986:7027   */\n      tag_93\n      jump\t// in\n    tag_177:\n        /* \"#utility.yul\":6978:6984   */\n      dup5\n        /* \"#utility.yul\":6971:6975   */\n      dup5\n        /* \"#utility.yul\":6965:6976   */\n      sload\n        /* \"#utility.yul\":6937:7028   */\n      tag_90\n      jump\t// in\n    tag_176:\n        /* \"#utility.yul\":6931:6935   */\n      dup3\n        /* \"#utility.yul\":6924:7029   */\n      sstore\n        /* \"#utility.yul\":6842:7035   */\n      pop\n        /* \"#utility.yul\":6766:7035   */\n      pop\n      pop\n      pop\n      jump\t// out\n        /* \"#utility.yul\":7041:7114   */\n    tag_95:\n        /* \"#utility.yul\":7086:7089   */\n      0x00\n        /* \"#utility.yul\":7041:7114   */\n      swap1\n      jump\t// out\n        /* \"#utility.yul\":7120:7309   */\n    tag_96:\n        /* \"#utility.yul\":7197:7229   */\n      tag_180\n      tag_95\n      jump\t// in\n    tag_180:\n        /* \"#utility.yul\":7238:7303   */\n      tag_181\n        /* \"#utility.yul\":7296:7302   */\n      dup2\n        /* \"#utility.yul\":7288:7294   */\n      dup5\n        /* \"#utility.yul\":7282:7286   */\n      dup5\n        /* \"#utility.yul\":7238:7303   */\n      tag_94\n      jump\t// in\n    tag_181:\n        /* \"#utility.yul\":7173:7309   */\n      pop\n        /* \"#utility.yul\":7120:7309   */\n      pop\n      pop\n      jump\t// out\n        /* \"#utility.yul\":7315:7501   */\n    tag_97:\n        /* \"#utility.yul\":7375:7495   */\n    tag_183:\n        /* \"#utility.yul\":7392:7395   */\n      dup2\n        /* \"#utility.yul\":7385:7390   */\n      dup2\n        /* \"#utility.yul\":7382:7396   */\n      lt\n        /* \"#utility.yul\":7375:7495   */\n      iszero\n      tag_185\n      jumpi\n        /* \"#utility.yul\":7446:7485   */\n      tag_186\n        /* \"#utility.yul\":7483:7484   */\n      0x00\n        /* \"#utility.yul\":7476:7481   */\n      dup3\n        /* \"#utility.yul\":7446:7485   */\n      tag_96\n      jump\t// in\n    tag_186:\n        /* \"#utility.yul\":7419:7420   */\n      0x01\n        /* \"#utility.yul\":7412:7417   */\n      dup2\n        /* \"#utility.yul\":7408:7421   */\n      add\n        /* \"#utility.yul\":7399:7421   */\n      swap1\n      pop\n        /* \"#utility.yul\":7375:7495   */\n      jump(tag_183)\n    tag_185:\n        /* \"#utility.yul\":7315:7501   */\n      pop\n      pop\n      jump\t// out\n        /* \"#utility.yul\":7507:8050   */\n    tag_98:\n        /* \"#utility.yul\":7608:7610   */\n      0x1f\n        /* \"#utility.yul\":7603:7606   */\n      dup3\n        /* \"#utility.yul\":7600:7611   */\n      gt\n        /* \"#utility.yul\":7597:8043   */\n      iszero\n      tag_188\n      jumpi\n        /* \"#utility.yul\":7642:7680   */\n      tag_189\n        /* \"#utility.yul\":7674:7679   */\n      dup2\n        /* \"#utility.yul\":7642:7680   */\n      tag_87\n      jump\t// in\n    tag_189:\n        /* \"#utility.yul\":7726:7755   */\n      tag_190\n        /* \"#utility.yul\":7744:7754   */\n      dup5\n        /* \"#utility.yul\":7726:7755   */\n      tag_88\n      jump\t// in\n    tag_190:\n        /* \"#utility.yul\":7716:7724   */\n      dup2\n        /* \"#utility.yul\":7712:7756   */\n      add\n        /* \"#utility.yul\":7909:7911   */\n      0x20\n        /* \"#utility.yul\":7897:7907   */\n      dup6\n        /* \"#utility.yul\":7894:7912   */\n      lt\n        /* \"#utility.yul\":7891:7940   */\n      iszero\n      tag_191\n      jumpi\n        /* \"#utility.yul\":7930:7938   */\n      dup2\n        /* \"#utility.yul\":7915:7938   */\n      swap1\n      pop\n        /* \"#utility.yul\":7891:7940   */\n    tag_191:\n        /* \"#utility.yul\":7953:8033   */\n      tag_192\n        /* \"#utility.yul\":8009:8031   */\n      tag_193\n        /* \"#utility.yul\":8027:8030   */\n      dup6\n        /* \"#utility.yul\":8009:8031   */\n      tag_88\n      jump\t// in\n    tag_193:\n        /* \"#utility.yul\":7999:8007   */\n      dup4\n        /* \"#utility.yul\":7995:8032   */\n      add\n        /* \"#utility.yul\":7982:7993   */\n      dup3\n        /* \"#utility.yul\":7953:8033   */\n      tag_97\n      jump\t// in\n    tag_192:\n        /* \"#utility.yul\":7612:8043   */\n      pop\n      pop\n        /* \"#utility.yul\":7597:8043   */\n    tag_188:\n        /* \"#utility.yul\":7507:8050   */\n      pop\n      pop\n      pop\n      jump\t// out\n        /* \"#utility.yul\":8056:8173   */\n    tag_99:\n        /* \"#utility.yul\":8110:8118   */\n      0x00\n        /* \"#utility.yul\":8160:8165   */\n      dup3\n        /* \"#utility.yul\":8154:8158   */\n      dup3\n        /* \"#utility.yul\":8150:8166   */\n      shr\n        /* \"#utility.yul\":8129:8166   */\n      swap1\n      pop\n        /* \"#utility.yul\":8056:8173   */\n      swap3\n      swap2\n      pop\n      pop\n      jump\t// out\n        /* \"#utility.yul\":8179:8348   */\n    tag_100:\n        /* \"#utility.yul\":8223:8229   */\n      0x00\n        /* \"#utility.yul\":8256:8307   */\n      tag_196\n        /* \"#utility.yul\":8304:8305   */\n      0x00\n        /* \"#utility.yul\":8300:8306   */\n      not\n        /* \"#utility.yul\":8292:8297   */\n      dup5\n        /* \"#utility.yul\":8289:8290   */\n      0x08\n        /* \"#utility.yul\":8285:8298   */\n      mul\n        /* \"#utility.yul\":8256:8307   */\n      tag_99\n      jump\t// in\n    tag_196:\n        /* \"#utility.yul\":8252:8308   */\n      not\n        /* \"#utility.yul\":8337:8341   */\n      dup1\n        /* \"#utility.yul\":8331:8335   */\n      dup4\n        /* \"#utility.yul\":8327:8342   */\n      and\n        /* \"#utility.yul\":8317:8342   */\n      swap2\n      pop\n        /* \"#utility.yul\":8230:8348   */\n      pop\n        /* \"#utility.yul\":8179:8348   */\n      swap3\n      swap2\n      pop\n      pop\n      jump\t// out\n        /* \"#utility.yul\":8353:8648   */\n    tag_101:\n        /* \"#utility.yul\":8429:8433   */\n      0x00\n        /* \"#utility.yul\":8575:8604   */\n      tag_198\n        /* \"#utility.yul\":8600:8603   */\n      dup4\n        /* \"#utility.yul\":8594:8598   */\n      dup4\n        /* \"#utility.yul\":8575:8604   */\n      tag_100\n      jump\t// in\n    tag_198:\n        /* \"#utility.yul\":8567:8604   */\n      swap2\n      pop\n        /* \"#utility.yul\":8637:8640   */\n      dup3\n        /* \"#utility.yul\":8634:8635   */\n      0x02\n        /* \"#utility.yul\":8630:8641   */\n      mul\n        /* \"#utility.yul\":8624:8628   */\n      dup3\n        /* \"#utility.yul\":8621:8642   */\n      or\n        /* \"#utility.yul\":8613:8642   */\n      swap1\n      pop\n        /* \"#utility.yul\":8353:8648   */\n      swap3\n      swap2\n      pop\n      pop\n      jump\t// out\n        /* \"#utility.yul\":8653:10056   */\n    tag_39:\n        /* \"#utility.yul\":8777:8821   */\n      tag_200\n        /* \"#utility.yul\":8817:8820   */\n      dup4\n        /* \"#utility.yul\":8812:8815   */\n      dup4\n        /* \"#utility.yul\":8777:8821   */\n      tag_84\n      jump\t// in\n    tag_200:\n        /* \"#utility.yul\":8886:8904   */\n      0xffffffffffffffff\n        /* \"#utility.yul\":8878:8884   */\n      dup2\n        /* \"#utility.yul\":8875:8905   */\n      gt\n        /* \"#utility.yul\":8872:8928   */\n      iszero\n      tag_201\n      jumpi\n        /* \"#utility.yul\":8908:8926   */\n      tag_202\n      tag_85\n      jump\t// in\n    tag_202:\n        /* \"#utility.yul\":8872:8928   */\n    tag_201:\n        /* \"#utility.yul\":8952:8990   */\n      tag_203\n        /* \"#utility.yul\":8984:8988   */\n      dup3\n        /* \"#utility.yul\":8978:8989   */\n      sload\n        /* \"#utility.yul\":8952:8990   */\n      tag_45\n      jump\t// in\n    tag_203:\n        /* \"#utility.yul\":9037:9104   */\n      tag_204\n        /* \"#utility.yul\":9097:9103   */\n      dup3\n        /* \"#utility.yul\":9089:9095   */\n      dup3\n        /* \"#utility.yul\":9083:9087   */\n      dup6\n        /* \"#utility.yul\":9037:9104   */\n      tag_98\n      jump\t// in\n    tag_204:\n        /* \"#utility.yul\":9131:9132   */\n      0x00\n        /* \"#utility.yul\":9160:9162   */\n      0x1f\n        /* \"#utility.yul\":9152:9158   */\n      dup4\n        /* \"#utility.yul\":9149:9163   */\n      gt\n        /* \"#utility.yul\":9177:9178   */\n      0x01\n        /* \"#utility.yul\":9172:9804   */\n      dup2\n      eq\n      tag_206\n      jumpi\n        /* \"#utility.yul\":9848:9849   */\n      0x00\n        /* \"#utility.yul\":9865:9871   */\n      dup5\n        /* \"#utility.yul\":9862:9946   */\n      iszero\n      tag_207\n      jumpi\n        /* \"#utility.yul\":9921:9930   */\n      dup3\n        /* \"#utility.yul\":9916:9919   */\n      dup8\n        /* \"#utility.yul\":9912:9931   */\n      add\n        /* \"#utility.yul\":9899:9932   */\n      calldataload\n        /* \"#utility.yul\":9890:9932   */\n      swap1\n      pop\n        /* \"#utility.yul\":9862:9946   */\n    tag_207:\n        /* \"#utility.yul\":9972:10039   */\n      tag_208\n        /* \"#utility.yul\":10032:10038   */\n      dup6\n        /* \"#utility.yul\":10025:10030   */\n      dup3\n        /* \"#utility.yul\":9972:10039   */\n      tag_101\n      jump\t// in\n    tag_208:\n        /* \"#utility.yul\":9966:9970   */\n      dup7\n        /* \"#utility.yul\":9959:10040   */\n      sstore\n        /* \"#utility.yul\":9821:10050   */\n      pop\n        /* \"#utility.yul\":9142:10050   */\n      jump(tag_205)\n        /* \"#utility.yul\":9172:9804   */\n    tag_206:\n        /* \"#utility.yul\":9224:9228   */\n      0x1f\n        /* \"#utility.yul\":9220:9229   */\n      not\n        /* \"#utility.yul\":9212:9218   */\n      dup5\n        /* \"#utility.yul\":9208:9230   */\n      and\n        /* \"#utility.yul\":9258:9295   */\n      tag_209\n        /* \"#utility.yul\":9290:9294   */\n      dup7\n        /* \"#utility.yul\":9258:9295   */\n      tag_87\n      jump\t// in\n    tag_209:\n        /* \"#utility.yul\":9317:9318   */\n      0x00\n        /* \"#utility.yul\":9331:9546   */\n    tag_210:\n        /* \"#utility.yul\":9345:9352   */\n      dup3\n        /* \"#utility.yul\":9342:9343   */\n      dup2\n        /* \"#utility.yul\":9339:9353   */\n      lt\n        /* \"#utility.yul\":9331:9546   */\n      iszero\n      tag_212\n      jumpi\n        /* \"#utility.yul\":9431:9440   */\n      dup5\n        /* \"#utility.yul\":9426:9429   */\n      dup10\n        /* \"#utility.yul\":9422:9441   */\n      add\n        /* \"#utility.yul\":9409:9442   */\n      calldataload\n        /* \"#utility.yul\":9401:9407   */\n      dup3\n        /* \"#utility.yul\":9394:9443   */\n      sstore\n        /* \"#utility.yul\":9482:9483   */\n      0x01\n        /* \"#utility.yul\":9474:9480   */\n      dup3\n        /* \"#utility.yul\":9470:9484   */\n      add\n        /* \"#utility.yul\":9460:9484   */\n      swap2\n      pop\n        /* \"#utility.yul\":9529:9531   */\n      0x20\n        /* \"#utility.yul\":9518:9527   */\n      dup6\n        /* \"#utility.yul\":9514:9532   */\n      add\n        /* \"#utility.yul\":9501:9532   */\n      swap5\n      pop\n        /* \"#utility.yul\":9368:9372   */\n      0x20\n        /* \"#utility.yul\":9365:9366   */\n      dup2\n        /* \"#utility.yul\":9361:9373   */\n      add\n        /* \"#utility.yul\":9356:9373   */\n      swap1\n      pop\n        /* \"#utility.yul\":9331:9546   */\n      jump(tag_210)\n    tag_212:\n        /* \"#utility.yul\":9574:9580   */\n      dup7\n        /* \"#utility.yul\":9565:9572   */\n      dup4\n        /* \"#utility.yul\":9562:9581   */\n      lt\n        /* \"#utility.yul\":9559:9745   */\n      iszero\n      tag_213\n      jumpi\n        /* \"#utility.yul\":9639:9648   */\n      dup5\n        /* \"#utility.yul\":9634:9637   */\n      dup10\n        /* \"#utility.yul\":9630:9649   */\n      add\n        /* \"#utility.yul\":9617:9650   */\n      calldataload\n        /* \"#utility.yul\":9682:9730   */\n      tag_214\n        /* \"#utility.yul\":9724:9728   */\n      0x1f\n        /* \"#utility.yul\":9716:9722   */\n      dup10\n        /* \"#utility.yul\":9712:9729   */\n      and\n        /* \"#utility.yul\":9701:9710   */\n      dup3\n        /* \"#utility.yul\":9682:9730   */\n      tag_100\n      jump\t// in\n    tag_214:\n        /* \"#utility.yul\":9674:9680   */\n      dup4\n        /* \"#utility.yul\":9667:9731   */\n      sstore\n        /* \"#utility.yul\":9582:9745   */\n      pop\n        /* \"#utility.yul\":9559:9745   */\n    tag_213:\n        /* \"#utility.yul\":9791:9792   */\n      0x01\n        /* \"#utility.yul\":9787:9788   */\n      0x02\n        /* \"#utility.yul\":9779:9785   */\n      dup9\n        /* \"#utility.yul\":9775:9789   */\n      mul\n        /* \"#utility.yul\":9771:9793   */\n      add\n        /* \"#utility.yul\":9765:9769   */\n      dup9\n        /* \"#utility.yul\":9758:9794   */\n      sstore\n        /* \"#utility.yul\":9179:9804   */\n      pop\n      pop\n      pop\n        /* \"#utility.yul\":9142:10050   */\n    tag_205:\n      pop\n        /* \"#utility.yul\":8752:10056   */\n      pop\n      pop\n      pop\n        /* \"#utility.yul\":8653:10056   */\n      pop\n      pop\n      pop\n      jump\t// out\n        /* \"#utility.yul\":10062:11457   */\n    tag_53:\n        /* \"#utility.yul\":10179:10216   */\n      tag_216\n        /* \"#utility.yul\":10212:10215   */\n      dup3\n        /* \"#utility.yul\":10179:10216   */\n      tag_77\n      jump\t// in\n    tag_216:\n        /* \"#utility.yul\":10281:10299   */\n      0xffffffffffffffff\n        /* \"#utility.yul\":10273:10279   */\n      dup2\n        /* \"#utility.yul\":10270:10300   */\n      gt\n        /* \"#utility.yul\":10267:10323   */\n      iszero\n      tag_217\n      jumpi\n        /* \"#utility.yul\":10303:10321   */\n      tag_218\n      tag_85\n      jump\t// in\n    tag_218:\n        /* \"#utility.yul\":10267:10323   */\n    tag_217:\n        /* \"#utility.yul\":10347:10385   */\n      tag_219\n        /* \"#utility.yul\":10379:10383   */\n      dup3\n        /* \"#utility.yul\":10373:10384   */\n      sload\n        /* \"#utility.yul\":10347:10385   */\n      tag_45\n      jump\t// in\n    tag_219:\n        /* \"#utility.yul\":10432:10499   */\n      tag_220\n        /* \"#utility.yul\":10492:10498   */\n      dup3\n        /* \"#utility.yul\":10484:10490   */\n      dup3\n        /* \"#utility.yul\":10478:10482   */\n      dup6\n        /* \"#utility.yul\":10432:10499   */\n      tag_98\n      jump\t// in\n    tag_220:\n        /* \"#utility.yul\":10526:10527   */\n      0x00\n        /* \"#utility.yul\":10550:10554   */\n      0x20\n        /* \"#utility.yul\":10537:10554   */\n      swap1\n      pop\n        /* \"#utility.yul\":10582:10584   */\n      0x1f\n        /* \"#utility.yul\":10574:10580   */\n      dup4\n        /* \"#utility.yul\":10571:10585   */\n      gt\n        /* \"#utility.yul\":10599:10600   */\n      0x01\n        /* \"#utility.yul\":10594:11212   */\n      dup2\n      eq\n      tag_222\n      jumpi\n        /* \"#utility.yul\":11256:11257   */\n      0x00\n        /* \"#utility.yul\":11273:11279   */\n      dup5\n        /* \"#utility.yul\":11270:11347   */\n      iszero\n      tag_223\n      jumpi\n        /* \"#utility.yul\":11322:11331   */\n      dup3\n        /* \"#utility.yul\":11317:11320   */\n      dup8\n        /* \"#utility.yul\":11313:11332   */\n      add\n        /* \"#utility.yul\":11307:11333   */\n      mload\n        /* \"#utility.yul\":11298:11333   */\n      swap1\n      pop\n        /* \"#utility.yul\":11270:11347   */\n    tag_223:\n        /* \"#utility.yul\":11373:11440   */\n      tag_224\n        /* \"#utility.yul\":11433:11439   */\n      dup6\n        /* \"#utility.yul\":11426:11431   */\n      dup3\n        /* \"#utility.yul\":11373:11440   */\n      tag_101\n      jump\t// in\n    tag_224:\n        /* \"#utility.yul\":11367:11371   */\n      dup7\n        /* \"#utility.yul\":11360:11441   */\n      sstore\n        /* \"#utility.yul\":11229:11451   */\n      pop\n        /* \"#utility.yul\":10564:11451   */\n      jump(tag_221)\n        /* \"#utility.yul\":10594:11212   */\n    tag_222:\n        /* \"#utility.yul\":10646:10650   */\n      0x1f\n        /* \"#utility.yul\":10642:10651   */\n      not\n        /* \"#utility.yul\":10634:10640   */\n      dup5\n        /* \"#utility.yul\":10630:10652   */\n      and\n        /* \"#utility.yul\":10680:10717   */\n      tag_225\n        /* \"#utility.yul\":10712:10716   */\n      dup7\n        /* \"#utility.yul\":10680:10717   */\n      tag_87\n      jump\t// in\n    tag_225:\n        /* \"#utility.yul\":10739:10740   */\n      0x00\n        /* \"#utility.yul\":10753:10961   */\n    tag_226:\n        /* \"#utility.yul\":10767:10774   */\n      dup3\n        /* \"#utility.yul\":10764:10765   */\n      dup2\n        /* \"#utility.yul\":10761:10775   */\n      lt\n        /* \"#utility.yul\":10753:10961   */\n      iszero\n      tag_228\n      jumpi\n        /* \"#utility.yul\":10846:10855   */\n      dup5\n        /* \"#utility.yul\":10841:10844   */\n      dup10\n        /* \"#utility.yul\":10837:10856   */\n      add\n        /* \"#utility.yul\":10831:10857   */\n      mload\n        /* \"#utility.yul\":10823:10829   */\n      dup3\n        /* \"#utility.yul\":10816:10858   */\n      sstore\n        /* \"#utility.yul\":10897:10898   */\n      0x01\n        /* \"#utility.yul\":10889:10895   */\n      dup3\n        /* \"#utility.yul\":10885:10899   */\n      add\n        /* \"#utility.yul\":10875:10899   */\n      swap2\n      pop\n        /* \"#utility.yul\":10944:10946   */\n      0x20\n        /* \"#utility.yul\":10933:10942   */\n      dup6\n        /* \"#utility.yul\":10929:10947   */\n      add\n        /* \"#utility.yul\":10916:10947   */\n      swap5\n      pop\n        /* \"#utility.yul\":10790:10794   */\n      0x20\n        /* \"#utility.yul\":10787:10788   */\n      dup2\n        /* \"#utility.yul\":10783:10795   */\n      add\n        /* \"#utility.yul\":10778:10795   */\n      swap1\n      pop\n        /* \"#utility.yul\":10753:10961   */\n      jump(tag_226)\n    tag_228:\n        /* \"#utility.yul\":10989:10995   */\n      dup7\n        /* \"#utility.yul\":10980:10987   */\n      dup4\n        /* \"#utility.yul\":10977:10996   */\n      lt\n        /* \"#utility.yul\":10974:11153   */\n      iszero\n      tag_229\n      jumpi\n        /* \"#utility.yul\":11047:11056   */\n      dup5\n        /* \"#utility.yul\":11042:11045   */\n      dup10\n        /* \"#utility.yul\":11038:11057   */\n      add\n        /* \"#utility.yul\":11032:11058   */\n      mload\n        /* \"#utility.yul\":11090:11138   */\n      tag_230\n        /* \"#utility.yul\":11132:11136   */\n      0x1f\n        /* \"#utility.yul\":11124:11130   */\n      dup10\n        /* \"#utility.yul\":11120:11137   */\n      and\n        /* \"#utility.yul\":11109:11118   */\n      dup3\n        /* \"#utility.yul\":11090:11138   */\n      tag_100\n      jump\t// in\n    tag_230:\n        /* \"#utility.yul\":11082:11088   */\n      dup4\n        /* \"#utility.yul\":11075:11139   */\n      sstore\n        /* \"#utility.yul\":10997:11153   */\n      pop\n        /* \"#utility.yul\":10974:11153   */\n    tag_229:\n        /* \"#utility.yul\":11199:11200   */\n      0x01\n        /* \"#utility.yul\":11195:11196   */\n      0x02\n        /* \"#utility.yul\":11187:11193   */\n      dup9\n        /* \"#utility.yul\":11183:11197   */\n      mul\n        /* \"#utility.yul\":11179:11201   */\n      add\n        /* \"#utility.yul\":11173:11177   */\n      dup9\n        /* \"#utility.yul\":11166:11202   */\n      sstore\n        /* \"#utility.yul\":10601:11212   */\n      pop\n      pop\n      pop\n        /* \"#utility.yul\":10564:11451   */\n    tag_221:\n      pop\n        /* \"#utility.yul\":10154:11457   */\n      pop\n      pop\n      pop\n        /* \"#utility.yul\":10062:11457   */\n      pop\n      pop\n      jump\t// out\n\n    auxdata: 0xa26469706673582212201f20539cb0067ec8118ed8b962538ba9e48ff1801ccfe82414281af9e465a92e64736f6c634300081a0033\n}\n",
				"bytecode": {
					"linkReferences": {},
					"object": "6080604052348015600e575f80fd5b50610bbc8061001c5f395ff3fe608060405234801561000f575f80fd5b5060043610610055575f3560e01c8063455f50241461005957806364371977146100755780639507d39a14610091578063b6a46b3b146100c2578063bc8bc2b4146100de575b5f80fd5b610073600480360381019061006e91906105a0565b61010f565b005b61008f600480360381019061008a919061062c565b610161565b005b6100ab60048036038101906100a691906105a0565b61019c565b6040516100b9929190610713565b60405180910390f35b6100dc60048036038101906100d79190610741565b610269565b005b6100f860048036038101906100f391906105a0565b61048a565b604051610106929190610713565b60405180910390f35b5f8082815481106101235761012261078c565b5b905f5260205f2090600202019050806001015f9054906101000a900460ff1615816001015f6101000a81548160ff0219169083151502179055505050565b5f8084815481106101755761017461078c565b5b905f5260205f20906002020190508282825f0191826101959291906109ea565b5050505050565b60605f805f84815481106101b3576101b261078c565b5b905f5260205f2090600202019050805f01816001015f9054906101000a900460ff168180546101e19061081d565b80601f016020809104026020016040519081016040528092919081815260200182805461020d9061081d565b80156102585780601f1061022f57610100808354040283529160200191610258565b820191905f5260205f20905b81548152906001019060200180831161023b57829003601f168201915b505050505091509250925050915091565b5f604051806040016040528084848080601f0160208091040260200160405190810160405280939291908181526020018383808284375f81840152601f19601f8201169050808301925050505050505081526020015f1515815250908060018154018082558091505060019003905f5260205f2090600202015f909190919091505f820151815f0190816102fd9190610ab7565b506020820151816001015f6101000a81548160ff02191690831515021790555050505f604051806040016040528084848080601f0160208091040260200160405190810160405280939291908181526020018383808284375f81840152601f19601f8201169050808301925050505050505081526020015f1515815250908060018154018082558091505060019003905f5260205f2090600202015f909190919091505f820151815f0190816103b39190610ab7565b506020820151816001015f6101000a81548160ff02191690831515021790555050506103dd61054a565b82828080601f0160208091040260200160405190810160405280939291908181526020018383808284375f81840152601f19601f82011690508083019250505050505050815f01819052505f81908060018154018082558091505060019003905f5260205f2090600202015f909190919091505f820151815f0190816104639190610ab7565b506020820151816001015f6101000a81548160ff0219169083151502179055505050505050565b5f8181548110610498575f80fd5b905f5260205f2090600202015f91509050805f0180546104b79061081d565b80601f01602080910402602001604051908101604052809291908181526020018280546104e39061081d565b801561052e5780601f106105055761010080835404028352916020019161052e565b820191905f5260205f20905b81548152906001019060200180831161051157829003601f168201915b505050505090806001015f9054906101000a900460ff16905082565b6040518060400160405280606081526020015f151581525090565b5f80fd5b5f80fd5b5f819050919050565b61057f8161056d565b8114610589575f80fd5b50565b5f8135905061059a81610576565b92915050565b5f602082840312156105b5576105b4610565565b5b5f6105c28482850161058c565b91505092915050565b5f80fd5b5f80fd5b5f80fd5b5f8083601f8401126105ec576105eb6105cb565b5b8235905067ffffffffffffffff811115610609576106086105cf565b5b602083019150836001820283011115610625576106246105d3565b5b9250929050565b5f805f6040848603121561064357610642610565565b5b5f6106508682870161058c565b935050602084013567ffffffffffffffff81111561067157610670610569565b5b61067d868287016105d7565b92509250509250925092565b5f81519050919050565b5f82825260208201905092915050565b8281835e5f83830152505050565b5f601f19601f8301169050919050565b5f6106cb82610689565b6106d58185610693565b93506106e58185602086016106a3565b6106ee816106b1565b840191505092915050565b5f8115159050919050565b61070d816106f9565b82525050565b5f6040820190508181035f83015261072b81856106c1565b905061073a6020830184610704565b9392505050565b5f806020838503121561075757610756610565565b5b5f83013567ffffffffffffffff81111561077457610773610569565b5b610780858286016105d7565b92509250509250929050565b7f4e487b71000000000000000000000000000000000000000000000000000000005f52603260045260245ffd5b5f82905092915050565b7f4e487b71000000000000000000000000000000000000000000000000000000005f52604160045260245ffd5b7f4e487b71000000000000000000000000000000000000000000000000000000005f52602260045260245ffd5b5f600282049050600182168061083457607f821691505b602082108103610847576108466107f0565b5b50919050565b5f819050815f5260205f209050919050565b5f6020601f8301049050919050565b5f82821b905092915050565b5f600883026108a97fffffffffffffffffffffffffffffffffffffffffffffffffffffffffffffffff8261086e565b6108b3868361086e565b95508019841693508086168417925050509392505050565b5f819050919050565b5f6108ee6108e96108e48461056d565b6108cb565b61056d565b9050919050565b5f819050919050565b610907836108d4565b61091b610913826108f5565b84845461087a565b825550505050565b5f90565b61092f610923565b61093a8184846108fe565b505050565b5b8181101561095d576109525f82610927565b600181019050610940565b5050565b601f8211156109a2576109738161084d565b61097c8461085f565b8101602085101561098b578190505b61099f6109978561085f565b83018261093f565b50505b505050565b5f82821c905092915050565b5f6109c25f19846008026109a7565b1980831691505092915050565b5f6109da83836109b3565b9150826002028217905092915050565b6109f483836107b9565b67ffffffffffffffff811115610a0d57610a0c6107c3565b5b610a17825461081d565b610a22828285610961565b5f601f831160018114610a4f575f8415610a3d578287013590505b610a4785826109cf565b865550610aae565b601f198416610a5d8661084d565b5f5b82811015610a8457848901358255600182019150602085019450602081019050610a5f565b86831015610aa15784890135610a9d601f8916826109b3565b8355505b6001600288020188555050505b50505050505050565b610ac082610689565b67ffffffffffffffff811115610ad957610ad86107c3565b5b610ae3825461081d565b610aee828285610961565b5f60209050601f831160018114610b1f575f8415610b0d578287015190505b610b1785826109cf565b865550610b7e565b601f198416610b2d8661084d565b5f5b82811015610b5457848901518255600182019150602085019450602081019050610b2f565b86831015610b715784890151610b6d601f8916826109b3565b8355505b6001600288020188555050505b50505050505056fea26469706673582212201f20539cb0067ec8118ed8b962538ba9e48ff1801ccfe82414281af9e465a92e64736f6c634300081a0033",
					"opcodes": "PUSH1 0x80 PUSH1 0x40 MSTORE CALLVALUE DUP1 ISZERO PUSH1 0xE JUMPI PUSH0 DUP1 REVERT JUMPDEST POP PUSH2 0xBBC DUP1 PUSH2 0x1C PUSH0 CODECOPY PUSH0 RETURN INVALID PUSH1 0x80 PUSH1 0x40 MSTORE CALLVALUE DUP1 ISZERO PUSH2 0xF JUMPI PUSH0 DUP1 REVERT JUMPDEST POP PUSH1 0x4 CALLDATASIZE LT PUSH2 0x55 JUMPI PUSH0 CALLDATALOAD PUSH1 0xE0 SHR DUP1 PUSH4 0x455F5024 EQ PUSH2 0x59 JUMPI DUP1 PUSH4 0x64371977 EQ PUSH2 0x75 JUMPI DUP1 PUSH4 0x9507D39A EQ PUSH2 0x91 JUMPI DUP1 PUSH4 0xB6A46B3B EQ PUSH2 0xC2 JUMPI DUP1 PUSH4 0xBC8BC2B4 EQ PUSH2 0xDE JUMPI JUMPDEST PUSH0 DUP1 REVERT JUMPDEST PUSH2 0x73 PUSH1 0x4 DUP1 CALLDATASIZE SUB DUP2 ADD SWAP1 PUSH2 0x6E SWAP2 SWAP1 PUSH2 0x5A0 JUMP JUMPDEST PUSH2 0x10F JUMP JUMPDEST STOP JUMPDEST PUSH2 0x8F PUSH1 0x4 DUP1 CALLDATASIZE SUB DUP2 ADD SWAP1 PUSH2 0x8A SWAP2 SWAP1 PUSH2 0x62C JUMP JUMPDEST PUSH2 0x161 JUMP JUMPDEST STOP JUMPDEST PUSH2 0xAB PUSH1 0x4 DUP1 CALLDATASIZE SUB DUP2 ADD SWAP1 PUSH2 0xA6 SWAP2 SWAP1 PUSH2 0x5A0 JUMP JUMPDEST PUSH2 0x19C JUMP JUMPDEST PUSH1 0x40 MLOAD PUSH2 0xB9 SWAP3 SWAP2 SWAP1 PUSH2 0x713 JUMP JUMPDEST PUSH1 0x40 MLOAD DUP1 SWAP2 SUB SWAP1 RETURN JUMPDEST PUSH2 0xDC PUSH1 0x4 DUP1 CALLDATASIZE SUB DUP2 ADD SWAP1 PUSH2 0xD7 SWAP2 SWAP1 PUSH2 0x741 JUMP JUMPDEST PUSH2 0x269 JUMP JUMPDEST STOP JUMPDEST PUSH2 0xF8 PUSH1 0x4 DUP1 CALLDATASIZE SUB DUP2 ADD SWAP1 PUSH2 0xF3 SWAP2 SWAP1 PUSH2 0x5A0 JUMP JUMPDEST PUSH2 0x48A JUMP JUMPDEST PUSH1 0x40 MLOAD PUSH2 0x106 SWAP3 SWAP2 SWAP1 PUSH2 0x713 JUMP JUMPDEST PUSH1 0x40 MLOAD DUP1 SWAP2 SUB SWAP1 RETURN JUMPDEST PUSH0 DUP1 DUP3 DUP2 SLOAD DUP2 LT PUSH2 0x123 JUMPI PUSH2 0x122 PUSH2 0x78C JUMP JUMPDEST JUMPDEST SWAP1 PUSH0 MSTORE PUSH1 0x20 PUSH0 KECCAK256 SWAP1 PUSH1 0x2 MUL ADD SWAP1 POP DUP1 PUSH1 0x1 ADD PUSH0 SWAP1 SLOAD SWAP1 PUSH2 0x100 EXP SWAP1 DIV PUSH1 0xFF AND ISZERO DUP2 PUSH1 0x1 ADD PUSH0 PUSH2 0x100 EXP DUP2 SLOAD DUP2 PUSH1 0xFF MUL NOT AND SWAP1 DUP4 ISZERO ISZERO MUL OR SWAP1 SSTORE POP POP POP JUMP JUMPDEST PUSH0 DUP1 DUP5 DUP2 SLOAD DUP2 LT PUSH2 0x175 JUMPI PUSH2 0x174 PUSH2 0x78C JUMP JUMPDEST JUMPDEST SWAP1 PUSH0 MSTORE PUSH1 0x20 PUSH0 KECCAK256 SWAP1 PUSH1 0x2 MUL ADD SWAP1 POP DUP3 DUP3 DUP3 PUSH0 ADD SWAP2 DUP3 PUSH2 0x195 SWAP3 SWAP2 SWAP1 PUSH2 0x9EA JUMP JUMPDEST POP POP POP POP POP JUMP JUMPDEST PUSH1 0x60 PUSH0 DUP1 PUSH0 DUP5 DUP2 SLOAD DUP2 LT PUSH2 0x1B3 JUMPI PUSH2 0x1B2 PUSH2 0x78C JUMP JUMPDEST JUMPDEST SWAP1 PUSH0 MSTORE PUSH1 0x20 PUSH0 KECCAK256 SWAP1 PUSH1 0x2 MUL ADD SWAP1 POP DUP1 PUSH0 ADD DUP2 PUSH1 0x1 ADD PUSH0 SWAP1 SLOAD SWAP1 PUSH2 0x100 EXP SWAP1 DIV PUSH1 0xFF AND DUP2 DUP1 SLOAD PUSH2 0x1E1 SWAP1 PUSH2 0x81D JUMP JUMPDEST DUP1 PUSH1 0x1F ADD PUSH1 0x20 DUP1 SWAP2 DIV MUL PUSH1 0x20 ADD PUSH1 0x40 MLOAD SWAP1 DUP2 ADD PUSH1 0x40 MSTORE DUP1 SWAP3 SWAP2 SWAP1 DUP2 DUP2 MSTORE PUSH1 0x20 ADD DUP3 DUP1 SLOAD PUSH2 0x20D SWAP1 PUSH2 0x81D JUMP JUMPDEST DUP1 ISZERO PUSH2 0x258 JUMPI DUP1 PUSH1 0x1F LT PUSH2 0x22F JUMPI PUSH2 0x100 DUP1 DUP4 SLOAD DIV MUL DUP4 MSTORE SWAP2 PUSH1 0x20 ADD SWAP2 PUSH2 0x258 JUMP JUMPDEST DUP3 ADD SWAP2 SWAP1 PUSH0 MSTORE PUSH1 0x20 PUSH0 KECCAK256 SWAP1 JUMPDEST DUP2 SLOAD DUP2 MSTORE SWAP1 PUSH1 0x1 ADD SWAP1 PUSH1 0x20 ADD DUP1 DUP4 GT PUSH2 0x23B JUMPI DUP3 SWAP1 SUB PUSH1 0x1F AND DUP3 ADD SWAP2 JUMPDEST POP POP POP POP POP SWAP2 POP SWAP3 POP SWAP3 POP POP SWAP2 POP SWAP2 JUMP JUMPDEST PUSH0 PUSH1 0x40 MLOAD DUP1 PUSH1 0x40 ADD PUSH1 0x40 MSTORE DUP1 DUP5 DUP5 DUP1 DUP1 PUSH1 0x1F ADD PUSH1 0x20 DUP1 SWAP2 DIV MUL PUSH1 0x20 ADD PUSH1 0x40 MLOAD SWAP1 DUP2 ADD PUSH1 0x40 MSTORE DUP1 SWAP4 SWAP3 SWAP2 SWAP1 DUP2 DUP2 MSTORE PUSH1 0x20 ADD DUP4 DUP4 DUP1 DUP3 DUP5 CALLDATACOPY PUSH0 DUP2 DUP5 ADD MSTORE PUSH1 0x1F NOT PUSH1 0x1F DUP3 ADD AND SWAP1 POP DUP1 DUP4 ADD SWAP3 POP POP POP POP POP POP POP DUP2 MSTORE PUSH1 0x20 ADD PUSH0 ISZERO ISZERO DUP2 MSTORE POP SWAP1 DUP1 PUSH1 0x1 DUP2 SLOAD ADD DUP1 DUP3 SSTORE DUP1 SWAP2 POP POP PUSH1 0x1 SWAP1 SUB SWAP1 PUSH0 MSTORE PUSH1 0x20 PUSH0 KECCAK256 SWAP1 PUSH1 0x2 MUL ADD PUSH0 SWAP1 SWAP2 SWAP1 SWAP2 SWAP1 SWAP2 POP PUSH0 DUP3 ADD MLOAD DUP2 PUSH0 ADD SWAP1 DUP2 PUSH2 0x2FD SWAP2 SWAP1 PUSH2 0xAB7 JUMP JUMPDEST POP PUSH1 0x20 DUP3 ADD MLOAD DUP2 PUSH1 0x1 ADD PUSH0 PUSH2 0x100 EXP DUP2 SLOAD DUP2 PUSH1 0xFF MUL NOT AND SWAP1 DUP4 ISZERO ISZERO MUL OR SWAP1 SSTORE POP POP POP PUSH0 PUSH1 0x40 MLOAD DUP1 PUSH1 0x40 ADD PUSH1 0x40 MSTORE DUP1 DUP5 DUP5 DUP1 DUP1 PUSH1 0x1F ADD PUSH1 0x20 DUP1 SWAP2 DIV MUL PUSH1 0x20 ADD PUSH1 0x40 MLOAD SWAP1 DUP2 ADD PUSH1 0x40 MSTORE DUP1 SWAP4 SWAP3 SWAP2 SWAP1 DUP2 DUP2 MSTORE PUSH1 0x20 ADD DUP4 DUP4 DUP1 DUP3 DUP5 CALLDATACOPY PUSH0 DUP2 DUP5 ADD MSTORE PUSH1 0x1F NOT PUSH1 0x1F DUP3 ADD AND SWAP1 POP DUP1 DUP4 ADD SWAP3 POP POP POP POP POP POP POP DUP2 MSTORE PUSH1 0x20 ADD PUSH0 ISZERO ISZERO DUP2 MSTORE POP SWAP1 DUP1 PUSH1 0x1 DUP2 SLOAD ADD DUP1 DUP3 SSTORE DUP1 SWAP2 POP POP PUSH1 0x1 SWAP1 SUB SWAP1 PUSH0 MSTORE PUSH1 0x20 PUSH0 KECCAK256 SWAP1 PUSH1 0x2 MUL ADD PUSH0 SWAP1 SWAP2 SWAP1 SWAP2 SWAP1 SWAP2 POP PUSH0 DUP3 ADD MLOAD DUP2 PUSH0 ADD SWAP1 DUP2 PUSH2 0x3B3 SWAP2 SWAP1 PUSH2 0xAB7 JUMP JUMPDEST POP PUSH1 0x20 DUP3 ADD MLOAD DUP2 PUSH1 0x1 ADD PUSH0 PUSH2 0x100 EXP DUP2 SLOAD DUP2 PUSH1 0xFF MUL NOT AND SWAP1 DUP4 ISZERO ISZERO MUL OR SWAP1 SSTORE POP POP POP PUSH2 0x3DD PUSH2 0x54A JUMP JUMPDEST DUP3 DUP3 DUP1 DUP1 PUSH1 0x1F ADD PUSH1 0x20 DUP1 SWAP2 DIV MUL PUSH1 0x20 ADD PUSH1 0x40 MLOAD SWAP1 DUP2 ADD PUSH1 0x40 MSTORE DUP1 SWAP4 SWAP3 SWAP2 SWAP1 DUP2 DUP2 MSTORE PUSH1 0x20 ADD DUP4 DUP4 DUP1 DUP3 DUP5 CALLDATACOPY PUSH0 DUP2 DUP5 ADD MSTORE PUSH1 0x1F NOT PUSH1 0x1F DUP3 ADD AND SWAP1 POP DUP1 DUP4 ADD SWAP3 POP POP POP POP POP POP POP DUP2 PUSH0 ADD DUP2 SWAP1 MSTORE POP PUSH0 DUP2 SWAP1 DUP1 PUSH1 0x1 DUP2 SLOAD ADD DUP1 DUP3 SSTORE DUP1 SWAP2 POP POP PUSH1 0x1 SWAP1 SUB SWAP1 PUSH0 MSTORE PUSH1 0x20 PUSH0 KECCAK256 SWAP1 PUSH1 0x2 MUL ADD PUSH0 SWAP1 SWAP2 SWAP1 SWAP2 SWAP1 SWAP2 POP PUSH0 DUP3 ADD MLOAD DUP2 PUSH0 ADD SWAP1 DUP2 PUSH2 0x463 SWAP2 SWAP1 PUSH2 0xAB7 JUMP JUMPDEST POP PUSH1 0x20 DUP3 ADD MLOAD DUP2 PUSH1 0x1 ADD PUSH0 PUSH2 0x100 EXP DUP2 SLOAD DUP2 PUSH1 0xFF MUL NOT AND SWAP1 DUP4 ISZERO ISZERO MUL OR SWAP1 SSTORE POP POP POP POP POP POP JUMP JUMPDEST PUSH0 DUP2 DUP2 SLOAD DUP2 LT PUSH2 0x498 JUMPI PUSH0 DUP1 REVERT JUMPDEST SWAP1 PUSH0 MSTORE PUSH1 0x20 PUSH0 KECCAK256 SWAP1 PUSH1 0x2 MUL ADD PUSH0 SWAP2 POP SWAP1 POP DUP1 PUSH0 ADD DUP1 SLOAD PUSH2 0x4B7 SWAP1 PUSH2 0x81D JUMP JUMPDEST DUP1 PUSH1 0x1F ADD PUSH1 0x20 DUP1 SWAP2 DIV MUL PUSH1 0x20 ADD PUSH1 0x40 MLOAD SWAP1 DUP2 ADD PUSH1 0x40 MSTORE DUP1 SWAP3 SWAP2 SWAP1 DUP2 DUP2 MSTORE PUSH1 0x20 ADD DUP3 DUP1 SLOAD PUSH2 0x4E3 SWAP1 PUSH2 0x81D JUMP JUMPDEST DUP1 ISZERO PUSH2 0x52E JUMPI DUP1 PUSH1 0x1F LT PUSH2 0x505 JUMPI PUSH2 0x100 DUP1 DUP4 SLOAD DIV MUL DUP4 MSTORE SWAP2 PUSH1 0x20 ADD SWAP2 PUSH2 0x52E JUMP JUMPDEST DUP3 ADD SWAP2 SWAP1 PUSH0 MSTORE PUSH1 0x20 PUSH0 KECCAK256 SWAP1 JUMPDEST DUP2 SLOAD DUP2 MSTORE SWAP1 PUSH1 0x1 ADD SWAP1 PUSH1 0x20 ADD DUP1 DUP4 GT PUSH2 0x511 JUMPI DUP3 SWAP1 SUB PUSH1 0x1F AND DUP3 ADD SWAP2 JUMPDEST POP POP POP POP POP SWAP1 DUP1 PUSH1 0x1 ADD PUSH0 SWAP1 SLOAD SWAP1 PUSH2 0x100 EXP SWAP1 DIV PUSH1 0xFF AND SWAP1 POP DUP3 JUMP JUMPDEST PUSH1 0x40 MLOAD DUP1 PUSH1 0x40 ADD PUSH1 0x40 MSTORE DUP1 PUSH1 0x60 DUP2 MSTORE PUSH1 0x20 ADD PUSH0 ISZERO ISZERO DUP2 MSTORE POP SWAP1 JUMP JUMPDEST PUSH0 DUP1 REVERT JUMPDEST PUSH0 DUP1 REVERT JUMPDEST PUSH0 DUP2 SWAP1 POP SWAP2 SWAP1 POP JUMP JUMPDEST PUSH2 0x57F DUP2 PUSH2 0x56D JUMP JUMPDEST DUP2 EQ PUSH2 0x589 JUMPI PUSH0 DUP1 REVERT JUMPDEST POP JUMP JUMPDEST PUSH0 DUP2 CALLDATALOAD SWAP1 POP PUSH2 0x59A DUP2 PUSH2 0x576 JUMP JUMPDEST SWAP3 SWAP2 POP POP JUMP JUMPDEST PUSH0 PUSH1 0x20 DUP3 DUP5 SUB SLT ISZERO PUSH2 0x5B5 JUMPI PUSH2 0x5B4 PUSH2 0x565 JUMP JUMPDEST JUMPDEST PUSH0 PUSH2 0x5C2 DUP5 DUP3 DUP6 ADD PUSH2 0x58C JUMP JUMPDEST SWAP2 POP POP SWAP3 SWAP2 POP POP JUMP JUMPDEST PUSH0 DUP1 REVERT JUMPDEST PUSH0 DUP1 REVERT JUMPDEST PUSH0 DUP1 REVERT JUMPDEST PUSH0 DUP1 DUP4 PUSH1 0x1F DUP5 ADD SLT PUSH2 0x5EC JUMPI PUSH2 0x5EB PUSH2 0x5CB JUMP JUMPDEST JUMPDEST DUP3 CALLDATALOAD SWAP1 POP PUSH8 0xFFFFFFFFFFFFFFFF DUP2 GT ISZERO PUSH2 0x609 JUMPI PUSH2 0x608 PUSH2 0x5CF JUMP JUMPDEST JUMPDEST PUSH1 0x20 DUP4 ADD SWAP2 POP DUP4 PUSH1 0x1 DUP3 MUL DUP4 ADD GT ISZERO PUSH2 0x625 JUMPI PUSH2 0x624 PUSH2 0x5D3 JUMP JUMPDEST JUMPDEST SWAP3 POP SWAP3 SWAP1 POP JUMP JUMPDEST PUSH0 DUP1 PUSH0 PUSH1 0x40 DUP5 DUP7 SUB SLT ISZERO PUSH2 0x643 JUMPI PUSH2 0x642 PUSH2 0x565 JUMP JUMPDEST JUMPDEST PUSH0 PUSH2 0x650 DUP7 DUP3 DUP8 ADD PUSH2 0x58C JUMP JUMPDEST SWAP4 POP POP PUSH1 0x20 DUP5 ADD CALLDATALOAD PUSH8 0xFFFFFFFFFFFFFFFF DUP2 GT ISZERO PUSH2 0x671 JUMPI PUSH2 0x670 PUSH2 0x569 JUMP JUMPDEST JUMPDEST PUSH2 0x67D DUP7 DUP3 DUP8 ADD PUSH2 0x5D7 JUMP JUMPDEST SWAP3 POP SWAP3 POP POP SWAP3 POP SWAP3 POP SWAP3 JUMP JUMPDEST PUSH0 DUP2 MLOAD SWAP1 POP SWAP2 SWAP1 POP JUMP JUMPDEST PUSH0 DUP3 DUP3 MSTORE PUSH1 0x20 DUP3 ADD SWAP1 POP SWAP3 SWAP2 POP POP JUMP JUMPDEST DUP3 DUP2 DUP4 MCOPY PUSH0 DUP4 DUP4 ADD MSTORE POP POP POP JUMP JUMPDEST PUSH0 PUSH1 0x1F NOT PUSH1 0x1F DUP4 ADD AND SWAP1 POP SWAP2 SWAP1 POP JUMP JUMPDEST PUSH0 PUSH2 0x6CB DUP3 PUSH2 0x689 JUMP JUMPDEST PUSH2 0x6D5 DUP2 DUP6 PUSH2 0x693 JUMP JUMPDEST SWAP4 POP PUSH2 0x6E5 DUP2 DUP6 PUSH1 0x20 DUP7 ADD PUSH2 0x6A3 JUMP JUMPDEST PUSH2 0x6EE DUP2 PUSH2 0x6B1 JUMP JUMPDEST DUP5 ADD SWAP2 POP POP SWAP3 SWAP2 POP POP JUMP JUMPDEST PUSH0 DUP2 ISZERO ISZERO SWAP1 POP SWAP2 SWAP1 POP JUMP JUMPDEST PUSH2 0x70D DUP2 PUSH2 0x6F9 JUMP JUMPDEST DUP3 MSTORE POP POP JUMP JUMPDEST PUSH0 PUSH1 0x40 DUP3 ADD SWAP1 POP DUP2 DUP2 SUB PUSH0 DUP4 ADD MSTORE PUSH2 0x72B DUP2 DUP6 PUSH2 0x6C1 JUMP JUMPDEST SWAP1 POP PUSH2 0x73A PUSH1 0x20 DUP4 ADD DUP5 PUSH2 0x704 JUMP JUMPDEST SWAP4 SWAP3 POP POP POP JUMP JUMPDEST PUSH0 DUP1 PUSH1 0x20 DUP4 DUP6 SUB SLT ISZERO PUSH2 0x757 JUMPI PUSH2 0x756 PUSH2 0x565 JUMP JUMPDEST JUMPDEST PUSH0 DUP4 ADD CALLDATALOAD PUSH8 0xFFFFFFFFFFFFFFFF DUP2 GT ISZERO PUSH2 0x774 JUMPI PUSH2 0x773 PUSH2 0x569 JUMP JUMPDEST JUMPDEST PUSH2 0x780 DUP6 DUP3 DUP7 ADD PUSH2 0x5D7 JUMP JUMPDEST SWAP3 POP SWAP3 POP POP SWAP3 POP SWAP3 SWAP1 POP JUMP JUMPDEST PUSH32 0x4E487B7100000000000000000000000000000000000000000000000000000000 PUSH0 MSTORE PUSH1 0x32 PUSH1 0x4 MSTORE PUSH1 0x24 PUSH0 REVERT JUMPDEST PUSH0 DUP3 SWAP1 POP SWAP3 SWAP2 POP POP JUMP JUMPDEST PUSH32 0x4E487B7100000000000000000000000000000000000000000000000000000000 PUSH0 MSTORE PUSH1 0x41 PUSH1 0x4 MSTORE PUSH1 0x24 PUSH0 REVERT JUMPDEST PUSH32 0x4E487B7100000000000000000000000000000000000000000000000000000000 PUSH0 MSTORE PUSH1 0x22 PUSH1 0x4 MSTORE PUSH1 0x24 PUSH0 REVERT JUMPDEST PUSH0 PUSH1 0x2 DUP3 DIV SWAP1 POP PUSH1 0x1 DUP3 AND DUP1 PUSH2 0x834 JUMPI PUSH1 0x7F DUP3 AND SWAP2 POP JUMPDEST PUSH1 0x20 DUP3 LT DUP2 SUB PUSH2 0x847 JUMPI PUSH2 0x846 PUSH2 0x7F0 JUMP JUMPDEST JUMPDEST POP SWAP2 SWAP1 POP JUMP JUMPDEST PUSH0 DUP2 SWAP1 POP DUP2 PUSH0 MSTORE PUSH1 0x20 PUSH0 KECCAK256 SWAP1 POP SWAP2 SWAP1 POP JUMP JUMPDEST PUSH0 PUSH1 0x20 PUSH1 0x1F DUP4 ADD DIV SWAP1 POP SWAP2 SWAP1 POP JUMP JUMPDEST PUSH0 DUP3 DUP3 SHL SWAP1 POP SWAP3 SWAP2 POP POP JUMP JUMPDEST PUSH0 PUSH1 0x8 DUP4 MUL PUSH2 0x8A9 PUSH32 0xFFFFFFFFFFFFFFFFFFFFFFFFFFFFFFFFFFFFFFFFFFFFFFFFFFFFFFFFFFFFFFFF DUP3 PUSH2 0x86E JUMP JUMPDEST PUSH2 0x8B3 DUP7 DUP4 PUSH2 0x86E JUMP JUMPDEST SWAP6 POP DUP1 NOT DUP5 AND SWAP4 POP DUP1 DUP7 AND DUP5 OR SWAP3 POP POP POP SWAP4 SWAP3 POP POP POP JUMP JUMPDEST PUSH0 DUP2 SWAP1 POP SWAP2 SWAP1 POP JUMP JUMPDEST PUSH0 PUSH2 0x8EE PUSH2 0x8E9 PUSH2 0x8E4 DUP5 PUSH2 0x56D JUMP JUMPDEST PUSH2 0x8CB JUMP JUMPDEST PUSH2 0x56D JUMP JUMPDEST SWAP1 POP SWAP2 SWAP1 POP JUMP JUMPDEST PUSH0 DUP2 SWAP1 POP SWAP2 SWAP1 POP JUMP JUMPDEST PUSH2 0x907 DUP4 PUSH2 0x8D4 JUMP JUMPDEST PUSH2 0x91B PUSH2 0x913 DUP3 PUSH2 0x8F5 JUMP JUMPDEST DUP5 DUP5 SLOAD PUSH2 0x87A JUMP JUMPDEST DUP3 SSTORE POP POP POP POP JUMP JUMPDEST PUSH0 SWAP1 JUMP JUMPDEST PUSH2 0x92F PUSH2 0x923 JUMP JUMPDEST PUSH2 0x93A DUP2 DUP5 DUP5 PUSH2 0x8FE JUMP JUMPDEST POP POP POP JUMP JUMPDEST JUMPDEST DUP2 DUP2 LT ISZERO PUSH2 0x95D JUMPI PUSH2 0x952 PUSH0 DUP3 PUSH2 0x927 JUMP JUMPDEST PUSH1 0x1 DUP2 ADD SWAP1 POP PUSH2 0x940 JUMP JUMPDEST POP POP JUMP JUMPDEST PUSH1 0x1F DUP3 GT ISZERO PUSH2 0x9A2 JUMPI PUSH2 0x973 DUP2 PUSH2 0x84D JUMP JUMPDEST PUSH2 0x97C DUP5 PUSH2 0x85F JUMP JUMPDEST DUP2 ADD PUSH1 0x20 DUP6 LT ISZERO PUSH2 0x98B JUMPI DUP2 SWAP1 POP JUMPDEST PUSH2 0x99F PUSH2 0x997 DUP6 PUSH2 0x85F JUMP JUMPDEST DUP4 ADD DUP3 PUSH2 0x93F JUMP JUMPDEST POP POP JUMPDEST POP POP POP JUMP JUMPDEST PUSH0 DUP3 DUP3 SHR SWAP1 POP SWAP3 SWAP2 POP POP JUMP JUMPDEST PUSH0 PUSH2 0x9C2 PUSH0 NOT DUP5 PUSH1 0x8 MUL PUSH2 0x9A7 JUMP JUMPDEST NOT DUP1 DUP4 AND SWAP2 POP POP SWAP3 SWAP2 POP POP JUMP JUMPDEST PUSH0 PUSH2 0x9DA DUP4 DUP4 PUSH2 0x9B3 JUMP JUMPDEST SWAP2 POP DUP3 PUSH1 0x2 MUL DUP3 OR SWAP1 POP SWAP3 SWAP2 POP POP JUMP JUMPDEST PUSH2 0x9F4 DUP4 DUP4 PUSH2 0x7B9 JUMP JUMPDEST PUSH8 0xFFFFFFFFFFFFFFFF DUP2 GT ISZERO PUSH2 0xA0D JUMPI PUSH2 0xA0C PUSH2 0x7C3 JUMP JUMPDEST JUMPDEST PUSH2 0xA17 DUP3 SLOAD PUSH2 0x81D JUMP JUMPDEST PUSH2 0xA22 DUP3 DUP3 DUP6 PUSH2 0x961 JUMP JUMPDEST PUSH0 PUSH1 0x1F DUP4 GT PUSH1 0x1 DUP2 EQ PUSH2 0xA4F JUMPI PUSH0 DUP5 ISZERO PUSH2 0xA3D JUMPI DUP3 DUP8 ADD CALLDATALOAD SWAP1 POP JUMPDEST PUSH2 0xA47 DUP6 DUP3 PUSH2 0x9CF JUMP JUMPDEST DUP7 SSTORE POP PUSH2 0xAAE JUMP JUMPDEST PUSH1 0x1F NOT DUP5 AND PUSH2 0xA5D DUP7 PUSH2 0x84D JUMP JUMPDEST PUSH0 JUMPDEST DUP3 DUP2 LT ISZERO PUSH2 0xA84 JUMPI DUP5 DUP10 ADD CALLDATALOAD DUP3 SSTORE PUSH1 0x1 DUP3 ADD SWAP2 POP PUSH1 0x20 DUP6 ADD SWAP5 POP PUSH1 0x20 DUP2 ADD SWAP1 POP PUSH2 0xA5F JUMP JUMPDEST DUP7 DUP4 LT ISZERO PUSH2 0xAA1 JUMPI DUP5 DUP10 ADD CALLDATALOAD PUSH2 0xA9D PUSH1 0x1F DUP10 AND DUP3 PUSH2 0x9B3 JUMP JUMPDEST DUP4 SSTORE POP JUMPDEST PUSH1 0x1 PUSH1 0x2 DUP9 MUL ADD DUP9 SSTORE POP POP POP JUMPDEST POP POP POP POP POP POP POP JUMP JUMPDEST PUSH2 0xAC0 DUP3 PUSH2 0x689 JUMP JUMPDEST PUSH8 0xFFFFFFFFFFFFFFFF DUP2 GT ISZERO PUSH2 0xAD9 JUMPI PUSH2 0xAD8 PUSH2 0x7C3 JUMP JUMPDEST JUMPDEST PUSH2 0xAE3 DUP3 SLOAD PUSH2 0x81D JUMP JUMPDEST PUSH2 0xAEE DUP3 DUP3 DUP6 PUSH2 0x961 JUMP JUMPDEST PUSH0 PUSH1 0x20 SWAP1 POP PUSH1 0x1F DUP4 GT PUSH1 0x1 DUP2 EQ PUSH2 0xB1F JUMPI PUSH0 DUP5 ISZERO PUSH2 0xB0D JUMPI DUP3 DUP8 ADD MLOAD SWAP1 POP JUMPDEST PUSH2 0xB17 DUP6 DUP3 PUSH2 0x9CF JUMP JUMPDEST DUP7 SSTORE POP PUSH2 0xB7E JUMP JUMPDEST PUSH1 0x1F NOT DUP5 AND PUSH2 0xB2D DUP7 PUSH2 0x84D JUMP JUMPDEST PUSH0 JUMPDEST DUP3 DUP2 LT ISZERO PUSH2 0xB54 JUMPI DUP5 DUP10 ADD MLOAD DUP3 SSTORE PUSH1 0x1 DUP3 ADD SWAP2 POP PUSH1 0x20 DUP6 ADD SWAP5 POP PUSH1 0x20 DUP2 ADD SWAP1 POP PUSH2 0xB2F JUMP JUMPDEST DUP7 DUP4 LT ISZERO PUSH2 0xB71 JUMPI DUP5 DUP10 ADD MLOAD PUSH2 0xB6D PUSH1 0x1F DUP10 AND DUP3 PUSH2 0x9B3 JUMP JUMPDEST DUP4 SSTORE POP JUMPDEST PUSH1 0x1 PUSH1 0x2 DUP9 MUL ADD DUP9 SSTORE POP POP POP JUMPDEST POP POP POP POP POP POP JUMP INVALID LOG2 PUSH5 0x6970667358 0x22 SLT KECCAK256 0x1F KECCAK256 MSTORE8 SWAP13 0xB0 MOD PUSH31 0xC8118ED8B962538BA9E48FF1801CCFE82414281AF9E465A92E64736F6C6343 STOP ADDMOD BYTE STOP CALLER "
				},
				"gasEstimates": {
					"creation": {
						"codeDepositCost": "600800",
						"executionCost": "630",
						"totalCost": "601430"
					},
					"external": {
						"create(string)": "infinite",
						"get(uint256)": "infinite",
						"set(uint256,string)": "infinite",
						"todos(uint256)": "infinite",
						"toggleCompleted(uint256)": "28996"
					}
				},
				"methodIdentifiers": {
					"create(string)": "b6a46b3b",
					"get(uint256)": "9507d39a",
					"set(uint256,string)": "64371977",
					"todos(uint256)": "bc8bc2b4",
					"toggleCompleted(uint256)": "455f5024"
				}
			},
			"storageLayout": {
				"storage": [
					{
						"astId": 10,
						"contract": "base/Todos.sol:Todos",
						"label": "todos",
						"offset": 0,
						"slot": "0",
						"type": "t_array(t_struct(Todo)6_storage)dyn_storage"
					}
				],
				"types": {
					"t_array(t_struct(Todo)6_storage)dyn_storage": {
						"base": "t_struct(Todo)6_storage",
						"encoding": "dynamic_array",
						"label": "struct Todos.Todo[]",
						"numberOfBytes": "32"
					},
					"t_bool": {
						"encoding": "inplace",
						"label": "bool",
						"numberOfBytes": "1"
					},
					"t_string_storage": {
						"encoding": "bytes",
						"label": "string",
						"numberOfBytes": "32"
					},
					"t_struct(Todo)6_storage": {
						"encoding": "inplace",
						"label": "struct Todos.Todo",
						"members": [
							{
								"astId": 3,
								"contract": "base/Todos.sol:Todos",
								"label": "text",
								"offset": 0,
								"slot": "0",
								"type": "t_string_storage"
							},
							{
								"astId": 5,
								"contract": "base/Todos.sol:Todos",
								"label": "completed",
								"offset": 0,
								"slot": "1",
								"type": "t_bool"
							}
						],
						"numberOfBytes": "64"
					}
				}
			},
			"userdoc": {
				"kind": "user",
				"methods": {},
				"version": 1
			}
		}
	}
}