{
	"base/Error.sol": {
		"Errors": {
			"abi": [
				{
					"inputs": [],
					"name": "num",
					"outputs": [
						{
							"internalType": "uint256",
							"name": "",
							"type": "uint256"
						}
					],
					"stateMutability": "view",
					"type": "function"
				},
				{
					"inputs": [],
					"name": "testAssert",
					"outputs": [],
					"stateMutability": "view",
					"type": "function"
				},
				{
					"inputs": [
						{
							"internalType": "uint256",
							"name": "_i",
							"type": "uint256"
						}
					],
					"name": "testRequire",
					"outputs": [],
					"stateMutability": "pure",
					"type": "function"
				},
				{
					"inputs": [
						{
							"internalType": "uint256",
							"name": "_i",
							"type": "uint256"
						}
					],
					"name": "testRevert",
					"outputs": [],
					"stateMutability": "pure",
					"type": "function"
				}
			],
			"devdoc": {
				"kind": "dev",
				"methods": {},
				"version": 1
			},
			"evm": {
				"assembly": "    /* \"base/Error.sol\":65:453  contract Errors {... */\n  mstore(0x40, 0x80)\n  callvalue\n  dup1\n  iszero\n  tag_1\n  jumpi\n  0x00\n  dup1\n  revert\ntag_1:\n  pop\n  dataSize(sub_0)\n  dup1\n  dataOffset(sub_0)\n  0x00\n  codecopy\n  0x00\n  return\nstop\n\nsub_0: assembly {\n        /* \"base/Error.sol\":65:453  contract Errors {... */\n      mstore(0x40, 0x80)\n      callvalue\n      dup1\n      iszero\n      tag_1\n      jumpi\n      0x00\n      dup1\n      revert\n    tag_1:\n      pop\n      jumpi(tag_2, lt(calldatasize, 0x04))\n      shr(0xe0, calldataload(0x00))\n      dup1\n      0x20987767\n      eq\n      tag_3\n      jumpi\n      dup1\n      0x2b813bc0\n      eq\n      tag_4\n      jumpi\n      dup1\n      0x4e70b1dc\n      eq\n      tag_5\n      jumpi\n      dup1\n      0xb8bd717f\n      eq\n      tag_6\n      jumpi\n    tag_2:\n      0x00\n      dup1\n      revert\n        /* \"base/Error.sol\":209:347  function testRevert(uint256 _i) public pure{... */\n    tag_3:\n      tag_7\n      0x04\n      dup1\n      calldatasize\n      sub\n      dup2\n      add\n      swap1\n      tag_8\n      swap2\n      swap1\n      tag_9\n      jump\t// in\n    tag_8:\n      tag_10\n      jump\t// in\n    tag_7:\n      stop\n        /* \"base/Error.sol\":382:450  function testAssert() public view{... */\n    tag_4:\n      tag_11\n      tag_12\n      jump\t// in\n    tag_11:\n      stop\n        /* \"base/Error.sol\":355:373  uint256 public num */\n    tag_5:\n      tag_13\n      tag_14\n      jump\t// in\n    tag_13:\n      mload(0x40)\n      tag_15\n      swap2\n      swap1\n      tag_16\n      jump\t// in\n    tag_15:\n      mload(0x40)\n      dup1\n      swap2\n      sub\n      swap1\n      return\n        /* \"base/Error.sol\":88:201  function testRequire(uint256 _i) public pure {... */\n    tag_6:\n      tag_17\n      0x04\n      dup1\n      calldatasize\n      sub\n      dup2\n      add\n      swap1\n      tag_18\n      swap2\n      swap1\n      tag_9\n      jump\t// in\n    tag_18:\n      tag_19\n      jump\t// in\n    tag_17:\n      stop\n        /* \"base/Error.sol\":209:347  function testRevert(uint256 _i) public pure{... */\n    tag_10:\n        /* \"base/Error.sol\":271:273  10 */\n      0x0a\n        /* \"base/Error.sol\":266:268  _i */\n      dup2\n        /* \"base/Error.sol\":266:273  _i < 10 */\n      lt\n        /* \"base/Error.sol\":263:340  if(_i < 10){... */\n      iszero\n      tag_21\n      jumpi\n        /* \"base/Error.sol\":289:328  revert(\"input must be greater than 10\") */\n      mload(0x40)\n      0x08c379a000000000000000000000000000000000000000000000000000000000\n      dup2\n      mstore\n      0x04\n      add\n      tag_22\n      swap1\n      tag_23\n      jump\t// in\n    tag_22:\n      mload(0x40)\n      dup1\n      swap2\n      sub\n      swap1\n      revert\n        /* \"base/Error.sol\":263:340  if(_i < 10){... */\n    tag_21:\n        /* \"base/Error.sol\":209:347  function testRevert(uint256 _i) public pure{... */\n      pop\n      jump\t// out\n        /* \"base/Error.sol\":382:450  function testAssert() public view{... */\n    tag_12:\n        /* \"base/Error.sol\":440:441  0 */\n      0x00\n        /* \"base/Error.sol\":433:436  num */\n      dup1\n      sload\n        /* \"base/Error.sol\":433:441  num == 0 */\n      eq\n        /* \"base/Error.sol\":426:442  assert(num == 0) */\n      tag_25\n      jumpi\n      tag_26\n      tag_27\n      jump\t// in\n    tag_26:\n    tag_25:\n        /* \"base/Error.sol\":382:450  function testAssert() public view{... */\n      jump\t// out\n        /* \"base/Error.sol\":355:373  uint256 public num */\n    tag_14:\n      sload(0x00)\n      dup2\n      jump\t// out\n        /* \"base/Error.sol\":88:201  function testRequire(uint256 _i) public pure {... */\n    tag_19:\n        /* \"base/Error.sol\":157:159  10 */\n      0x0a\n        /* \"base/Error.sol\":152:154  _i */\n      dup2\n        /* \"base/Error.sol\":152:159  _i > 10 */\n      gt\n        /* \"base/Error.sol\":144:193  require(_i > 10 ,\"Input must be greater than 10\") */\n      tag_29\n      jumpi\n      mload(0x40)\n      0x08c379a000000000000000000000000000000000000000000000000000000000\n      dup2\n      mstore\n      0x04\n      add\n      tag_30\n      swap1\n      tag_31\n      jump\t// in\n    tag_30:\n      mload(0x40)\n      dup1\n      swap2\n      sub\n      swap1\n      revert\n    tag_29:\n        /* \"base/Error.sol\":88:201  function testRequire(uint256 _i) public pure {... */\n      pop\n      jump\t// out\n        /* \"#utility.yul\":88:205   */\n    tag_33:\n        /* \"#utility.yul\":197:198   */\n      0x00\n        /* \"#utility.yul\":194:195   */\n      dup1\n        /* \"#utility.yul\":187:199   */\n      revert\n        /* \"#utility.yul\":334:411   */\n    tag_35:\n        /* \"#utility.yul\":371:378   */\n      0x00\n        /* \"#utility.yul\":400:405   */\n      dup2\n        /* \"#utility.yul\":389:405   */\n      swap1\n      pop\n        /* \"#utility.yul\":334:411   */\n      swap2\n      swap1\n      pop\n      jump\t// out\n        /* \"#utility.yul\":417:539   */\n    tag_36:\n        /* \"#utility.yul\":490:514   */\n      tag_50\n        /* \"#utility.yul\":508:513   */\n      dup2\n        /* \"#utility.yul\":490:514   */\n      tag_35\n      jump\t// in\n    tag_50:\n        /* \"#utility.yul\":483:488   */\n      dup2\n        /* \"#utility.yul\":480:515   */\n      eq\n        /* \"#utility.yul\":470:533   */\n      tag_51\n      jumpi\n        /* \"#utility.yul\":529:530   */\n      0x00\n        /* \"#utility.yul\":526:527   */\n      dup1\n        /* \"#utility.yul\":519:531   */\n      revert\n        /* \"#utility.yul\":470:533   */\n    tag_51:\n        /* \"#utility.yul\":417:539   */\n      pop\n      jump\t// out\n        /* \"#utility.yul\":545:684   */\n    tag_37:\n        /* \"#utility.yul\":591:596   */\n      0x00\n        /* \"#utility.yul\":629:635   */\n      dup2\n        /* \"#utility.yul\":616:636   */\n      calldataload\n        /* \"#utility.yul\":607:636   */\n      swap1\n      pop\n        /* \"#utility.yul\":645:678   */\n      tag_53\n        /* \"#utility.yul\":672:677   */\n      dup2\n        /* \"#utility.yul\":645:678   */\n      tag_36\n      jump\t// in\n    tag_53:\n        /* \"#utility.yul\":545:684   */\n      swap3\n      swap2\n      pop\n      pop\n      jump\t// out\n        /* \"#utility.yul\":690:1019   */\n    tag_9:\n        /* \"#utility.yul\":749:755   */\n      0x00\n        /* \"#utility.yul\":798:800   */\n      0x20\n        /* \"#utility.yul\":786:795   */\n      dup3\n        /* \"#utility.yul\":777:784   */\n      dup5\n        /* \"#utility.yul\":773:796   */\n      sub\n        /* \"#utility.yul\":769:801   */\n      slt\n        /* \"#utility.yul\":766:885   */\n      iszero\n      tag_55\n      jumpi\n        /* \"#utility.yul\":804:883   */\n      tag_56\n      tag_33\n      jump\t// in\n    tag_56:\n        /* \"#utility.yul\":766:885   */\n    tag_55:\n        /* \"#utility.yul\":924:925   */\n      0x00\n        /* \"#utility.yul\":949:1002   */\n      tag_57\n        /* \"#utility.yul\":994:1001   */\n      dup5\n        /* \"#utility.yul\":985:991   */\n      dup3\n        /* \"#utility.yul\":974:983   */\n      dup6\n        /* \"#utility.yul\":970:992   */\n      add\n        /* \"#utility.yul\":949:1002   */\n      tag_37\n      jump\t// in\n    tag_57:\n        /* \"#utility.yul\":939:1002   */\n      swap2\n      pop\n        /* \"#utility.yul\":895:1012   */\n      pop\n        /* \"#utility.yul\":690:1019   */\n      swap3\n      swap2\n      pop\n      pop\n      jump\t// out\n        /* \"#utility.yul\":1025:1143   */\n    tag_38:\n        /* \"#utility.yul\":1112:1136   */\n      tag_59\n        /* \"#utility.yul\":1130:1135   */\n      dup2\n        /* \"#utility.yul\":1112:1136   */\n      tag_35\n      jump\t// in\n    tag_59:\n        /* \"#utility.yul\":1107:1110   */\n      dup3\n        /* \"#utility.yul\":1100:1137   */\n      mstore\n        /* \"#utility.yul\":1025:1143   */\n      pop\n      pop\n      jump\t// out\n        /* \"#utility.yul\":1149:1371   */\n    tag_16:\n        /* \"#utility.yul\":1242:1246   */\n      0x00\n        /* \"#utility.yul\":1280:1282   */\n      0x20\n        /* \"#utility.yul\":1269:1278   */\n      dup3\n        /* \"#utility.yul\":1265:1283   */\n      add\n        /* \"#utility.yul\":1257:1283   */\n      swap1\n      pop\n        /* \"#utility.yul\":1293:1364   */\n      tag_61\n        /* \"#utility.yul\":1361:1362   */\n      0x00\n        /* \"#utility.yul\":1350:1359   */\n      dup4\n        /* \"#utility.yul\":1346:1363   */\n      add\n        /* \"#utility.yul\":1337:1343   */\n      dup5\n        /* \"#utility.yul\":1293:1364   */\n      tag_38\n      jump\t// in\n    tag_61:\n        /* \"#utility.yul\":1149:1371   */\n      swap3\n      swap2\n      pop\n      pop\n      jump\t// out\n        /* \"#utility.yul\":1377:1546   */\n    tag_39:\n        /* \"#utility.yul\":1461:1472   */\n      0x00\n        /* \"#utility.yul\":1495:1501   */\n      dup3\n        /* \"#utility.yul\":1490:1493   */\n      dup3\n        /* \"#utility.yul\":1483:1502   */\n      mstore\n        /* \"#utility.yul\":1535:1539   */\n      0x20\n        /* \"#utility.yul\":1530:1533   */\n      dup3\n        /* \"#utility.yul\":1526:1540   */\n      add\n        /* \"#utility.yul\":1511:1540   */\n      swap1\n      pop\n        /* \"#utility.yul\":1377:1546   */\n      swap3\n      swap2\n      pop\n      pop\n      jump\t// out\n        /* \"#utility.yul\":1552:1731   */\n    tag_40:\n        /* \"#utility.yul\":1692:1723   */\n      0x696e707574206d7573742062652067726561746572207468616e203130000000\n        /* \"#utility.yul\":1688:1689   */\n      0x00\n        /* \"#utility.yul\":1680:1686   */\n      dup3\n        /* \"#utility.yul\":1676:1690   */\n      add\n        /* \"#utility.yul\":1669:1724   */\n      mstore\n        /* \"#utility.yul\":1552:1731   */\n      pop\n      jump\t// out\n        /* \"#utility.yul\":1737:2103   */\n    tag_41:\n        /* \"#utility.yul\":1879:1882   */\n      0x00\n        /* \"#utility.yul\":1900:1967   */\n      tag_65\n        /* \"#utility.yul\":1964:1966   */\n      0x1d\n        /* \"#utility.yul\":1959:1962   */\n      dup4\n        /* \"#utility.yul\":1900:1967   */\n      tag_39\n      jump\t// in\n    tag_65:\n        /* \"#utility.yul\":1893:1967   */\n      swap2\n      pop\n        /* \"#utility.yul\":1976:2069   */\n      tag_66\n        /* \"#utility.yul\":2065:2068   */\n      dup3\n        /* \"#utility.yul\":1976:2069   */\n      tag_40\n      jump\t// in\n    tag_66:\n        /* \"#utility.yul\":2094:2096   */\n      0x20\n        /* \"#utility.yul\":2089:2092   */\n      dup3\n        /* \"#utility.yul\":2085:2097   */\n      add\n        /* \"#utility.yul\":2078:2097   */\n      swap1\n      pop\n        /* \"#utility.yul\":1737:2103   */\n      swap2\n      swap1\n      pop\n      jump\t// out\n        /* \"#utility.yul\":2109:2528   */\n    tag_23:\n        /* \"#utility.yul\":2275:2279   */\n      0x00\n        /* \"#utility.yul\":2313:2315   */\n      0x20\n        /* \"#utility.yul\":2302:2311   */\n      dup3\n        /* \"#utility.yul\":2298:2316   */\n      add\n        /* \"#utility.yul\":2290:2316   */\n      swap1\n      pop\n        /* \"#utility.yul\":2362:2371   */\n      dup2\n        /* \"#utility.yul\":2356:2360   */\n      dup2\n        /* \"#utility.yul\":2352:2372   */\n      sub\n        /* \"#utility.yul\":2348:2349   */\n      0x00\n        /* \"#utility.yul\":2337:2346   */\n      dup4\n        /* \"#utility.yul\":2333:2350   */\n      add\n        /* \"#utility.yul\":2326:2373   */\n      mstore\n        /* \"#utility.yul\":2390:2521   */\n      tag_68\n        /* \"#utility.yul\":2516:2520   */\n      dup2\n        /* \"#utility.yul\":2390:2521   */\n      tag_41\n      jump\t// in\n    tag_68:\n        /* \"#utility.yul\":2382:2521   */\n      swap1\n      pop\n        /* \"#utility.yul\":2109:2528   */\n      swap2\n      swap1\n      pop\n      jump\t// out\n        /* \"#utility.yul\":2534:2714   */\n    tag_27:\n        /* \"#utility.yul\":2582:2659   */\n      0x4e487b7100000000000000000000000000000000000000000000000000000000\n        /* \"#utility.yul\":2579:2580   */\n      0x00\n        /* \"#utility.yul\":2572:2660   */\n      mstore\n        /* \"#utility.yul\":2679:2683   */\n      0x01\n        /* \"#utility.yul\":2676:2677   */\n      0x04\n        /* \"#utility.yul\":2669:2684   */\n      mstore\n        /* \"#utility.yul\":2703:2707   */\n      0x24\n        /* \"#utility.yul\":2700:2701   */\n      0x00\n        /* \"#utility.yul\":2693:2708   */\n      revert\n        /* \"#utility.yul\":2720:2899   */\n    tag_42:\n        /* \"#utility.yul\":2860:2891   */\n      0x496e707574206d7573742062652067726561746572207468616e203130000000\n        /* \"#utility.yul\":2856:2857   */\n      0x00\n        /* \"#utility.yul\":2848:2854   */\n      dup3\n        /* \"#utility.yul\":2844:2858   */\n      add\n        /* \"#utility.yul\":2837:2892   */\n      mstore\n        /* \"#utility.yul\":2720:2899   */\n      pop\n      jump\t// out\n        /* \"#utility.yul\":2905:3271   */\n    tag_43:\n        /* \"#utility.yul\":3047:3050   */\n      0x00\n        /* \"#utility.yul\":3068:3135   */\n      tag_72\n        /* \"#utility.yul\":3132:3134   */\n      0x1d\n        /* \"#utility.yul\":3127:3130   */\n      dup4\n        /* \"#utility.yul\":3068:3135   */\n      tag_39\n      jump\t// in\n    tag_72:\n        /* \"#utility.yul\":3061:3135   */\n      swap2\n      pop\n        /* \"#utility.yul\":3144:3237   */\n      tag_73\n        /* \"#utility.yul\":3233:3236   */\n      dup3\n        /* \"#utility.yul\":3144:3237   */\n      tag_42\n      jump\t// in\n    tag_73:\n        /* \"#utility.yul\":3262:3264   */\n      0x20\n        /* \"#utility.yul\":3257:3260   */\n      dup3\n        /* \"#utility.yul\":3253:3265   */\n      add\n        /* \"#utility.yul\":3246:3265   */\n      swap1\n      pop\n        /* \"#utility.yul\":2905:3271   */\n      swap2\n      swap1\n      pop\n      jump\t// out\n        /* \"#utility.yul\":3277:3696   */\n    tag_31:\n        /* \"#utility.yul\":3443:3447   */\n      0x00\n        /* \"#utility.yul\":3481:3483   */\n      0x20\n        /* \"#utility.yul\":3470:3479   */\n      dup3\n        /* \"#utility.yul\":3466:3484   */\n      add\n        /* \"#utility.yul\":3458:3484   */\n      swap1\n      pop\n        /* \"#utility.yul\":3530:3539   */\n      dup2\n        /* \"#utility.yul\":3524:3528   */\n      dup2\n        /* \"#utility.yul\":3520:3540   */\n      sub\n        /* \"#utility.yul\":3516:3517   */\n      0x00\n        /* \"#utility.yul\":3505:3514   */\n      dup4\n        /* \"#utility.yul\":3501:3518   */\n      add\n        /* \"#utility.yul\":3494:3541   */\n      mstore\n        /* \"#utility.yul\":3558:3689   */\n      tag_75\n        /* \"#utility.yul\":3684:3688   */\n      dup2\n        /* \"#utility.yul\":3558:3689   */\n      tag_43\n      jump\t// in\n    tag_75:\n        /* \"#utility.yul\":3550:3689   */\n      swap1\n      pop\n        /* \"#utility.yul\":3277:3696   */\n      swap2\n      swap1\n      pop\n      jump\t// out\n\n    auxdata: 0xa26469706673582212203b10f1167babd1c698c5e6c2f26cdd0e77bc6e9f52f76ff1aa3cb14f9b72e89d64736f6c634300081a0033\n}\n",
				"bytecode": {
					"linkReferences": {},
					"object": "6080604052348015600e575f80fd5b506103208061001c5f395ff3fe608060405234801561000f575f80fd5b506004361061004a575f3560e01c8063209877671461004e5780632b813bc01461006a5780634e70b1dc14610074578063b8bd717f14610092575b5f80fd5b6100686004803603810190610063919061018a565b6100ae565b005b6100726100f5565b005b61007c610108565b60405161008991906101c4565b60405180910390f35b6100ac60048036038101906100a7919061018a565b61010d565b005b600a8110156100f2576040517f08c379a00000000000000000000000000000000000000000000000000000000081526004016100e990610237565b60405180910390fd5b50565b5f80541461010657610105610255565b5b565b5f5481565b600a8111610150576040517f08c379a0000000000000000000000000000000000000000000000000000000008152600401610147906102cc565b60405180910390fd5b50565b5f80fd5b5f819050919050565b61016981610157565b8114610173575f80fd5b50565b5f8135905061018481610160565b92915050565b5f6020828403121561019f5761019e610153565b5b5f6101ac84828501610176565b91505092915050565b6101be81610157565b82525050565b5f6020820190506101d75f8301846101b5565b92915050565b5f82825260208201905092915050565b7f696e707574206d7573742062652067726561746572207468616e2031300000005f82015250565b5f610221601d836101dd565b915061022c826101ed565b602082019050919050565b5f6020820190508181035f83015261024e81610215565b9050919050565b7f4e487b71000000000000000000000000000000000000000000000000000000005f52600160045260245ffd5b7f496e707574206d7573742062652067726561746572207468616e2031300000005f82015250565b5f6102b6601d836101dd565b91506102c182610282565b602082019050919050565b5f6020820190508181035f8301526102e3816102aa565b905091905056fea26469706673582212203b10f1167babd1c698c5e6c2f26cdd0e77bc6e9f52f76ff1aa3cb14f9b72e89d64736f6c634300081a0033",
					"opcodes": "PUSH1 0x80 PUSH1 0x40 MSTORE CALLVALUE DUP1 ISZERO PUSH1 0xE JUMPI PUSH0 DUP1 REVERT JUMPDEST POP PUSH2 0x320 DUP1 PUSH2 0x1C PUSH0 CODECOPY PUSH0 RETURN INVALID PUSH1 0x80 PUSH1 0x40 MSTORE CALLVALUE DUP1 ISZERO PUSH2 0xF JUMPI PUSH0 DUP1 REVERT JUMPDEST POP PUSH1 0x4 CALLDATASIZE LT PUSH2 0x4A JUMPI PUSH0 CALLDATALOAD PUSH1 0xE0 SHR DUP1 PUSH4 0x20987767 EQ PUSH2 0x4E JUMPI DUP1 PUSH4 0x2B813BC0 EQ PUSH2 0x6A JUMPI DUP1 PUSH4 0x4E70B1DC EQ PUSH2 0x74 JUMPI DUP1 PUSH4 0xB8BD717F EQ PUSH2 0x92 JUMPI JUMPDEST PUSH0 DUP1 REVERT JUMPDEST PUSH2 0x68 PUSH1 0x4 DUP1 CALLDATASIZE SUB DUP2 ADD SWAP1 PUSH2 0x63 SWAP2 SWAP1 PUSH2 0x18A JUMP JUMPDEST PUSH2 0xAE JUMP JUMPDEST STOP JUMPDEST PUSH2 0x72 PUSH2 0xF5 JUMP JUMPDEST STOP JUMPDEST PUSH2 0x7C PUSH2 0x108 JUMP JUMPDEST PUSH1 0x40 MLOAD PUSH2 0x89 SWAP2 SWAP1 PUSH2 0x1C4 JUMP JUMPDEST PUSH1 0x40 MLOAD DUP1 SWAP2 SUB SWAP1 RETURN JUMPDEST PUSH2 0xAC PUSH1 0x4 DUP1 CALLDATASIZE SUB DUP2 ADD SWAP1 PUSH2 0xA7 SWAP2 SWAP1 PUSH2 0x18A JUMP JUMPDEST PUSH2 0x10D JUMP JUMPDEST STOP JUMPDEST PUSH1 0xA DUP2 LT ISZERO PUSH2 0xF2 JUMPI PUSH1 0x40 MLOAD PUSH32 0x8C379A000000000000000000000000000000000000000000000000000000000 DUP2 MSTORE PUSH1 0x4 ADD PUSH2 0xE9 SWAP1 PUSH2 0x237 JUMP JUMPDEST PUSH1 0x40 MLOAD DUP1 SWAP2 SUB SWAP1 REVERT JUMPDEST POP JUMP JUMPDEST PUSH0 DUP1 SLOAD EQ PUSH2 0x106 JUMPI PUSH2 0x105 PUSH2 0x255 JUMP JUMPDEST JUMPDEST JUMP JUMPDEST PUSH0 SLOAD DUP2 JUMP JUMPDEST PUSH1 0xA DUP2 GT PUSH2 0x150 JUMPI PUSH1 0x40 MLOAD PUSH32 0x8C379A000000000000000000000000000000000000000000000000000000000 DUP2 MSTORE PUSH1 0x4 ADD PUSH2 0x147 SWAP1 PUSH2 0x2CC JUMP JUMPDEST PUSH1 0x40 MLOAD DUP1 SWAP2 SUB SWAP1 REVERT JUMPDEST POP JUMP JUMPDEST PUSH0 DUP1 REVERT JUMPDEST PUSH0 DUP2 SWAP1 POP SWAP2 SWAP1 POP JUMP JUMPDEST PUSH2 0x169 DUP2 PUSH2 0x157 JUMP JUMPDEST DUP2 EQ PUSH2 0x173 JUMPI PUSH0 DUP1 REVERT JUMPDEST POP JUMP JUMPDEST PUSH0 DUP2 CALLDATALOAD SWAP1 POP PUSH2 0x184 DUP2 PUSH2 0x160 JUMP JUMPDEST SWAP3 SWAP2 POP POP JUMP JUMPDEST PUSH0 PUSH1 0x20 DUP3 DUP5 SUB SLT ISZERO PUSH2 0x19F JUMPI PUSH2 0x19E PUSH2 0x153 JUMP JUMPDEST JUMPDEST PUSH0 PUSH2 0x1AC DUP5 DUP3 DUP6 ADD PUSH2 0x176 JUMP JUMPDEST SWAP2 POP POP SWAP3 SWAP2 POP POP JUMP JUMPDEST PUSH2 0x1BE DUP2 PUSH2 0x157 JUMP JUMPDEST DUP3 MSTORE POP POP JUMP JUMPDEST PUSH0 PUSH1 0x20 DUP3 ADD SWAP1 POP PUSH2 0x1D7 PUSH0 DUP4 ADD DUP5 PUSH2 0x1B5 JUMP JUMPDEST SWAP3 SWAP2 POP POP JUMP JUMPDEST PUSH0 DUP3 DUP3 MSTORE PUSH1 0x20 DUP3 ADD SWAP1 POP SWAP3 SWAP2 POP POP JUMP JUMPDEST PUSH32 0x696E707574206D7573742062652067726561746572207468616E203130000000 PUSH0 DUP3 ADD MSTORE POP JUMP JUMPDEST PUSH0 PUSH2 0x221 PUSH1 0x1D DUP4 PUSH2 0x1DD JUMP JUMPDEST SWAP2 POP PUSH2 0x22C DUP3 PUSH2 0x1ED JUMP JUMPDEST PUSH1 0x20 DUP3 ADD SWAP1 POP SWAP2 SWAP1 POP JUMP JUMPDEST PUSH0 PUSH1 0x20 DUP3 ADD SWAP1 POP DUP2 DUP2 SUB PUSH0 DUP4 ADD MSTORE PUSH2 0x24E DUP2 PUSH2 0x215 JUMP JUMPDEST SWAP1 POP SWAP2 SWAP1 POP JUMP JUMPDEST PUSH32 0x4E487B7100000000000000000000000000000000000000000000000000000000 PUSH0 MSTORE PUSH1 0x1 PUSH1 0x4 MSTORE PUSH1 0x24 PUSH0 REVERT JUMPDEST PUSH32 0x496E707574206D7573742062652067726561746572207468616E203130000000 PUSH0 DUP3 ADD MSTORE POP JUMP JUMPDEST PUSH0 PUSH2 0x2B6 PUSH1 0x1D DUP4 PUSH2 0x1DD JUMP JUMPDEST SWAP2 POP PUSH2 0x2C1 DUP3 PUSH2 0x282 JUMP JUMPDEST PUSH1 0x20 DUP3 ADD SWAP1 POP SWAP2 SWAP1 POP JUMP JUMPDEST PUSH0 PUSH1 0x20 DUP3 ADD SWAP1 POP DUP2 DUP2 SUB PUSH0 DUP4 ADD MSTORE PUSH2 0x2E3 DUP2 PUSH2 0x2AA JUMP JUMPDEST SWAP1 POP SWAP2 SWAP1 POP JUMP INVALID LOG2 PUSH5 0x6970667358 0x22 SLT KECCAK256 EXTCODESIZE LT CALL AND PUSH28 0xABD1C698C5E6C2F26CDD0E77BC6E9F52F76FF1AA3CB14F9B72E89D64 PUSH20 0x6F6C634300081A00330000000000000000000000 "
				},
				"gasEstimates": {
					"creation": {
						"codeDepositCost": "160000",
						"executionCost": "200",
						"totalCost": "160200"
					},
					"external": {
						"num()": "2446",
						"testAssert()": "2292",
						"testRequire(uint256)": "750",
						"testRevert(uint256)": "687"
					}
				},
				"methodIdentifiers": {
					"num()": "4e70b1dc",
					"testAssert()": "2b813bc0",
					"testRequire(uint256)": "b8bd717f",
					"testRevert(uint256)": "20987767"
				}
			},
			"storageLayout": {
				"storage": [
					{
						"astId": 31,
						"contract": "base/Error.sol:Errors",
						"label": "num",
						"offset": 0,
						"slot": "0",
						"type": "t_uint256"
					}
				],
				"types": {
					"t_uint256": {
						"encoding": "inplace",
						"label": "uint256",
						"numberOfBytes": "32"
					}
				}
			},
			"userdoc": {
				"kind": "user",
				"methods": {},
				"version": 1
			}
		}
	}
}