{
	"data": {
		"bytecode": {
			"linkReferences": {},
			"object": "6080604052348015600e575f80fd5b506102fe8061001c5f395ff3fe608060405234801561000f575f80fd5b506004361061003f575f3560e01c8063b69ef8a814610043578063b6b55f2514610061578063e5b5019a1461007d575b5f80fd5b61004b61009b565b6040516100589190610151565b60405180910390f35b61007b60048036038101906100769190610198565b6100a0565b005b610085610115565b6040516100929190610151565b60405180910390f35b5f5481565b5f805490505f825f546100b391906101f0565b9050818110156100f8576040517f08c379a00000000000000000000000000000000000000000000000000000000081526004016100ef9061027d565b60405180910390fd5b805f81905550815f5410156101105761010f61029b565b5b505050565b7fffffffffffffffffffffffffffffffffffffffffffffffffffffffffffffffff81565b5f819050919050565b61014b81610139565b82525050565b5f6020820190506101645f830184610142565b92915050565b5f80fd5b61017781610139565b8114610181575f80fd5b50565b5f813590506101928161016e565b92915050565b5f602082840312156101ad576101ac61016a565b5b5f6101ba84828501610184565b91505092915050565b7f4e487b71000000000000000000000000000000000000000000000000000000005f52601160045260245ffd5b5f6101fa82610139565b915061020583610139565b925082820190508082111561021d5761021c6101c3565b5b92915050565b5f82825260208201905092915050565b7f4f766572666c6f770000000000000000000000000000000000000000000000005f82015250565b5f610267600883610223565b915061027282610233565b602082019050919050565b5f6020820190508181035f8301526102948161025b565b9050919050565b7f4e487b71000000000000000000000000000000000000000000000000000000005f52600160045260245ffdfea26469706673582212203dc604929bb796f3cf9a783303261227430e5c2a8ff325dc77621934e43f061464736f6c634300081a0033",
			"opcodes": "PUSH1 0x80 PUSH1 0x40 MSTORE CALLVALUE DUP1 ISZERO PUSH1 0xE JUMPI PUSH0 DUP1 REVERT JUMPDEST POP PUSH2 0x2FE DUP1 PUSH2 0x1C PUSH0 CODECOPY PUSH0 RETURN INVALID PUSH1 0x80 PUSH1 0x40 MSTORE CALLVALUE DUP1 ISZERO PUSH2 0xF JUMPI PUSH0 DUP1 REVERT JUMPDEST POP PUSH1 0x4 CALLDATASIZE LT PUSH2 0x3F JUMPI PUSH0 CALLDATALOAD PUSH1 0xE0 SHR DUP1 PUSH4 0xB69EF8A8 EQ PUSH2 0x43 JUMPI DUP1 PUSH4 0xB6B55F25 EQ PUSH2 0x61 JUMPI DUP1 PUSH4 0xE5B5019A EQ PUSH2 0x7D JUMPI JUMPDEST PUSH0 DUP1 REVERT JUMPDEST PUSH2 0x4B PUSH2 0x9B JUMP JUMPDEST PUSH1 0x40 MLOAD PUSH2 0x58 SWAP2 SWAP1 PUSH2 0x151 JUMP JUMPDEST PUSH1 0x40 MLOAD DUP1 SWAP2 SUB SWAP1 RETURN JUMPDEST PUSH2 0x7B PUSH1 0x4 DUP1 CALLDATASIZE SUB DUP2 ADD SWAP1 PUSH2 0x76 SWAP2 SWAP1 PUSH2 0x198 JUMP JUMPDEST PUSH2 0xA0 JUMP JUMPDEST STOP JUMPDEST PUSH2 0x85 PUSH2 0x115 JUMP JUMPDEST PUSH1 0x40 MLOAD PUSH2 0x92 SWAP2 SWAP1 PUSH2 0x151 JUMP JUMPDEST PUSH1 0x40 MLOAD DUP1 SWAP2 SUB SWAP1 RETURN JUMPDEST PUSH0 SLOAD DUP2 JUMP JUMPDEST PUSH0 DUP1 SLOAD SWAP1 POP PUSH0 DUP3 PUSH0 SLOAD PUSH2 0xB3 SWAP2 SWAP1 PUSH2 0x1F0 JUMP JUMPDEST SWAP1 POP DUP2 DUP2 LT ISZERO PUSH2 0xF8 JUMPI PUSH1 0x40 MLOAD PUSH32 0x8C379A000000000000000000000000000000000000000000000000000000000 DUP2 MSTORE PUSH1 0x4 ADD PUSH2 0xEF SWAP1 PUSH2 0x27D JUMP JUMPDEST PUSH1 0x40 MLOAD DUP1 SWAP2 SUB SWAP1 REVERT JUMPDEST DUP1 PUSH0 DUP2 SWAP1 SSTORE POP DUP2 PUSH0 SLOAD LT ISZERO PUSH2 0x110 JUMPI PUSH2 0x10F PUSH2 0x29B JUMP JUMPDEST JUMPDEST POP POP POP JUMP JUMPDEST PUSH32 0xFFFFFFFFFFFFFFFFFFFFFFFFFFFFFFFFFFFFFFFFFFFFFFFFFFFFFFFFFFFFFFFF DUP2 JUMP JUMPDEST PUSH0 DUP2 SWAP1 POP SWAP2 SWAP1 POP JUMP JUMPDEST PUSH2 0x14B DUP2 PUSH2 0x139 JUMP JUMPDEST DUP3 MSTORE POP POP JUMP JUMPDEST PUSH0 PUSH1 0x20 DUP3 ADD SWAP1 POP PUSH2 0x164 PUSH0 DUP4 ADD DUP5 PUSH2 0x142 JUMP JUMPDEST SWAP3 SWAP2 POP POP JUMP JUMPDEST PUSH0 DUP1 REVERT JUMPDEST PUSH2 0x177 DUP2 PUSH2 0x139 JUMP JUMPDEST DUP2 EQ PUSH2 0x181 JUMPI PUSH0 DUP1 REVERT JUMPDEST POP JUMP JUMPDEST PUSH0 DUP2 CALLDATALOAD SWAP1 POP PUSH2 0x192 DUP2 PUSH2 0x16E JUMP JUMPDEST SWAP3 SWAP2 POP POP JUMP JUMPDEST PUSH0 PUSH1 0x20 DUP3 DUP5 SUB SLT ISZERO PUSH2 0x1AD JUMPI PUSH2 0x1AC PUSH2 0x16A JUMP JUMPDEST JUMPDEST PUSH0 PUSH2 0x1BA DUP5 DUP3 DUP6 ADD PUSH2 0x184 JUMP JUMPDEST SWAP2 POP POP SWAP3 SWAP2 POP POP JUMP JUMPDEST PUSH32 0x4E487B7100000000000000000000000000000000000000000000000000000000 PUSH0 MSTORE PUSH1 0x11 PUSH1 0x4 MSTORE PUSH1 0x24 PUSH0 REVERT JUMPDEST PUSH0 PUSH2 0x1FA DUP3 PUSH2 0x139 JUMP JUMPDEST SWAP2 POP PUSH2 0x205 DUP4 PUSH2 0x139 JUMP JUMPDEST SWAP3 POP DUP3 DUP3 ADD SWAP1 POP DUP1 DUP3 GT ISZERO PUSH2 0x21D JUMPI PUSH2 0x21C PUSH2 0x1C3 JUMP JUMPDEST JUMPDEST SWAP3 SWAP2 POP POP JUMP JUMPDEST PUSH0 DUP3 DUP3 MSTORE PUSH1 0x20 DUP3 ADD SWAP1 POP SWAP3 SWAP2 POP POP JUMP JUMPDEST PUSH32 0x4F766572666C6F77000000000000000000000000000000000000000000000000 PUSH0 DUP3 ADD MSTORE POP JUMP JUMPDEST PUSH0 PUSH2 0x267 PUSH1 0x8 DUP4 PUSH2 0x223 JUMP JUMPDEST SWAP2 POP PUSH2 0x272 DUP3 PUSH2 0x233 JUMP JUMPDEST PUSH1 0x20 DUP3 ADD SWAP1 POP SWAP2 SWAP1 POP JUMP JUMPDEST PUSH0 PUSH1 0x20 DUP3 ADD SWAP1 POP DUP2 DUP2 SUB PUSH0 DUP4 ADD MSTORE PUSH2 0x294 DUP2 PUSH2 0x25B JUMP JUMPDEST SWAP1 POP SWAP2 SWAP1 POP JUMP JUMPDEST PUSH32 0x4E487B7100000000000000000000000000000000000000000000000000000000 PUSH0 MSTORE PUSH1 0x1 PUSH1 0x4 MSTORE PUSH1 0x24 PUSH0 REVERT INVALID LOG2 PUSH5 0x6970667358 0x22 SLT KECCAK256 RETURNDATASIZE 0xC6 DIV SWAP3 SWAP12 0xB7 SWAP7 RETURN 0xCF SWAP11 PUSH25 0x3303261227430E5C2A8FF325DC77621934E43F061464736F6C PUSH4 0x4300081A STOP CALLER "
		},
		"gasEstimates": {
			"creation": {
				"codeDepositCost": "153200",
				"executionCost": "194",
				"totalCost": "153394"
			},
			"external": {
				"MAX_UINT()": "347",
				"balance()": "2402",
				"deposit(uint256)": "infinite"
			}
		},
		"methodIdentifiers": {
			"MAX_UINT()": "e5b5019a",
			"balance()": "b69ef8a8",
			"deposit(uint256)": "b6b55f25"
		}
	},
	"abi": [
		{
			"inputs": [],
			"name": "MAX_UINT",
			"outputs": [
				{
					"internalType": "uint256",
					"name": "",
					"type": "uint256"
				}
			],
			"stateMutability": "view",
			"type": "function"
		},
		{
			"inputs": [],
			"name": "balance",
			"outputs": [
				{
					"internalType": "uint256",
					"name": "",
					"type": "uint256"
				}
			],
			"stateMutability": "view",
			"type": "function"
		},
		{
			"inputs": [
				{
					"internalType": "uint256",
					"name": "_amount",
					"type": "uint256"
				}
			],
			"name": "deposit",
			"outputs": [],
			"stateMutability": "nonpayable",
			"type": "function"
		}
	]
}